{
  "_format": "hh-sol-artifact-1",
  "contractName": "AuthorizationToken",
  "sourceName": "examples/EIP712.sol",
  "abi": [
    {
      "inputs": [],
      "stateMutability": "nonpayable",
      "type": "constructor"
    },
    {
      "inputs": [],
      "name": "InvalidShortString",
      "type": "error"
    },
    {
      "inputs": [
        {
          "internalType": "string",
          "name": "str",
          "type": "string"
        }
      ],
      "name": "StringTooLong",
      "type": "error"
    },
    {
      "anonymous": false,
      "inputs": [],
      "name": "EIP712DomainChanged",
      "type": "event"
    },
    {
      "inputs": [],
      "name": "eip712Domain",
      "outputs": [
        {
          "internalType": "bytes1",
          "name": "fields",
          "type": "bytes1"
        },
        {
          "internalType": "string",
          "name": "name",
          "type": "string"
        },
        {
          "internalType": "string",
          "name": "version",
          "type": "string"
        },
        {
          "internalType": "uint256",
          "name": "chainId",
          "type": "uint256"
        },
        {
          "internalType": "address",
          "name": "verifyingContract",
          "type": "address"
        },
        {
          "internalType": "bytes32",
          "name": "salt",
          "type": "bytes32"
        },
        {
          "internalType": "uint256[]",
          "name": "extensions",
          "type": "uint256[]"
        }
      ],
      "stateMutability": "view",
      "type": "function"
    },
    {
      "inputs": [
        {
          "internalType": "bytes32",
          "name": "publicKey",
          "type": "bytes32"
        },
        {
          "internalType": "bytes",
          "name": "signature",
          "type": "bytes"
        }
      ],
      "name": "verify",
      "outputs": [
        {
          "internalType": "bool",
          "name": "",
          "type": "bool"
        }
      ],
      "stateMutability": "view",
      "type": "function"
    }
  ],
  "bytecode": "0x6101606040523480156200001257600080fd5b506040518060400160405280601381526020017f417574686f72697a6174696f6e20746f6b656e000000000000000000000000008152506040518060400160405280600181526020017f310000000000000000000000000000000000000000000000000000000000000081525081816200009c6000836200014360201b620002b91790919060201c565b6101208181525050620000bf6001826200014360201b620002b91790919060201c565b6101408181525050818051906020012060e08181525050808051906020012061010081815250504660a08181525050620000fe620001a060201b60201c565b608081815250503073ffffffffffffffffffffffffffffffffffffffff1660c08173ffffffffffffffffffffffffffffffffffffffff168152505050505050620007f8565b600060208351101562000169576200016183620001fd60201b60201c565b90506200019a565b8262000180836200026a60201b620002fd1760201c565b6000019081620001919190620004ee565b5060ff60001b90505b92915050565b60007f8b73c3c69bb8fe3d512ecc4cf759cc79239f7b179b0ffacaa9a75d522b39400f60e051610100514630604051602001620001e295949392919062000646565b60405160208183030381529060405280519060200120905090565b600080829050601f815111156200024d57826040517f305a27a900000000000000000000000000000000000000000000000000000000815260040162000244919062000732565b60405180910390fd5b8051816200025b9062000788565b60001c1760001b915050919050565b6000819050919050565b600081519050919050565b7f4e487b7100000000000000000000000000000000000000000000000000000000600052604160045260246000fd5b7f4e487b7100000000000000000000000000000000000000000000000000000000600052602260045260246000fd5b60006002820490506001821680620002f657607f821691505b6020821081036200030c576200030b620002ae565b5b50919050565b60008190508160005260206000209050919050565b60006020601f8301049050919050565b600082821b905092915050565b600060088302620003767fffffffffffffffffffffffffffffffffffffffffffffffffffffffffffffffff8262000337565b62000382868362000337565b95508019841693508086168417925050509392505050565b6000819050919050565b6000819050919050565b6000620003cf620003c9620003c3846200039a565b620003a4565b6200039a565b9050919050565b6000819050919050565b620003eb83620003ae565b62000403620003fa82620003d6565b84845462000344565b825550505050565b600090565b6200041a6200040b565b62000427818484620003e0565b505050565b5b818110156200044f576200044360008262000410565b6001810190506200042d565b5050565b601f8211156200049e57620004688162000312565b620004738462000327565b8101602085101562000483578190505b6200049b620004928562000327565b8301826200042c565b50505b505050565b600082821c905092915050565b6000620004c360001984600802620004a3565b1980831691505092915050565b6000620004de8383620004b0565b9150826002028217905092915050565b620004f98262000274565b67ffffffffffffffff8111156200051557620005146200027f565b5b620005218254620002dd565b6200052e82828562000453565b600060209050601f83116001811462000566576000841562000551578287015190505b6200055d8582620004d0565b865550620005cd565b601f198416620005768662000312565b60005b82811015620005a05784890151825560018201915060208501945060208101905062000579565b86831015620005c05784890151620005bc601f891682620004b0565b8355505b6001600288020188555050505b505050505050565b6000819050919050565b620005ea81620005d5565b82525050565b620005fb816200039a565b82525050565b600073ffffffffffffffffffffffffffffffffffffffff82169050919050565b60006200062e8262000601565b9050919050565b620006408162000621565b82525050565b600060a0820190506200065d6000830188620005df565b6200066c6020830187620005df565b6200067b6040830186620005df565b6200068a6060830185620005f0565b62000699608083018462000635565b9695505050505050565b600082825260208201905092915050565b60005b83811015620006d4578082015181840152602081019050620006b7565b60008484015250505050565b6000601f19601f8301169050919050565b6000620006fe8262000274565b6200070a8185620006a3565b93506200071c818560208601620006b4565b6200072781620006e0565b840191505092915050565b600060208201905081810360008301526200074e8184620006f1565b905092915050565b600081519050919050565b6000819050602082019050919050565b60006200077f8251620005d5565b80915050919050565b6000620007958262000756565b82620007a18462000761565b9050620007ae8162000771565b92506020821015620007f157620007ec7fffffffffffffffffffffffffffffffffffffffffffffffffffffffffffffffff8360200360080262000337565b831692505b5050919050565b60805160a05160c05160e0516101005161012051610140516114006200085360003960006101fe015260006101ca015260006107c9015260006107a801526000610464015260006104ba015260006104e301526114006000f3fe608060405234801561001057600080fd5b50600436106100365760003560e01c8063258ae5821461003b57806384b0196e1461006b575b600080fd5b610055600480360381019061005091906109f0565b61008f565b6040516100629190610a6b565b60405180910390f35b6100736101b7565b6040516100869796959493929190610c78565b60405180910390f35b60008383838080601f016020809104026020016040519081016040528093929190818152602001838380828437600081840152601f19601f82011690508083019250505050505050600061012a7f051d137ae0e1fae6e3b6559fed4442b35a85a9a39789838ad5c9ea05e7da2dce8460405160200161010f929190610cfc565b60405160208183030381529060405280519060200120610307565b905060006101388284610321565b90503373ffffffffffffffffffffffffffffffffffffffff168173ffffffffffffffffffffffffffffffffffffffff16146101a8576040517f08c379a000000000000000000000000000000000000000000000000000000000815260040161019f90610d97565b60405180910390fd5b60019450505050509392505050565b6000606080600080600060606101f760007f000000000000000000000000000000000000000000000000000000000000000061034890919063ffffffff16565b61022b60017f000000000000000000000000000000000000000000000000000000000000000061034890919063ffffffff16565b46306000801b600067ffffffffffffffff81111561024c5761024b610db7565b5b60405190808252806020026020018201604052801561027a5781602001602082028036833780820191505090505b507f0f00000000000000000000000000000000000000000000000000000000000000959493929190965096509650965096509650965090919293949596565b60006020835110156102d5576102ce836103f8565b90506102f7565b826102df836102fd565b60000190816102ee9190610ff2565b5060ff60001b90505b92915050565b6000819050919050565b600061031a610314610460565b83610517565b9050919050565b60008060006103308585610558565b9150915061033d816105a9565b819250505092915050565b606060ff60001b83146103655761035e8361070f565b90506103f2565b81805461037190610e15565b80601f016020809104026020016040519081016040528092919081815260200182805461039d90610e15565b80156103ea5780601f106103bf576101008083540402835291602001916103ea565b820191906000526020600020905b8154815290600101906020018083116103cd57829003601f168201915b505050505090505b92915050565b600080829050601f8151111561044557826040517f305a27a900000000000000000000000000000000000000000000000000000000815260040161043c91906110c4565b60405180910390fd5b80518161045190611116565b60001c1760001b915050919050565b60007f000000000000000000000000000000000000000000000000000000000000000073ffffffffffffffffffffffffffffffffffffffff163073ffffffffffffffffffffffffffffffffffffffff161480156104dc57507f000000000000000000000000000000000000000000000000000000000000000046145b15610509577f00000000000000000000000000000000000000000000000000000000000000009050610514565b610511610783565b90505b90565b60006040517f190100000000000000000000000000000000000000000000000000000000000081528360028201528260228201526042812091505092915050565b60008060418351036105995760008060006020860151925060408601519150606086015160001a905061058d87828585610819565b945094505050506105a2565b60006002915091505b9250929050565b600060048111156105bd576105bc61117d565b5b8160048111156105d0576105cf61117d565b5b031561070c57600160048111156105ea576105e961117d565b5b8160048111156105fd576105fc61117d565b5b0361063d576040517f08c379a0000000000000000000000000000000000000000000000000000000008152600401610634906111f8565b60405180910390fd5b600260048111156106515761065061117d565b5b8160048111156106645761066361117d565b5b036106a4576040517f08c379a000000000000000000000000000000000000000000000000000000000815260040161069b90611264565b60405180910390fd5b600360048111156106b8576106b761117d565b5b8160048111156106cb576106ca61117d565b5b0361070b576040517f08c379a0000000000000000000000000000000000000000000000000000000008152600401610702906112f6565b60405180910390fd5b5b50565b6060600061071c836108fb565b90506000602067ffffffffffffffff81111561073b5761073a610db7565b5b6040519080825280601f01601f19166020018201604052801561076d5781602001600182028036833780820191505090505b5090508181528360208201528092505050919050565b60007f8b73c3c69bb8fe3d512ecc4cf759cc79239f7b179b0ffacaa9a75d522b39400f7f00000000000000000000000000000000000000000000000000000000000000007f000000000000000000000000000000000000000000000000000000000000000046306040516020016107fe959493929190611316565b60405160208183030381529060405280519060200120905090565b6000807f7fffffffffffffffffffffffffffffff5d576e7357a4501ddfe92f46681b20a08360001c11156108545760006003915091506108f2565b6000600187878787604051600081526020016040526040516108799493929190611385565b6020604051602081039080840390855afa15801561089b573d6000803e3d6000fd5b505050602060405103519050600073ffffffffffffffffffffffffffffffffffffffff168173ffffffffffffffffffffffffffffffffffffffff16036108e9576000600192509250506108f2565b80600092509250505b94509492505050565b60008060ff8360001c169050601f811115610942576040517fb3512b0c00000000000000000000000000000000000000000000000000000000815260040160405180910390fd5b80915050919050565b600080fd5b600080fd5b6000819050919050565b61096881610955565b811461097357600080fd5b50565b6000813590506109858161095f565b92915050565b600080fd5b600080fd5b600080fd5b60008083601f8401126109b0576109af61098b565b5b8235905067ffffffffffffffff8111156109cd576109cc610990565b5b6020830191508360018202830111156109e9576109e8610995565b5b9250929050565b600080600060408486031215610a0957610a0861094b565b5b6000610a1786828701610976565b935050602084013567ffffffffffffffff811115610a3857610a37610950565b5b610a448682870161099a565b92509250509250925092565b60008115159050919050565b610a6581610a50565b82525050565b6000602082019050610a806000830184610a5c565b92915050565b60007fff0000000000000000000000000000000000000000000000000000000000000082169050919050565b610abb81610a86565b82525050565b600081519050919050565b600082825260208201905092915050565b60005b83811015610afb578082015181840152602081019050610ae0565b60008484015250505050565b6000601f19601f8301169050919050565b6000610b2382610ac1565b610b2d8185610acc565b9350610b3d818560208601610add565b610b4681610b07565b840191505092915050565b6000819050919050565b610b6481610b51565b82525050565b600073ffffffffffffffffffffffffffffffffffffffff82169050919050565b6000610b9582610b6a565b9050919050565b610ba581610b8a565b82525050565b610bb481610955565b82525050565b600081519050919050565b600082825260208201905092915050565b6000819050602082019050919050565b610bef81610b51565b82525050565b6000610c018383610be6565b60208301905092915050565b6000602082019050919050565b6000610c2582610bba565b610c2f8185610bc5565b9350610c3a83610bd6565b8060005b83811015610c6b578151610c528882610bf5565b9750610c5d83610c0d565b925050600181019050610c3e565b5085935050505092915050565b600060e082019050610c8d600083018a610ab2565b8181036020830152610c9f8189610b18565b90508181036040830152610cb38188610b18565b9050610cc26060830187610b5b565b610ccf6080830186610b9c565b610cdc60a0830185610bab565b81810360c0830152610cee8184610c1a565b905098975050505050505050565b6000604082019050610d116000830185610bab565b610d1e6020830184610bab565b9392505050565b7f454950373132207369676e657220616e64207472616e73616374696f6e20736960008201527f676e657220646f206e6f74206d61746368000000000000000000000000000000602082015250565b6000610d81603183610acc565b9150610d8c82610d25565b604082019050919050565b60006020820190508181036000830152610db081610d74565b9050919050565b7f4e487b7100000000000000000000000000000000000000000000000000000000600052604160045260246000fd5b7f4e487b7100000000000000000000000000000000000000000000000000000000600052602260045260246000fd5b60006002820490506001821680610e2d57607f821691505b602082108103610e4057610e3f610de6565b5b50919050565b60008190508160005260206000209050919050565b60006020601f8301049050919050565b600082821b905092915050565b600060088302610ea87fffffffffffffffffffffffffffffffffffffffffffffffffffffffffffffffff82610e6b565b610eb28683610e6b565b95508019841693508086168417925050509392505050565b6000819050919050565b6000610eef610eea610ee584610b51565b610eca565b610b51565b9050919050565b6000819050919050565b610f0983610ed4565b610f1d610f1582610ef6565b848454610e78565b825550505050565b600090565b610f32610f25565b610f3d818484610f00565b505050565b5b81811015610f6157610f56600082610f2a565b600181019050610f43565b5050565b601f821115610fa657610f7781610e46565b610f8084610e5b565b81016020851015610f8f578190505b610fa3610f9b85610e5b565b830182610f42565b50505b505050565b600082821c905092915050565b6000610fc960001984600802610fab565b1980831691505092915050565b6000610fe28383610fb8565b9150826002028217905092915050565b610ffb82610ac1565b67ffffffffffffffff81111561101457611013610db7565b5b61101e8254610e15565b611029828285610f65565b600060209050601f83116001811461105c576000841561104a578287015190505b6110548582610fd6565b8655506110bc565b601f19841661106a86610e46565b60005b828110156110925784890151825560018201915060208501945060208101905061106d565b868310156110af57848901516110ab601f891682610fb8565b8355505b6001600288020188555050505b505050505050565b600060208201905081810360008301526110de8184610b18565b905092915050565b600081519050919050565b6000819050602082019050919050565b600061110d8251610955565b80915050919050565b6000611121826110e6565b8261112b846110f1565b905061113681611101565b92506020821015611176576111717fffffffffffffffffffffffffffffffffffffffffffffffffffffffffffffffff83602003600802610e6b565b831692505b5050919050565b7f4e487b7100000000000000000000000000000000000000000000000000000000600052602160045260246000fd5b7f45434453413a20696e76616c6964207369676e61747572650000000000000000600082015250565b60006111e2601883610acc565b91506111ed826111ac565b602082019050919050565b60006020820190508181036000830152611211816111d5565b9050919050565b7f45434453413a20696e76616c6964207369676e6174757265206c656e67746800600082015250565b600061124e601f83610acc565b915061125982611218565b602082019050919050565b6000602082019050818103600083015261127d81611241565b9050919050565b7f45434453413a20696e76616c6964207369676e6174757265202773272076616c60008201527f7565000000000000000000000000000000000000000000000000000000000000602082015250565b60006112e0602283610acc565b91506112eb82611284565b604082019050919050565b6000602082019050818103600083015261130f816112d3565b9050919050565b600060a08201905061132b6000830188610bab565b6113386020830187610bab565b6113456040830186610bab565b6113526060830185610b5b565b61135f6080830184610b9c565b9695505050505050565b600060ff82169050919050565b61137f81611369565b82525050565b600060808201905061139a6000830187610bab565b6113a76020830186611376565b6113b46040830185610bab565b6113c16060830184610bab565b9594505050505056fea2646970667358221220458598336643ee4b2dff4ab2166b4a3482a705b9ed823b3ba24d8cb3af6cad8164736f6c63430008120033",
  "linkReferences": {},
  "deployedLinkReferences": {}
}