{
  "_format": "hh-sol-artifact-1",
  "contractName": "BlindAuction",
  "sourceName": "examples/BlindAuction.sol",
  "abi": [
    {
      "inputs": [
        {
          "internalType": "address",
          "name": "_beneficiary",
          "type": "address"
        },
        {
          "internalType": "contract EncryptedERC20",
          "name": "_tokenContract",
          "type": "address"
        },
        {
          "internalType": "uint256",
          "name": "biddingTime",
          "type": "uint256"
        },
        {
          "internalType": "bool",
          "name": "isStoppable",
          "type": "bool"
        }
      ],
      "stateMutability": "nonpayable",
      "type": "constructor"
    },
    {
      "inputs": [],
      "name": "InvalidShortString",
      "type": "error"
    },
    {
      "inputs": [
        {
          "internalType": "string",
          "name": "str",
          "type": "string"
        }
      ],
      "name": "StringTooLong",
      "type": "error"
    },
    {
      "inputs": [
        {
          "internalType": "uint256",
          "name": "time",
          "type": "uint256"
        }
      ],
      "name": "TooEarly",
      "type": "error"
    },
    {
      "inputs": [
        {
          "internalType": "uint256",
          "name": "time",
          "type": "uint256"
        }
      ],
      "name": "TooLate",
      "type": "error"
    },
    {
      "anonymous": false,
      "inputs": [],
      "name": "EIP712DomainChanged",
      "type": "event"
    },
    {
      "anonymous": false,
      "inputs": [
        {
          "indexed": false,
          "internalType": "address",
          "name": "who",
          "type": "address"
        }
      ],
      "name": "Winner",
      "type": "event"
    },
    {
      "inputs": [],
      "name": "auctionEnd",
      "outputs": [],
      "stateMutability": "nonpayable",
      "type": "function"
    },
    {
      "inputs": [],
      "name": "beneficiary",
      "outputs": [
        {
          "internalType": "address",
          "name": "",
          "type": "address"
        }
      ],
      "stateMutability": "view",
      "type": "function"
    },
    {
      "inputs": [
        {
          "internalType": "bytes",
          "name": "encryptedValue",
          "type": "bytes"
        }
      ],
      "name": "bid",
      "outputs": [],
      "stateMutability": "nonpayable",
      "type": "function"
    },
    {
      "inputs": [],
      "name": "bidCounter",
      "outputs": [
        {
          "internalType": "uint256",
          "name": "",
          "type": "uint256"
        }
      ],
      "stateMutability": "view",
      "type": "function"
    },
    {
      "inputs": [
        {
          "internalType": "address",
          "name": "",
          "type": "address"
        }
      ],
      "name": "bids",
      "outputs": [
        {
          "internalType": "euint32",
          "name": "",
          "type": "uint256"
        }
      ],
      "stateMutability": "view",
      "type": "function"
    },
    {
      "inputs": [],
      "name": "claim",
      "outputs": [],
      "stateMutability": "nonpayable",
      "type": "function"
    },
    {
      "inputs": [
        {
          "internalType": "bytes32",
          "name": "publicKey",
          "type": "bytes32"
        },
        {
          "internalType": "bytes",
          "name": "signature",
          "type": "bytes"
        }
      ],
      "name": "doIHaveHighestBid",
      "outputs": [
        {
          "internalType": "bytes",
          "name": "",
          "type": "bytes"
        }
      ],
      "stateMutability": "view",
      "type": "function"
    },
    {
      "inputs": [],
      "name": "eip712Domain",
      "outputs": [
        {
          "internalType": "bytes1",
          "name": "fields",
          "type": "bytes1"
        },
        {
          "internalType": "string",
          "name": "name",
          "type": "string"
        },
        {
          "internalType": "string",
          "name": "version",
          "type": "string"
        },
        {
          "internalType": "uint256",
          "name": "chainId",
          "type": "uint256"
        },
        {
          "internalType": "address",
          "name": "verifyingContract",
          "type": "address"
        },
        {
          "internalType": "bytes32",
          "name": "salt",
          "type": "bytes32"
        },
        {
          "internalType": "uint256[]",
          "name": "extensions",
          "type": "uint256[]"
        }
      ],
      "stateMutability": "view",
      "type": "function"
    },
    {
      "inputs": [],
      "name": "endTime",
      "outputs": [
        {
          "internalType": "uint256",
          "name": "",
          "type": "uint256"
        }
      ],
      "stateMutability": "view",
      "type": "function"
    },
    {
      "inputs": [
        {
          "internalType": "bytes32",
          "name": "publicKey",
          "type": "bytes32"
        },
        {
          "internalType": "bytes",
          "name": "signature",
          "type": "bytes"
        }
      ],
      "name": "getBid",
      "outputs": [
        {
          "internalType": "bytes",
          "name": "",
          "type": "bytes"
        }
      ],
      "stateMutability": "view",
      "type": "function"
    },
    {
      "inputs": [],
      "name": "manuallyStopped",
      "outputs": [
        {
          "internalType": "bool",
          "name": "",
          "type": "bool"
        }
      ],
      "stateMutability": "view",
      "type": "function"
    },
    {
      "inputs": [],
      "name": "objectClaimed",
      "outputs": [
        {
          "internalType": "bool",
          "name": "",
          "type": "bool"
        }
      ],
      "stateMutability": "view",
      "type": "function"
    },
    {
      "inputs": [],
      "name": "stop",
      "outputs": [],
      "stateMutability": "nonpayable",
      "type": "function"
    },
    {
      "inputs": [],
      "name": "stoppable",
      "outputs": [
        {
          "internalType": "bool",
          "name": "",
          "type": "bool"
        }
      ],
      "stateMutability": "view",
      "type": "function"
    },
    {
      "inputs": [],
      "name": "tokenContract",
      "outputs": [
        {
          "internalType": "contract EncryptedERC20",
          "name": "",
          "type": "address"
        }
      ],
      "stateMutability": "view",
      "type": "function"
    },
    {
      "inputs": [],
      "name": "tokenTransferred",
      "outputs": [
        {
          "internalType": "bool",
          "name": "",
          "type": "bool"
        }
      ],
      "stateMutability": "view",
      "type": "function"
    },
    {
      "inputs": [],
      "name": "withdraw",
      "outputs": [],
      "stateMutability": "nonpayable",
      "type": "function"
    }
  ],
  "bytecode": "0x6101606040526000600760176101000a81548160ff0219169083151502179055503480156200002d57600080fd5b50604051620038bb380380620038bb8339818101604052810190620000539190620004cd565b6040518060400160405280601381526020017f417574686f72697a6174696f6e20746f6b656e000000000000000000000000008152506040518060400160405280600181526020017f31000000000000000000000000000000000000000000000000000000000000008152508181620000dc6000836200027560201b6200111f1790919060201c565b6101208181525050620000ff6001826200027560201b6200111f1790919060201c565b6101408181525050818051906020012060e08181525050808051906020012061010081815250504660a081815250506200013e620002d260201b60201c565b608081815250503073ffffffffffffffffffffffffffffffffffffffff1660c08173ffffffffffffffffffffffffffffffffffffffff16815250505050505083600360006101000a81548173ffffffffffffffffffffffffffffffffffffffff021916908373ffffffffffffffffffffffffffffffffffffffff16021790555082600760006101000a81548173ffffffffffffffffffffffffffffffffffffffff021916908373ffffffffffffffffffffffffffffffffffffffff16021790555081426200020d91906200056e565b6002819055506000600760146101000a81548160ff0219169083151502179055506000600760156101000a81548160ff021916908315150217905550600060068190555080600760166101000a81548160ff0219169083151502179055505050505062000aef565b60006020835110156200029b5762000293836200032f60201b60201c565b9050620002cc565b82620002b2836200039c60201b620011631760201c565b6000019081620002c3919062000819565b5060ff60001b90505b92915050565b60007f8b73c3c69bb8fe3d512ecc4cf759cc79239f7b179b0ffacaa9a75d522b39400f60e051610100514630604051602001620003149594939291906200093d565b60405160208183030381529060405280519060200120905090565b600080829050601f815111156200037f57826040517f305a27a900000000000000000000000000000000000000000000000000000000815260040162000376919062000a29565b60405180910390fd5b8051816200038d9062000a7f565b60001c1760001b915050919050565b6000819050919050565b600080fd5b600073ffffffffffffffffffffffffffffffffffffffff82169050919050565b6000620003d882620003ab565b9050919050565b620003ea81620003cb565b8114620003f657600080fd5b50565b6000815190506200040a81620003df565b92915050565b60006200041d82620003cb565b9050919050565b6200042f8162000410565b81146200043b57600080fd5b50565b6000815190506200044f8162000424565b92915050565b6000819050919050565b6200046a8162000455565b81146200047657600080fd5b50565b6000815190506200048a816200045f565b92915050565b60008115159050919050565b620004a78162000490565b8114620004b357600080fd5b50565b600081519050620004c7816200049c565b92915050565b60008060008060808587031215620004ea57620004e9620003a6565b5b6000620004fa87828801620003f9565b94505060206200050d878288016200043e565b9350506040620005208782880162000479565b92505060606200053387828801620004b6565b91505092959194509250565b7f4e487b7100000000000000000000000000000000000000000000000000000000600052601160045260246000fd5b60006200057b8262000455565b9150620005888362000455565b9250828201905080821115620005a357620005a26200053f565b5b92915050565b600081519050919050565b7f4e487b7100000000000000000000000000000000000000000000000000000000600052604160045260246000fd5b7f4e487b7100000000000000000000000000000000000000000000000000000000600052602260045260246000fd5b600060028204905060018216806200062b57607f821691505b602082108103620006415762000640620005e3565b5b50919050565b60008190508160005260206000209050919050565b60006020601f8301049050919050565b600082821b905092915050565b600060088302620006ab7fffffffffffffffffffffffffffffffffffffffffffffffffffffffffffffffff826200066c565b620006b786836200066c565b95508019841693508086168417925050509392505050565b6000819050919050565b6000620006fa620006f4620006ee8462000455565b620006cf565b62000455565b9050919050565b6000819050919050565b6200071683620006d9565b6200072e620007258262000701565b84845462000679565b825550505050565b600090565b6200074562000736565b620007528184846200070b565b505050565b5b818110156200077a576200076e6000826200073b565b60018101905062000758565b5050565b601f821115620007c957620007938162000647565b6200079e846200065c565b81016020851015620007ae578190505b620007c6620007bd856200065c565b83018262000757565b50505b505050565b600082821c905092915050565b6000620007ee60001984600802620007ce565b1980831691505092915050565b6000620008098383620007db565b9150826002028217905092915050565b6200082482620005a9565b67ffffffffffffffff81111562000840576200083f620005b4565b5b6200084c825462000612565b620008598282856200077e565b600060209050601f8311600181146200089157600084156200087c578287015190505b620008888582620007fb565b865550620008f8565b601f198416620008a18662000647565b60005b82811015620008cb57848901518255600182019150602085019450602081019050620008a4565b86831015620008eb5784890151620008e7601f891682620007db565b8355505b6001600288020188555050505b505050505050565b6000819050919050565b620009158162000900565b82525050565b620009268162000455565b82525050565b6200093781620003cb565b82525050565b600060a0820190506200095460008301886200090a565b6200096360208301876200090a565b6200097260408301866200090a565b6200098160608301856200091b565b6200099060808301846200092c565b9695505050505050565b600082825260208201905092915050565b60005b83811015620009cb578082015181840152602081019050620009ae565b60008484015250505050565b6000601f19601f8301169050919050565b6000620009f582620005a9565b62000a0181856200099a565b935062000a13818560208601620009ab565b62000a1e81620009d7565b840191505092915050565b6000602082019050818103600083015262000a458184620009e8565b905092915050565b600081519050919050565b6000819050602082019050919050565b600062000a76825162000900565b80915050919050565b600062000a8c8262000a4d565b8262000a988462000a58565b905062000aa58162000a68565b9250602082101562000ae85762000ae37fffffffffffffffffffffffffffffffffffffffffffffffffffffffffffffffff836020036008026200066c565b831692505b5050919050565b60805160a05160c05160e051610100516101205161014051612d7162000b4a6000396000610be301526000610baf01526000611d8c01526000611d6b015260006119090152600061195f015260006119880152612d716000f3fe608060405234801561001057600080fd5b506004361061010b5760003560e01c806355a373d6116100a2578063a1dcde8511610071578063a1dcde8514610250578063b505bf5f1461026e578063bb4872de1461029e578063c5822c0d146102bc578063edfdc41c146102da5761010b565b806355a373d6146101ae57806362ea82db146101cc57806384b0196e146101fc5780639d89899c146102205761010b565b806331e37530116100de57806331e375301461016057806338af3eed1461017c5780633ccfd60b1461019a5780634e71d92d146101a45761010b565b806303f693541461011057806307da68f51461012e5780632a24f46c146101385780633197cbb614610142575b600080fd5b6101186102f8565b6040516101259190611f1b565b60405180910390f35b6101366102fe565b005b610140610334565b005b61014a610487565b6040516101579190611f1b565b60405180910390f35b61017a60048036038101906101759190611fa5565b61048d565b005b61018461081c565b6040516101919190612033565b60405180910390f35b6101a2610842565b005b6101ac6109ef565b005b6101b6610b5e565b6040516101c391906120ad565b60405180910390f35b6101e660048036038101906101e191906120f4565b610b84565b6040516101f39190612152565b60405180910390f35b610204610b9c565b604051610217979695949392919061230f565b60405180910390f35b61023a600480360381019061023591906123bf565b610c9e565b6040516102479190612474565b60405180910390f35b610258610efc565b60405161026591906124b1565b60405180910390f35b610288600480360381019061028391906123bf565b610f0f565b6040516102959190612474565b60405180910390f35b6102a66110e6565b6040516102b391906124b1565b60405180910390f35b6102c46110f9565b6040516102d191906124b1565b60405180910390f35b6102e261110c565b6040516102ef91906124b1565b60405180910390f35b60065481565b600760169054906101000a900460ff1661031757600080fd5b6001600760176101000a81548160ff021916908315150217905550565b6002544211158015610359575060001515600760179054906101000a900460ff161515145b1561039d576002546040517f2a35a3240000000000000000000000000000000000000000000000000000000081526004016103949190611f1b565b60405180910390fd5b600760159054906101000a900460ff16156103b757600080fd5b6001600760156101000a81548160ff021916908315150217905550600760009054906101000a900473ffffffffffffffffffffffffffffffffffffffff1673ffffffffffffffffffffffffffffffffffffffff1663a9059cbb600360009054906101000a900473ffffffffffffffffffffffffffffffffffffffff166004546040518363ffffffff1660e01b81526004016104539291906124cc565b600060405180830381600087803b15801561046d57600080fd5b505af1158015610481573d6000803e3d6000fd5b50505050565b60025481565b600254421015806104b1575060011515600760179054906101000a900460ff161515145b156104f5576002546040517f691e56820000000000000000000000000000000000000000000000000000000081526004016104ec9190611f1b565b60405180910390fd5b600061054483838080601f016020809104026020016040519081016040528093929190818152602001838380828437600081840152601f19601f8201169050808301925050505050505061116d565b90506000600560003373ffffffffffffffffffffffffffffffffffffffff1673ffffffffffffffffffffffffffffffffffffffff16815260200190815260200160002054905061059381611181565b156106a95760006105a4828461118e565b90506105b18184846111a2565b600560003373ffffffffffffffffffffffffffffffffffffffff1673ffffffffffffffffffffffffffffffffffffffff16815260200190815260200160002081905550600061060084846111b8565b9050600061060e83836111cc565b9050600760009054906101000a900473ffffffffffffffffffffffffffffffffffffffff1673ffffffffffffffffffffffffffffffffffffffff166323b872dd3330846040518463ffffffff1660e01b815260040161066f939291906124f5565b600060405180830381600087803b15801561068957600080fd5b505af115801561069d573d6000803e3d6000fd5b50505050505050610797565b600660008154809291906106bc9061255b565b919050555081600560003373ffffffffffffffffffffffffffffffffffffffff1673ffffffffffffffffffffffffffffffffffffffff16815260200190815260200160002081905550600760009054906101000a900473ffffffffffffffffffffffffffffffffffffffff1673ffffffffffffffffffffffffffffffffffffffff166323b872dd3330856040518463ffffffff1660e01b8152600401610764939291906124f5565b600060405180830381600087803b15801561077e57600080fd5b505af1158015610792573d6000803e3d6000fd5b505050505b6000600560003373ffffffffffffffffffffffffffffffffffffffff1673ffffffffffffffffffffffffffffffffffffffff1681526020019081526020016000205490506107e6600454611181565b6107f65780600481905550610815565b61080e6108056004548361118e565b826004546111a2565b6004819055505b5050505050565b600360009054906101000a900473ffffffffffffffffffffffffffffffffffffffff1681565b6002544211158015610867575060001515600760179054906101000a900460ff161515145b156108ab576002546040517f2a35a3240000000000000000000000000000000000000000000000000000000081526004016108a29190611f1b565b60405180910390fd5b6000600560003373ffffffffffffffffffffffffffffffffffffffff1673ffffffffffffffffffffffffffffffffffffffff168152602001908152602001600020549050600760149054906101000a900460ff16610918576109176109128260045461118e565b6111e0565b5b600760009054906101000a900473ffffffffffffffffffffffffffffffffffffffff1673ffffffffffffffffffffffffffffffffffffffff1663a9059cbb33836040518363ffffffff1660e01b81526004016109759291906124cc565b600060405180830381600087803b15801561098f57600080fd5b505af11580156109a3573d6000803e3d6000fd5b505050506000600560003373ffffffffffffffffffffffffffffffffffffffff1673ffffffffffffffffffffffffffffffffffffffff1681526020019081526020016000208190555050565b6002544211158015610a14575060001515600760179054906101000a900460ff161515145b15610a58576002546040517f2a35a324000000000000000000000000000000000000000000000000000000008152600401610a4f9190611f1b565b60405180910390fd5b600760149054906101000a900460ff1615610a7257600080fd5b610ac5610ac0600454600560003373ffffffffffffffffffffffffffffffffffffffff1673ffffffffffffffffffffffffffffffffffffffff168152602001908152602001600020546111ec565b6111e0565b6001600760146101000a81548160ff0219169083151502179055506000600560003373ffffffffffffffffffffffffffffffffffffffff1673ffffffffffffffffffffffffffffffffffffffff168152602001908152602001600020819055507f745c90b656b4aafe296c8ca35aeacfe56cb96c90e1d320e5da643fff1051b6c033604051610b549190612033565b60405180910390a1565b600760009054906101000a900473ffffffffffffffffffffffffffffffffffffffff1681565b60056020528060005260406000206000915090505481565b600060608060008060006060610bdc60007f000000000000000000000000000000000000000000000000000000000000000061120090919063ffffffff16565b610c1060017f000000000000000000000000000000000000000000000000000000000000000061120090919063ffffffff16565b46306000801b600067ffffffffffffffff811115610c3157610c306125a3565b5b604051908082528060200260200182016040528015610c5f5781602001602082028036833780820191505090505b507f0f00000000000000000000000000000000000000000000000000000000000000959493929190965096509650965096509650965090919293949596565b60606002544211158015610cc5575060001515600760179054906101000a900460ff161515145b15610d09576002546040517f2a35a324000000000000000000000000000000000000000000000000000000008152600401610d009190611f1b565b60405180910390fd5b8383838080601f016020809104026020016040519081016040528093929190818152602001838380828437600081840152601f19601f820116905080830192505050505050506000610da27f051d137ae0e1fae6e3b6559fed4442b35a85a9a39789838ad5c9ea05e7da2dce84604051602001610d879291906125d2565b604051602081830303815290604052805190602001206112b0565b90506000610db082846112ca565b90503373ffffffffffffffffffffffffffffffffffffffff168173ffffffffffffffffffffffffffffffffffffffff1614610e20576040517f08c379a0000000000000000000000000000000000000000000000000000000008152600401610e179061266d565b60405180910390fd5b610e2b600454611181565b8015610e7b5750610e7a600560003373ffffffffffffffffffffffffffffffffffffffff1673ffffffffffffffffffffffffffffffffffffffff16815260200190815260200160002054611181565b5b15610edb57610ed4610ece600454600560003373ffffffffffffffffffffffffffffffffffffffff1673ffffffffffffffffffffffffffffffffffffffff168152602001908152602001600020546111ec565b896112f1565b9450610ef1565b610eee610ee86000611305565b896112f1565b94505b505050509392505050565b600760149054906101000a900460ff1681565b60608383838080601f016020809104026020016040519081016040528093929190818152602001838380828437600081840152601f19601f820116905080830192505050505050506000610faa7f051d137ae0e1fae6e3b6559fed4442b35a85a9a39789838ad5c9ea05e7da2dce84604051602001610f8f9291906125d2565b604051602081830303815290604052805190602001206112b0565b90506000610fb882846112ca565b90503373ffffffffffffffffffffffffffffffffffffffff168173ffffffffffffffffffffffffffffffffffffffff1614611028576040517f08c379a000000000000000000000000000000000000000000000000000000000815260040161101f9061266d565b60405180910390fd5b611070600560003373ffffffffffffffffffffffffffffffffffffffff1673ffffffffffffffffffffffffffffffffffffffff16815260200190815260200160002054611181565b156110c5576110be600560003373ffffffffffffffffffffffffffffffffffffffff1673ffffffffffffffffffffffffffffffffffffffff16815260200190815260200160002054896112f1565b94506110db565b6110d86110d26000611305565b896112f1565b94505b505050509392505050565b600760169054906101000a900460ff1681565b600760159054906101000a900460ff1681565b600760179054906101000a900460ff1681565b600060208351101561113b5761113483611319565b905061115d565b8261114583611163565b6000019081611154919061286d565b5060ff60001b90505b92915050565b6000819050919050565b600061117a826002611381565b9050919050565b6000808214159050919050565b600061119a8383611401565b905092915050565b60006111af8484846114a0565b90509392505050565b60006111c48383611628565b905092915050565b60006111d883836116e7565b905092915050565b6111e9816117a6565b50565b60006111f883836117f2565b905092915050565b606060ff60001b831461121d5761121683611891565b90506112aa565b818054611229906126bc565b80601f0160208091040260200160405190810160405280929190818152602001828054611255906126bc565b80156112a25780601f10611277576101008083540402835291602001916112a2565b820191906000526020600020905b81548152906001019060200180831161128557829003601f168201915b505050505090505b92915050565b60006112c36112bd611905565b836119bc565b9050919050565b60008060006112d985856119fd565b915091506112e681611a4e565b819250505092915050565b60606112fd8383611bb4565b905092915050565b6000611312826002611c73565b9050919050565b600080829050601f8151111561136657826040517f305a27a900000000000000000000000000000000000000000000000000000000815260040161135d919061293f565b60405180910390fd5b80518161137290612986565b60001c1760001b915050919050565b600080838360f81b60405160200161139a929190612a4a565b60405160208183030381529060405290506000815190506113b9611ebe565b60006020905060006042905081838560208801845afa6113d857600080fd5b826000600181106113ec576113eb612a72565b5b602002015160001c9550505050505092915050565b600061140b611ee0565b8360001b8160006002811061142357611422612a72565b5b6020020181815250508260001b8160016002811061144457611443612a72565b5b60200201818152505060006040905061145b611ebe565b60006020905060006049905081838587845afa61147757600080fd5b8260006001811061148b5761148a612a72565b5b602002015160001c9550505050505092915050565b60006114aa611ee0565b6000604090506000602090508560001b836000600281106114ce576114cd612a72565b5b6020020181815250508460001b836001600281106114ef576114ee612a72565b5b602002018181525050600060479050611506611ebe565b82818587855afa61151657600080fd5b8860001b8560006002811061152e5761152d612a72565b5b6020020181815250508060006001811061154b5761154a612a72565b5b60200201518560016002811061156457611563612a72565b5b60200201818152505060489150611579611ebe565b83818688865afa61158957600080fd5b8060006001811061159d5761159c612a72565b5b6020020151866000600281106115b6576115b5612a72565b5b6020020181815250508760001b866001600281106115d7576115d6612a72565b5b602002018181525050604192506115ec611ebe565b84818789875afa6115fc57600080fd5b806000600181106116105761160f612a72565b5b602002015160001c9750505050505050509392505050565b6000808303611639578190506116e1565b60008203611649578290506116e1565b611651611ee0565b8360001b8160006002811061166957611668612a72565b5b6020020181815250508260001b8160016002811061168a57611689612a72565b5b6020020181815250506000604090506116a1611ebe565b60006020905060006047905081838587845afa6116bd57600080fd5b826000600181106116d1576116d0612a72565b5b602002015160001c955050505050505b92915050565b60008083036116f8578190506117a0565b60008203611708578290506117a0565b611710611ee0565b8360001b8160006002811061172857611727612a72565b5b6020020181815250508260001b8160016002811061174957611748612a72565b5b602002018181525050600060409050611760611ebe565b60006020905060006048905081838587845afa61177c57600080fd5b826000600181106117905761178f612a72565b5b602002015160001c955050505050505b92915050565b6117ae611ebe565b8160001b816000600181106117c6576117c5612a72565b5b6020020181815250506000602090506000604590506000808385845afa6117ec57600080fd5b50505050565b60006117fc611ee0565b8360001b8160006002811061181457611813612a72565b5b6020020181815250508260001b8160016002811061183557611834612a72565b5b60200201818152505060006040905061184c611ebe565b60006020905060006046905081838587845afa61186857600080fd5b8260006001811061187c5761187b612a72565b5b602002015160001c9550505050505092915050565b6060600061189e83611cf6565b90506000602067ffffffffffffffff8111156118bd576118bc6125a3565b5b6040519080825280601f01601f1916602001820160405280156118ef5781602001600182028036833780820191505090505b5090508181528360208201528092505050919050565b60007f000000000000000000000000000000000000000000000000000000000000000073ffffffffffffffffffffffffffffffffffffffff163073ffffffffffffffffffffffffffffffffffffffff1614801561198157507f000000000000000000000000000000000000000000000000000000000000000046145b156119ae577f000000000000000000000000000000000000000000000000000000000000000090506119b9565b6119b6611d46565b90505b90565b60006040517f190100000000000000000000000000000000000000000000000000000000000081528360028201528260228201526042812091505092915050565b6000806041835103611a3e5760008060006020860151925060408601519150606086015160001a9050611a3287828585611ddc565b94509450505050611a47565b60006002915091505b9250929050565b60006004811115611a6257611a61612aa1565b5b816004811115611a7557611a74612aa1565b5b0315611bb15760016004811115611a8f57611a8e612aa1565b5b816004811115611aa257611aa1612aa1565b5b03611ae2576040517f08c379a0000000000000000000000000000000000000000000000000000000008152600401611ad990612b1c565b60405180910390fd5b60026004811115611af657611af5612aa1565b5b816004811115611b0957611b08612aa1565b5b03611b49576040517f08c379a0000000000000000000000000000000000000000000000000000000008152600401611b4090612b88565b60405180910390fd5b60036004811115611b5d57611b5c612aa1565b5b816004811115611b7057611b6f612aa1565b5b03611bb0576040517f08c379a0000000000000000000000000000000000000000000000000000000008152600401611ba790612c1a565b60405180910390fd5b5b50565b6060611bbe611ee0565b8360001b81600060028110611bd657611bd5612a72565b5b6020020181815250508281600160028110611bf457611bf3612a72565b5b602002018181525050600060409050605467ffffffffffffffff811115611c1e57611c1d6125a3565b5b6040519080825280601f01601f191660200182016040528015611c505781602001600182028036833780820191505090505b5092506000604390506054848385845afa611c6a57600080fd5b50505092915050565b6000808360001b8360f81b604051602001611c8f929190612c5b565b6040516020818303038152906040529050600081519050611cae611ebe565b6000602090506000604d905081838560208801845afa611ccd57600080fd5b82600060018110611ce157611ce0612a72565b5b602002015160001c9550505050505092915050565b60008060ff8360001c169050601f811115611d3d576040517fb3512b0c00000000000000000000000000000000000000000000000000000000815260040160405180910390fd5b80915050919050565b60007f8b73c3c69bb8fe3d512ecc4cf759cc79239f7b179b0ffacaa9a75d522b39400f7f00000000000000000000000000000000000000000000000000000000000000007f00000000000000000000000000000000000000000000000000000000000000004630604051602001611dc1959493929190612c87565b60405160208183030381529060405280519060200120905090565b6000807f7fffffffffffffffffffffffffffffff5d576e7357a4501ddfe92f46681b20a08360001c1115611e17576000600391509150611eb5565b600060018787878760405160008152602001604052604051611e3c9493929190612cf6565b6020604051602081039080840390855afa158015611e5e573d6000803e3d6000fd5b505050602060405103519050600073ffffffffffffffffffffffffffffffffffffffff168173ffffffffffffffffffffffffffffffffffffffff1603611eac57600060019250925050611eb5565b80600092509250505b94509492505050565b6040518060200160405280600190602082028036833780820191505090505090565b6040518060400160405280600290602082028036833780820191505090505090565b6000819050919050565b611f1581611f02565b82525050565b6000602082019050611f306000830184611f0c565b92915050565b600080fd5b600080fd5b600080fd5b600080fd5b600080fd5b60008083601f840112611f6557611f64611f40565b5b8235905067ffffffffffffffff811115611f8257611f81611f45565b5b602083019150836001820283011115611f9e57611f9d611f4a565b5b9250929050565b60008060208385031215611fbc57611fbb611f36565b5b600083013567ffffffffffffffff811115611fda57611fd9611f3b565b5b611fe685828601611f4f565b92509250509250929050565b600073ffffffffffffffffffffffffffffffffffffffff82169050919050565b600061201d82611ff2565b9050919050565b61202d81612012565b82525050565b60006020820190506120486000830184612024565b92915050565b6000819050919050565b600061207361206e61206984611ff2565b61204e565b611ff2565b9050919050565b600061208582612058565b9050919050565b60006120978261207a565b9050919050565b6120a78161208c565b82525050565b60006020820190506120c2600083018461209e565b92915050565b6120d181612012565b81146120dc57600080fd5b50565b6000813590506120ee816120c8565b92915050565b60006020828403121561210a57612109611f36565b5b6000612118848285016120df565b91505092915050565b600061213c61213761213284611f02565b61204e565b611f02565b9050919050565b61214c81612121565b82525050565b60006020820190506121676000830184612143565b92915050565b60007fff0000000000000000000000000000000000000000000000000000000000000082169050919050565b6121a28161216d565b82525050565b600081519050919050565b600082825260208201905092915050565b60005b838110156121e25780820151818401526020810190506121c7565b60008484015250505050565b6000601f19601f8301169050919050565b600061220a826121a8565b61221481856121b3565b93506122248185602086016121c4565b61222d816121ee565b840191505092915050565b6000819050919050565b61224b81612238565b82525050565b600081519050919050565b600082825260208201905092915050565b6000819050602082019050919050565b61228681611f02565b82525050565b6000612298838361227d565b60208301905092915050565b6000602082019050919050565b60006122bc82612251565b6122c6818561225c565b93506122d18361226d565b8060005b838110156123025781516122e9888261228c565b97506122f4836122a4565b9250506001810190506122d5565b5085935050505092915050565b600060e082019050612324600083018a612199565b818103602083015261233681896121ff565b9050818103604083015261234a81886121ff565b90506123596060830187611f0c565b6123666080830186612024565b61237360a0830185612242565b81810360c083015261238581846122b1565b905098975050505050505050565b61239c81612238565b81146123a757600080fd5b50565b6000813590506123b981612393565b92915050565b6000806000604084860312156123d8576123d7611f36565b5b60006123e6868287016123aa565b935050602084013567ffffffffffffffff81111561240757612406611f3b565b5b61241386828701611f4f565b92509250509250925092565b600081519050919050565b600082825260208201905092915050565b60006124468261241f565b612450818561242a565b93506124608185602086016121c4565b612469816121ee565b840191505092915050565b6000602082019050818103600083015261248e818461243b565b905092915050565b60008115159050919050565b6124ab81612496565b82525050565b60006020820190506124c660008301846124a2565b92915050565b60006040820190506124e16000830185612024565b6124ee6020830184612143565b9392505050565b600060608201905061250a6000830186612024565b6125176020830185612024565b6125246040830184612143565b949350505050565b7f4e487b7100000000000000000000000000000000000000000000000000000000600052601160045260246000fd5b600061256682611f02565b91507fffffffffffffffffffffffffffffffffffffffffffffffffffffffffffffffff82036125985761259761252c565b5b600182019050919050565b7f4e487b7100000000000000000000000000000000000000000000000000000000600052604160045260246000fd5b60006040820190506125e76000830185612242565b6125f46020830184612242565b9392505050565b7f454950373132207369676e657220616e64207472616e73616374696f6e20736960008201527f676e657220646f206e6f74206d61746368000000000000000000000000000000602082015250565b60006126576031836121b3565b9150612662826125fb565b604082019050919050565b600060208201905081810360008301526126868161264a565b9050919050565b7f4e487b7100000000000000000000000000000000000000000000000000000000600052602260045260246000fd5b600060028204905060018216806126d457607f821691505b6020821081036126e7576126e661268d565b5b50919050565b60008190508160005260206000209050919050565b60006020601f8301049050919050565b600082821b905092915050565b60006008830261274f7fffffffffffffffffffffffffffffffffffffffffffffffffffffffffffffffff82612712565b6127598683612712565b95508019841693508086168417925050509392505050565b6000819050919050565b61278483612121565b61279861279082612771565b84845461271f565b825550505050565b600090565b6127ad6127a0565b6127b881848461277b565b505050565b5b818110156127dc576127d16000826127a5565b6001810190506127be565b5050565b601f821115612821576127f2816126ed565b6127fb84612702565b8101602085101561280a578190505b61281e61281685612702565b8301826127bd565b50505b505050565b600082821c905092915050565b600061284460001984600802612826565b1980831691505092915050565b600061285d8383612833565b9150826002028217905092915050565b612876826121a8565b67ffffffffffffffff81111561288f5761288e6125a3565b5b61289982546126bc565b6128a48282856127e0565b600060209050601f8311600181146128d757600084156128c5578287015190505b6128cf8582612851565b865550612937565b601f1984166128e5866126ed565b60005b8281101561290d578489015182556001820191506020850194506020810190506128e8565b8683101561292a5784890151612926601f891682612833565b8355505b6001600288020188555050505b505050505050565b6000602082019050818103600083015261295981846121ff565b905092915050565b6000819050602082019050919050565b600061297d8251612238565b80915050919050565b60006129918261241f565b8261299b84612961565b90506129a681612971565b925060208210156129e6576129e17fffffffffffffffffffffffffffffffffffffffffffffffffffffffffffffffff83602003600802612712565b831692505b5050919050565b600081905092915050565b6000612a038261241f565b612a0d81856129ed565b9350612a1d8185602086016121c4565b80840191505092915050565b6000819050919050565b612a44612a3f8261216d565b612a29565b82525050565b6000612a5682856129f8565b9150612a628284612a33565b6001820191508190509392505050565b7f4e487b7100000000000000000000000000000000000000000000000000000000600052603260045260246000fd5b7f4e487b7100000000000000000000000000000000000000000000000000000000600052602160045260246000fd5b7f45434453413a20696e76616c6964207369676e61747572650000000000000000600082015250565b6000612b066018836121b3565b9150612b1182612ad0565b602082019050919050565b60006020820190508181036000830152612b3581612af9565b9050919050565b7f45434453413a20696e76616c6964207369676e6174757265206c656e67746800600082015250565b6000612b72601f836121b3565b9150612b7d82612b3c565b602082019050919050565b60006020820190508181036000830152612ba181612b65565b9050919050565b7f45434453413a20696e76616c6964207369676e6174757265202773272076616c60008201527f7565000000000000000000000000000000000000000000000000000000000000602082015250565b6000612c046022836121b3565b9150612c0f82612ba8565b604082019050919050565b60006020820190508181036000830152612c3381612bf7565b9050919050565b6000819050919050565b612c55612c5082612238565b612c3a565b82525050565b6000612c678285612c44565b602082019150612c778284612a33565b6001820191508190509392505050565b600060a082019050612c9c6000830188612242565b612ca96020830187612242565b612cb66040830186612242565b612cc36060830185611f0c565b612cd06080830184612024565b9695505050505050565b600060ff82169050919050565b612cf081612cda565b82525050565b6000608082019050612d0b6000830187612242565b612d186020830186612ce7565b612d256040830185612242565b612d326060830184612242565b9594505050505056fea264697066735822122021ce3eaf2ed97575b8bd6516ef949adf4fe4e42559a5a62a9b4ee88b30705dc564736f6c63430008120033",
  "linkReferences": {},
  "deployedLinkReferences": {}
}