{
  "_format": "hh-sol-artifact-1",
  "contractName": "EncryptedERC20",
  "sourceName": "examples/EncryptedERC20.sol",
  "abi": [
    {
      "inputs": [
        {
          "internalType": "string",
          "name": "name_",
          "type": "string"
        },
        {
          "internalType": "string",
          "name": "symbol_",
          "type": "string"
        }
      ],
      "stateMutability": "nonpayable",
      "type": "constructor"
    },
    {
      "inputs": [],
      "name": "ECDSAInvalidSignature",
      "type": "error"
    },
    {
      "inputs": [
        {
          "internalType": "uint256",
          "name": "length",
          "type": "uint256"
        }
      ],
      "name": "ECDSAInvalidSignatureLength",
      "type": "error"
    },
    {
      "inputs": [
        {
          "internalType": "bytes32",
          "name": "s",
          "type": "bytes32"
        }
      ],
      "name": "ECDSAInvalidSignatureS",
      "type": "error"
    },
    {
      "inputs": [],
      "name": "InvalidShortString",
      "type": "error"
    },
    {
      "inputs": [
        {
          "internalType": "address",
          "name": "owner",
          "type": "address"
        }
      ],
      "name": "OwnableInvalidOwner",
      "type": "error"
    },
    {
      "inputs": [
        {
          "internalType": "address",
          "name": "account",
          "type": "address"
        }
      ],
      "name": "OwnableUnauthorizedAccount",
      "type": "error"
    },
    {
      "inputs": [
        {
          "internalType": "string",
          "name": "str",
          "type": "string"
        }
      ],
      "name": "StringTooLong",
      "type": "error"
    },
    {
      "anonymous": false,
      "inputs": [
        {
          "indexed": true,
          "internalType": "address",
          "name": "owner",
          "type": "address"
        },
        {
          "indexed": true,
          "internalType": "address",
          "name": "spender",
          "type": "address"
        }
      ],
      "name": "Approval",
      "type": "event"
    },
    {
      "anonymous": false,
      "inputs": [],
      "name": "EIP712DomainChanged",
      "type": "event"
    },
    {
      "anonymous": false,
      "inputs": [
        {
          "indexed": true,
          "internalType": "address",
          "name": "to",
          "type": "address"
        },
        {
          "indexed": false,
          "internalType": "uint64",
          "name": "amount",
          "type": "uint64"
        }
      ],
      "name": "Mint",
      "type": "event"
    },
    {
      "anonymous": false,
      "inputs": [
        {
          "indexed": true,
          "internalType": "address",
          "name": "previousOwner",
          "type": "address"
        },
        {
          "indexed": true,
          "internalType": "address",
          "name": "newOwner",
          "type": "address"
        }
      ],
      "name": "OwnershipTransferStarted",
      "type": "event"
    },
    {
      "anonymous": false,
      "inputs": [
        {
          "indexed": true,
          "internalType": "address",
          "name": "previousOwner",
          "type": "address"
        },
        {
          "indexed": true,
          "internalType": "address",
          "name": "newOwner",
          "type": "address"
        }
      ],
      "name": "OwnershipTransferred",
      "type": "event"
    },
    {
      "anonymous": false,
      "inputs": [
        {
          "indexed": true,
          "internalType": "address",
          "name": "from",
          "type": "address"
        },
        {
          "indexed": true,
          "internalType": "address",
          "name": "to",
          "type": "address"
        }
      ],
      "name": "Transfer",
      "type": "event"
    },
    {
      "inputs": [],
      "name": "acceptOwnership",
      "outputs": [],
      "stateMutability": "nonpayable",
      "type": "function"
    },
    {
      "inputs": [
        {
          "internalType": "address",
          "name": "owner",
          "type": "address"
        },
        {
          "internalType": "address",
          "name": "spender",
          "type": "address"
        },
        {
          "internalType": "bytes32",
          "name": "publicKey",
          "type": "bytes32"
        },
        {
          "internalType": "bytes",
          "name": "signature",
          "type": "bytes"
        }
      ],
      "name": "allowance",
      "outputs": [
        {
          "internalType": "bytes",
          "name": "",
          "type": "bytes"
        }
      ],
      "stateMutability": "view",
      "type": "function"
    },
    {
      "inputs": [
        {
          "internalType": "address",
          "name": "spender",
          "type": "address"
        },
        {
          "internalType": "bytes",
          "name": "encryptedAmount",
          "type": "bytes"
        }
      ],
      "name": "approve",
      "outputs": [
        {
          "internalType": "bool",
          "name": "",
          "type": "bool"
        }
      ],
      "stateMutability": "nonpayable",
      "type": "function"
    },
    {
      "inputs": [
        {
          "internalType": "address",
          "name": "spender",
          "type": "address"
        },
        {
          "internalType": "euint64",
          "name": "amount",
          "type": "uint256"
        }
      ],
      "name": "approve",
      "outputs": [
        {
          "internalType": "bool",
          "name": "",
          "type": "bool"
        }
      ],
      "stateMutability": "nonpayable",
      "type": "function"
    },
    {
      "inputs": [
        {
          "internalType": "address",
          "name": "wallet",
          "type": "address"
        },
        {
          "internalType": "bytes32",
          "name": "publicKey",
          "type": "bytes32"
        },
        {
          "internalType": "bytes",
          "name": "signature",
          "type": "bytes"
        }
      ],
      "name": "balanceOf",
      "outputs": [
        {
          "internalType": "bytes",
          "name": "",
          "type": "bytes"
        }
      ],
      "stateMutability": "view",
      "type": "function"
    },
    {
      "inputs": [],
      "name": "decimals",
      "outputs": [
        {
          "internalType": "uint8",
          "name": "",
          "type": "uint8"
        }
      ],
      "stateMutability": "view",
      "type": "function"
    },
    {
      "inputs": [],
      "name": "eip712Domain",
      "outputs": [
        {
          "internalType": "bytes1",
          "name": "fields",
          "type": "bytes1"
        },
        {
          "internalType": "string",
          "name": "name",
          "type": "string"
        },
        {
          "internalType": "string",
          "name": "version",
          "type": "string"
        },
        {
          "internalType": "uint256",
          "name": "chainId",
          "type": "uint256"
        },
        {
          "internalType": "address",
          "name": "verifyingContract",
          "type": "address"
        },
        {
          "internalType": "bytes32",
          "name": "salt",
          "type": "bytes32"
        },
        {
          "internalType": "uint256[]",
          "name": "extensions",
          "type": "uint256[]"
        }
      ],
      "stateMutability": "view",
      "type": "function"
    },
    {
      "inputs": [
        {
          "internalType": "uint64",
          "name": "mintedAmount",
          "type": "uint64"
        }
      ],
      "name": "mint",
      "outputs": [],
      "stateMutability": "nonpayable",
      "type": "function"
    },
    {
      "inputs": [],
      "name": "name",
      "outputs": [
        {
          "internalType": "string",
          "name": "",
          "type": "string"
        }
      ],
      "stateMutability": "view",
      "type": "function"
    },
    {
      "inputs": [],
      "name": "owner",
      "outputs": [
        {
          "internalType": "address",
          "name": "",
          "type": "address"
        }
      ],
      "stateMutability": "view",
      "type": "function"
    },
    {
      "inputs": [],
      "name": "pendingOwner",
      "outputs": [
        {
          "internalType": "address",
          "name": "",
          "type": "address"
        }
      ],
      "stateMutability": "view",
      "type": "function"
    },
    {
      "inputs": [],
      "name": "renounceOwnership",
      "outputs": [],
      "stateMutability": "nonpayable",
      "type": "function"
    },
    {
      "inputs": [],
      "name": "symbol",
      "outputs": [
        {
          "internalType": "string",
          "name": "",
          "type": "string"
        }
      ],
      "stateMutability": "view",
      "type": "function"
    },
    {
      "inputs": [],
      "name": "totalSupply",
      "outputs": [
        {
          "internalType": "uint64",
          "name": "",
          "type": "uint64"
        }
      ],
      "stateMutability": "view",
      "type": "function"
    },
    {
      "inputs": [
        {
          "internalType": "address",
          "name": "to",
          "type": "address"
        },
        {
          "internalType": "bytes",
          "name": "encryptedAmount",
          "type": "bytes"
        }
      ],
      "name": "transfer",
      "outputs": [
        {
          "internalType": "bool",
          "name": "",
          "type": "bool"
        }
      ],
      "stateMutability": "nonpayable",
      "type": "function"
    },
    {
      "inputs": [
        {
          "internalType": "address",
          "name": "to",
          "type": "address"
        },
        {
          "internalType": "euint64",
          "name": "amount",
          "type": "uint256"
        }
      ],
      "name": "transfer",
      "outputs": [
        {
          "internalType": "bool",
          "name": "",
          "type": "bool"
        }
      ],
      "stateMutability": "nonpayable",
      "type": "function"
    },
    {
      "inputs": [
        {
          "internalType": "address",
          "name": "from",
          "type": "address"
        },
        {
          "internalType": "address",
          "name": "to",
          "type": "address"
        },
        {
          "internalType": "euint64",
          "name": "amount",
          "type": "uint256"
        }
      ],
      "name": "transferFrom",
      "outputs": [
        {
          "internalType": "bool",
          "name": "",
          "type": "bool"
        }
      ],
      "stateMutability": "nonpayable",
      "type": "function"
    },
    {
      "inputs": [
        {
          "internalType": "address",
          "name": "from",
          "type": "address"
        },
        {
          "internalType": "address",
          "name": "to",
          "type": "address"
        },
        {
          "internalType": "bytes",
          "name": "encryptedAmount",
          "type": "bytes"
        }
      ],
      "name": "transferFrom",
      "outputs": [
        {
          "internalType": "bool",
          "name": "",
          "type": "bool"
        }
      ],
      "stateMutability": "nonpayable",
      "type": "function"
    },
    {
      "inputs": [
        {
          "internalType": "address",
          "name": "newOwner",
          "type": "address"
        }
      ],
      "name": "transferOwnership",
      "outputs": [],
      "stateMutability": "nonpayable",
      "type": "function"
    }
  ],
  "bytecode": "0x61016060405234801562000011575f80fd5b506040516200201138038062002011833981016040819052620000349162000345565b604080518082018252601381527f417574686f72697a6174696f6e20746f6b656e00000000000000000000000000602080830191909152825180840190935260018352603160f81b9083015233916200008e825f62000196565b610120526200009f81600162000196565b61014052815160208084019190912060e052815190820120610100524660a0526200012c60e05161010051604080517f8b73c3c69bb8fe3d512ecc4cf759cc79239f7b179b0ffacaa9a75d522b39400f60208201529081019290925260608201524660808201523060a08201525f9060c00160405160208183030381529060405280519060200120905090565b60805250503060c0526001600160a01b0381166200016457604051631e4fbdf760e01b81525f60048201526024015b60405180910390fd5b6200016f81620001ce565b5060046200017e838262000435565b5060056200018d828262000435565b50505062000559565b5f602083511015620001b557620001ad83620001ec565b9050620001c8565b81620001c2848262000435565b5060ff90505b92915050565b600380546001600160a01b0319169055620001e9816200022e565b50565b5f80829050601f8151111562000219578260405163305a27a960e01b81526004016200015b919062000501565b8051620002268262000535565b179392505050565b600280546001600160a01b038381166001600160a01b0319831681179093556040519116919082907f8be0079c531659141344cd1fd0a4f28419497f9722a3daafe3b4186f6b6457e0905f90a35050565b634e487b7160e01b5f52604160045260245ffd5b5f5b83811015620002af57818101518382015260200162000295565b50505f910152565b5f82601f830112620002c7575f80fd5b81516001600160401b0380821115620002e457620002e46200027f565b604051601f8301601f19908116603f011681019082821181831017156200030f576200030f6200027f565b8160405283815286602085880101111562000328575f80fd5b6200033b84602083016020890162000293565b9695505050505050565b5f806040838503121562000357575f80fd5b82516001600160401b03808211156200036e575f80fd5b6200037c86838701620002b7565b9350602085015191508082111562000392575f80fd5b50620003a185828601620002b7565b9150509250929050565b600181811c90821680620003c057607f821691505b602082108103620003df57634e487b7160e01b5f52602260045260245ffd5b50919050565b601f8211156200043057805f5260205f20601f840160051c810160208510156200040c5750805b601f840160051c820191505b818110156200042d575f815560010162000418565b50505b505050565b81516001600160401b038111156200045157620004516200027f565b6200046981620004628454620003ab565b84620003e5565b602080601f8311600181146200049f575f8415620004875750858301515b5f19600386901b1c1916600185901b178555620004f9565b5f85815260208120601f198616915b82811015620004cf57888601518255948401946001909101908401620004ae565b5085821015620004ed57878501515f19600388901b60f8161c191681555b505060018460011b0185555b505050505050565b602081525f82518060208401526200052181604085016020870162000293565b601f01601f19169190910160400192915050565b80516020808301519190811015620003df575f1960209190910360031b1b16919050565b60805160a05160c05160e051610100516101205161014051611a66620005ab5f395f610d0a01525f610cd901525f610f1f01525f610ef701525f610e5201525f610e7c01525f610ea60152611a665ff3fe608060405234801561000f575f80fd5b5060043610610149575f3560e01c80636934c747116100c757806395d89b411161007d578063e30c397811610063578063e30c3978146102af578063f2fde38b146102c0578063fb9d09c8146102d3575f80fd5b806395d89b4114610294578063a9059cbb1461029c575f80fd5b806379ba5097116100ad57806379ba50971461024c57806384b0196e146102545780638da5cb5b1461026f575f80fd5b80636934c7471461022f578063715018a614610242575f80fd5b806323b872dd1161011c578063313ce56711610102578063313ce567146101f057806332cbfb0714610209578063499726631461021c575f80fd5b806323b872dd146101ca57806329723511146101dd575f80fd5b8063014647f41461014d57806306fdde0314610175578063095ea7b31461018a57806318160ddd1461019d575b5f80fd5b61016061015b3660046115f8565b6102e6565b60405190151581526020015b60405180910390f35b61017d610336565b60405161016c9190611694565b6101606101983660046116a6565b6103c6565b600354600160a01b900467ffffffffffffffff1660405167ffffffffffffffff909116815260200161016c565b6101606101d83660046116ce565b610423565b6101606101eb3660046115f8565b61044b565b6101f75f81565b60405160ff909116815260200161016c565b61017d610217366004611707565b61048e565b61016061022a366004611771565b6105f5565b61017d61023d3660046117ce565b610639565b61024a610798565b005b61024a6107ab565b61025c6107ef565b60405161016c979695949392919061180c565b6002546001600160a01b03165b6040516001600160a01b03909116815260200161016c565b61017d610831565b6101606102aa3660046116a6565b610840565b6003546001600160a01b031661027c565b61024a6102ce3660046118a3565b610874565b61024a6102e13660046118bc565b6108f2565b5f6103298461019885858080601f0160208091040260200160405190810160405280939291908181526020018383808284375f92019190915250610a0792505050565b50600190505b9392505050565b606060048054610345906118e3565b80601f0160208091040260200160405190810160405280929190818152602001828054610371906118e3565b80156103bc5780601f10610393576101008083540402835291602001916103bc565b820191905f5260205f20905b81548152906001019060200180831161039f57829003601f168201915b5050505050905090565b335f8181526007602090815260408083206001600160a01b03871680855292528083208590555191929182907ff37f546c25e850257cc0c94f92bec94a17e2f0e884ddda268a25d8144b70eb6a908590a360019150505b92915050565b5f3381610431868386610a13565b905061043f86868684610ab1565b50600195945050505050565b5f610329846102aa85858080601f0160208091040260200160405190810160405280939291908181526020018383808284375f92019190915250610a0792505050565b60608383838080601f0160208091040260200160405190810160405280939291908181526020018383808284375f920182905250604080517f051d137ae0e1fae6e3b6559fed4442b35a85a9a39789838ad5c9ea05e7da2dce602082015290810187905290935061051b925060600190505b60405160208183030381529060405280519060200120610b77565b90505f6105288284610ba3565b90506001600160a01b03811633146105ad5760405162461bcd60e51b815260206004820152603160248201527f454950373132207369676e657220616e64207472616e73616374696f6e20736960448201527f676e657220646f206e6f74206d6174636800000000000000000000000000000060648201526084015b60405180910390fd5b6001600160a01b038a163314806105cc57506001600160a01b03891633145b6105d4575f80fd5b6105e76105e18b8b610bcb565b89610c32565b9a9950505050505050505050565b5f61043f85856101d886868080601f0160208091040260200160405190810160405280939291908181526020018383808284375f92019190915250610a0792505050565b60608383838080601f0160208091040260200160405190810160405280939291908181526020018383808284375f920182905250604080517f051d137ae0e1fae6e3b6559fed4442b35a85a9a39789838ad5c9ea05e7da2dce60208201529081018790529093506106af92506060019050610500565b90505f6106bc8284610ba3565b90506001600160a01b038116331461073c5760405162461bcd60e51b815260206004820152603160248201527f454950373132207369676e657220616e64207472616e73616374696f6e20736960448201527f676e657220646f206e6f74206d6174636800000000000000000000000000000060648201526084016105a4565b336001600160a01b038a1603610776576001600160a01b0389165f9081526006602052604081205461076f918a90610c3e565b945061078c565b6107896107825f610c73565b895f610c3e565b94505b50505050949350505050565b6107a0610c7f565b6107a95f610cac565b565b60035433906001600160a01b031681146107e35760405163118cdaa760e01b81526001600160a01b03821660048201526024016105a4565b6107ec81610cac565b50565b5f6060805f805f6060610800610cd2565b610808610d03565b604080515f80825260208201909252600f60f81b9b939a50919850469750309650945092509050565b606060058054610345906118e3565b335f90815260066020526040812054819061085c908490610d30565b905061086a33858584610ab1565b5060019392505050565b61087c610c7f565b600380546001600160a01b03831673ffffffffffffffffffffffffffffffffffffffff1990911681179091556108ba6002546001600160a01b031690565b6001600160a01b03167f38d16b8cac22d99fc7c124b9cd0de2d3fa1faef420bfe791d8c362d765e2270060405160405180910390a350565b6108fa610c7f565b61093860065f6109126002546001600160a01b031690565b6001600160a01b03166001600160a01b031681526020019081526020015f205482610d5e565b60065f61094d6002546001600160a01b031690565b6001600160a01b0316815260208101919091526040015f2055600354610985908290600160a01b900467ffffffffffffffff1661192f565b600380547fffffffff0000000000000000ffffffffffffffffffffffffffffffffffffffff16600160a01b67ffffffffffffffff93841602179055600254604080519284168352516001600160a01b03909116917f9109de113672aaca72ede8bc906f7aafabee865311ac020fb15c71edf94a0a01919081900360200190a250565b5f61041d826005610d86565b5f80610a1f8585610bcb565b90505f610a2c8483610d30565b6001600160a01b0387165f9081526006602052604081205491925090610a53908690610d30565b90505f610a608284610e19565b9050610aa68888610a7b84610a75898c610e24565b89610e2f565b6001600160a01b039283165f9081526007602090815260408083209490951682529290925291902055565b979650505050505050565b6001600160a01b0383165f90815260066020526040812054610ae891610ae39084908690610ade90610c73565b610e2f565b610e3b565b6001600160a01b038085165f9081526006602052604080822093909355908616815290812054610b2891610b239084908690610ade90610c73565b610e24565b6001600160a01b038086165f818152600660205260408082209490945592519186169290917f4853ae1b4d437c4255ac16cd3ceda3465975023f27cb141584cd9d44440fed829190a350505050565b5f61041d610b83610e46565b8360405161190160f01b8152600281019290925260228201526042902090565b5f805f80610bb18686610f6f565b925092509250610bc18282610fb8565b5090949350505050565b6001600160a01b038281165f90815260076020908152604080832093851683529290529081205415610c2257506001600160a01b038083165f9081526007602090815260408083209385168352929052205461041d565b610c2b5f610c73565b905061041d565b606061032f8383611074565b60608315610c5757610c508484611074565b905061032f565b610c50610c6d8367ffffffffffffffff16610c73565b84611074565b5f61041d8260056110df565b6002546001600160a01b031633146107a95760405163118cdaa760e01b81523360048201526024016105a4565b6003805473ffffffffffffffffffffffffffffffffffffffff191690556107ec81611154565b6060610cfe7f00000000000000000000000000000000000000000000000000000000000000005f6111b2565b905090565b6060610cfe7f000000000000000000000000000000000000000000000000000000000000000060016111b2565b5f82610d4257610d3f5f610c73565b92505b81610d5357610d505f610c73565b91505b61032f83835f611254565b5f82610d7057610d6d5f610c73565b92505b61032f838367ffffffffffffffff1660016112ea565b5f80838360f81b604051602001610d9e929190611963565b60408051601f1981840301815290829052630964a5d960e31b82529150605d90634b252ec890610dd2908490600401611694565b602060405180830381865afa158015610ded573d5f803e3d5ffd5b505050506040513d601f19601f82011682018060405250810190610e119190611991565b949350505050565b5f61032f838361133c565b5f61032f8383611373565b5f610e118484846113a1565b5f61032f83836113ec565b5f306001600160a01b037f000000000000000000000000000000000000000000000000000000000000000016148015610e9e57507f000000000000000000000000000000000000000000000000000000000000000046145b15610ec857507f000000000000000000000000000000000000000000000000000000000000000090565b610cfe604080517f8b73c3c69bb8fe3d512ecc4cf759cc79239f7b179b0ffacaa9a75d522b39400f60208201527f0000000000000000000000000000000000000000000000000000000000000000918101919091527f000000000000000000000000000000000000000000000000000000000000000060608201524660808201523060a08201525f9060c00160405160208183030381529060405280519060200120905090565b5f805f8351604103610fa6576020840151604085015160608601515f1a610f988882858561141a565b955095509550505050610fb1565b505081515f91506002905b9250925092565b5f826003811115610fcb57610fcb6119a8565b03610fd4575050565b6001826003811115610fe857610fe86119a8565b036110065760405163f645eedf60e01b815260040160405180910390fd5b600282600381111561101a5761101a6119a8565b0361103b5760405163fce698f760e01b8152600481018290526024016105a4565b600382600381111561104f5761104f6119a8565b03611070576040516335e2f38360e21b8152600481018290526024016105a4565b5050565b60405163d6ad57cd60e01b81526004810183905260248101829052606090605d9063d6ad57cd906044015f60405180830381865afa1580156110b8573d5f803e3d5ffd5b505050506040513d5f823e601f3d908101601f1916820160405261032f91908101906119bc565b604051631ce2e8d760e31b8152600481018390526001600160f81b031960f883901b1660248201525f90605d9063e71746b890604401602060405180830381865afa158015611130573d5f803e3d5ffd5b505050506040513d601f19601f8201168201806040525081019061032f9190611991565b600280546001600160a01b0383811673ffffffffffffffffffffffffffffffffffffffff19831681179093556040519116919082907f8be0079c531659141344cd1fd0a4f28419497f9722a3daafe3b4186f6b6457e0905f90a35050565b606060ff83146111c557610c2b836114e2565b8180546111d1906118e3565b80601f01602080910402602001604051908101604052809291908181526020018280546111fd906118e3565b80156112485780601f1061121f57610100808354040283529160200191611248565b820191905f5260205f20905b81548152906001019060200180831161122b57829003601f168201915b5050505050905061041d565b5f8082156112675750600160f81b61126a565b505f5b6040516334a6d7b960e11b815260048101869052602481018590526001600160f81b031982166044820152605d9063694daf72906064015b602060405180830381865afa1580156112bd573d5f803e3d5ffd5b505050506040513d601f19601f820116820180604052508101906112e19190611991565b95945050505050565b5f8082156112fd5750600160f81b611300565b505f5b60405163f953e42760e01b815260048101869052602481018590526001600160f81b031982166044820152605d9063f953e427906064016112a2565b604051630ccd46b160e31b815260048101839052602481018290525f60448201819052908190605d9063666a358890606401610dd2565b5f82611385576113825f610c73565b92505b81611396576113935f610c73565b91505b61032f83835f61151f565b60405163cb3b940760e01b81526004810184905260248101839052604481018290525f90605d9063cb3b940790606401602060405180830381865afa158015610ded573d5f803e3d5ffd5b5f826113fe576113fb5f610c73565b92505b8161140f5761140c5f610c73565b91505b61032f83835f6112ea565b5f80807f7fffffffffffffffffffffffffffffff5d576e7357a4501ddfe92f46681b20a084111561145357505f915060039050826114d8565b604080515f808252602082018084528a905260ff891692820192909252606081018790526080810186905260019060a0016020604051602081039080840390855afa1580156114a4573d5f803e3d5ffd5b5050604051601f1901519150506001600160a01b0381166114cf57505f9250600191508290506114d8565b92505f91508190505b9450945094915050565b60605f6114ee83611571565b6040805160208082528183019092529192505f91906020820181803683375050509182525060208101929092525090565b5f8082156115325750600160f81b611535565b505f5b604051638c14cc2160e01b815260048101869052602481018590526001600160f81b031982166044820152605d90638c14cc21906064016112a2565b5f60ff8216601f81111561041d57604051632cd44ac360e21b815260040160405180910390fd5b80356001600160a01b03811681146115ae575f80fd5b919050565b5f8083601f8401126115c3575f80fd5b50813567ffffffffffffffff8111156115da575f80fd5b6020830191508360208285010111156115f1575f80fd5b9250929050565b5f805f6040848603121561160a575f80fd5b61161384611598565b9250602084013567ffffffffffffffff81111561162e575f80fd5b61163a868287016115b3565b9497909650939450505050565b5f5b83811015611661578181015183820152602001611649565b50505f910152565b5f8151808452611680816020860160208601611647565b601f01601f19169290920160200192915050565b602081525f61032f6020830184611669565b5f80604083850312156116b7575f80fd5b6116c083611598565b946020939093013593505050565b5f805f606084860312156116e0575f80fd5b6116e984611598565b92506116f760208501611598565b9150604084013590509250925092565b5f805f805f6080868803121561171b575f80fd5b61172486611598565b945061173260208701611598565b935060408601359250606086013567ffffffffffffffff811115611754575f80fd5b611760888289016115b3565b969995985093965092949392505050565b5f805f8060608587031215611784575f80fd5b61178d85611598565b935061179b60208601611598565b9250604085013567ffffffffffffffff8111156117b6575f80fd5b6117c2878288016115b3565b95989497509550505050565b5f805f80606085870312156117e1575f80fd5b6117ea85611598565b935060208501359250604085013567ffffffffffffffff8111156117b6575f80fd5b60ff60f81b881681525f602060e0602084015261182c60e084018a611669565b838103604085015261183e818a611669565b606085018990526001600160a01b038816608086015260a0850187905284810360c0860152855180825260208088019350909101905f5b8181101561189157835183529284019291840191600101611875565b50909c9b505050505050505050505050565b5f602082840312156118b3575f80fd5b61032f82611598565b5f602082840312156118cc575f80fd5b813567ffffffffffffffff8116811461032f575f80fd5b600181811c908216806118f757607f821691505b60208210810361191557634e487b7160e01b5f52602260045260245ffd5b50919050565b634e487b7160e01b5f52604160045260245ffd5b67ffffffffffffffff81811683821601908082111561195c57634e487b7160e01b5f52601160045260245ffd5b5092915050565b5f8351611974818460208801611647565b6001600160f81b0319939093169190920190815260010192915050565b5f602082840312156119a1575f80fd5b5051919050565b634e487b7160e01b5f52602160045260245ffd5b5f602082840312156119cc575f80fd5b815167ffffffffffffffff808211156119e3575f80fd5b818401915084601f8301126119f6575f80fd5b815181811115611a0857611a0861191b565b604051601f8201601f19908116603f01168101908382118183101715611a3057611a3061191b565b81604052828152876020848701011115611a48575f80fd5b610aa683602083016020880161164756fea164736f6c6343000816000a",
  "linkReferences": {},
  "deployedLinkReferences": {}
}