{
  "_format": "hh-sol-artifact-1",
  "contractName": "EncryptedERC20",
  "sourceName": "examples/EncryptedERC20.sol",
  "abi": [
    {
      "inputs": [],
      "stateMutability": "nonpayable",
      "type": "constructor"
    },
    {
      "inputs": [],
      "name": "InvalidShortString",
      "type": "error"
    },
    {
      "inputs": [
        {
          "internalType": "string",
          "name": "str",
          "type": "string"
        }
      ],
      "name": "StringTooLong",
      "type": "error"
    },
    {
      "anonymous": false,
      "inputs": [],
      "name": "EIP712DomainChanged",
      "type": "event"
    },
    {
      "inputs": [
        {
          "internalType": "address",
          "name": "spender",
          "type": "address"
        },
        {
          "internalType": "bytes32",
          "name": "publicKey",
          "type": "bytes32"
        },
        {
          "internalType": "bytes",
          "name": "signature",
          "type": "bytes"
        }
      ],
      "name": "allowance",
      "outputs": [
        {
          "internalType": "bytes",
          "name": "",
          "type": "bytes"
        }
      ],
      "stateMutability": "view",
      "type": "function"
    },
    {
      "inputs": [
        {
          "internalType": "address",
          "name": "spender",
          "type": "address"
        },
        {
          "internalType": "bytes",
          "name": "encryptedAmount",
          "type": "bytes"
        }
      ],
      "name": "approve",
      "outputs": [],
      "stateMutability": "nonpayable",
      "type": "function"
    },
    {
      "inputs": [
        {
          "internalType": "bytes32",
          "name": "publicKey",
          "type": "bytes32"
        },
        {
          "internalType": "bytes",
          "name": "signature",
          "type": "bytes"
        }
      ],
      "name": "balanceOf",
      "outputs": [
        {
          "internalType": "bytes",
          "name": "",
          "type": "bytes"
        }
      ],
      "stateMutability": "view",
      "type": "function"
    },
    {
      "inputs": [],
      "name": "decimals",
      "outputs": [
        {
          "internalType": "uint8",
          "name": "",
          "type": "uint8"
        }
      ],
      "stateMutability": "view",
      "type": "function"
    },
    {
      "inputs": [],
      "name": "eip712Domain",
      "outputs": [
        {
          "internalType": "bytes1",
          "name": "fields",
          "type": "bytes1"
        },
        {
          "internalType": "string",
          "name": "name",
          "type": "string"
        },
        {
          "internalType": "string",
          "name": "version",
          "type": "string"
        },
        {
          "internalType": "uint256",
          "name": "chainId",
          "type": "uint256"
        },
        {
          "internalType": "address",
          "name": "verifyingContract",
          "type": "address"
        },
        {
          "internalType": "bytes32",
          "name": "salt",
          "type": "bytes32"
        },
        {
          "internalType": "uint256[]",
          "name": "extensions",
          "type": "uint256[]"
        }
      ],
      "stateMutability": "view",
      "type": "function"
    },
    {
      "inputs": [
        {
          "internalType": "bytes32",
          "name": "publicKey",
          "type": "bytes32"
        },
        {
          "internalType": "bytes",
          "name": "signature",
          "type": "bytes"
        }
      ],
      "name": "getTotalSupply",
      "outputs": [
        {
          "internalType": "bytes",
          "name": "",
          "type": "bytes"
        }
      ],
      "stateMutability": "view",
      "type": "function"
    },
    {
      "inputs": [
        {
          "internalType": "bytes",
          "name": "encryptedAmount",
          "type": "bytes"
        }
      ],
      "name": "mint",
      "outputs": [],
      "stateMutability": "nonpayable",
      "type": "function"
    },
    {
      "inputs": [],
      "name": "name",
      "outputs": [
        {
          "internalType": "string",
          "name": "",
          "type": "string"
        }
      ],
      "stateMutability": "view",
      "type": "function"
    },
    {
      "inputs": [],
      "name": "symbol",
      "outputs": [
        {
          "internalType": "string",
          "name": "",
          "type": "string"
        }
      ],
      "stateMutability": "view",
      "type": "function"
    },
    {
      "inputs": [
        {
          "internalType": "address",
          "name": "to",
          "type": "address"
        },
        {
          "internalType": "bytes",
          "name": "encryptedAmount",
          "type": "bytes"
        }
      ],
      "name": "transfer",
      "outputs": [],
      "stateMutability": "nonpayable",
      "type": "function"
    },
    {
      "inputs": [
        {
          "internalType": "address",
          "name": "to",
          "type": "address"
        },
        {
          "internalType": "euint32",
          "name": "amount",
          "type": "uint256"
        }
      ],
      "name": "transfer",
      "outputs": [],
      "stateMutability": "nonpayable",
      "type": "function"
    },
    {
      "inputs": [
        {
          "internalType": "address",
          "name": "from",
          "type": "address"
        },
        {
          "internalType": "address",
          "name": "to",
          "type": "address"
        },
        {
          "internalType": "euint32",
          "name": "amount",
          "type": "uint256"
        }
      ],
      "name": "transferFrom",
      "outputs": [],
      "stateMutability": "nonpayable",
      "type": "function"
    },
    {
      "inputs": [
        {
          "internalType": "address",
          "name": "from",
          "type": "address"
        },
        {
          "internalType": "address",
          "name": "to",
          "type": "address"
        },
        {
          "internalType": "bytes",
          "name": "encryptedAmount",
          "type": "bytes"
        }
      ],
      "name": "transferFrom",
      "outputs": [],
      "stateMutability": "nonpayable",
      "type": "function"
    }
  ],
  "bytecode": "0x6101606040523480156200001257600080fd5b506040518060400160405280601381526020017f417574686f72697a6174696f6e20746f6b656e000000000000000000000000008152506040518060400160405280600181526020017f310000000000000000000000000000000000000000000000000000000000000081525081816200009c6000836200018460201b62000ac41790919060201c565b6101208181525050620000bf6001826200018460201b62000ac41790919060201c565b6101408181525050818051906020012060e08181525050808051906020012061010081815250504660a08181525050620000fe620001e160201b60201c565b608081815250503073ffffffffffffffffffffffffffffffffffffffff1660c08173ffffffffffffffffffffffffffffffffffffffff16815250505050505033600660006101000a81548173ffffffffffffffffffffffffffffffffffffffff021916908373ffffffffffffffffffffffffffffffffffffffff16021790555062000839565b6000602083511015620001aa57620001a2836200023e60201b60201c565b9050620001db565b82620001c183620002ab60201b62000b081760201c565b6000019081620001d291906200052f565b5060ff60001b90505b92915050565b60007f8b73c3c69bb8fe3d512ecc4cf759cc79239f7b179b0ffacaa9a75d522b39400f60e0516101005146306040516020016200022395949392919062000687565b60405160208183030381529060405280519060200120905090565b600080829050601f815111156200028e57826040517f305a27a900000000000000000000000000000000000000000000000000000000815260040162000285919062000773565b60405180910390fd5b8051816200029c90620007c9565b60001c1760001b915050919050565b6000819050919050565b600081519050919050565b7f4e487b7100000000000000000000000000000000000000000000000000000000600052604160045260246000fd5b7f4e487b7100000000000000000000000000000000000000000000000000000000600052602260045260246000fd5b600060028204905060018216806200033757607f821691505b6020821081036200034d576200034c620002ef565b5b50919050565b60008190508160005260206000209050919050565b60006020601f8301049050919050565b600082821b905092915050565b600060088302620003b77fffffffffffffffffffffffffffffffffffffffffffffffffffffffffffffffff8262000378565b620003c3868362000378565b95508019841693508086168417925050509392505050565b6000819050919050565b6000819050919050565b6000620004106200040a6200040484620003db565b620003e5565b620003db565b9050919050565b6000819050919050565b6200042c83620003ef565b620004446200043b8262000417565b84845462000385565b825550505050565b600090565b6200045b6200044c565b6200046881848462000421565b505050565b5b8181101562000490576200048460008262000451565b6001810190506200046e565b5050565b601f821115620004df57620004a98162000353565b620004b48462000368565b81016020851015620004c4578190505b620004dc620004d38562000368565b8301826200046d565b50505b505050565b600082821c905092915050565b60006200050460001984600802620004e4565b1980831691505092915050565b60006200051f8383620004f1565b9150826002028217905092915050565b6200053a82620002b5565b67ffffffffffffffff811115620005565762000555620002c0565b5b6200056282546200031e565b6200056f82828562000494565b600060209050601f831160018114620005a7576000841562000592578287015190505b6200059e858262000511565b8655506200060e565b601f198416620005b78662000353565b60005b82811015620005e157848901518255600182019150602085019450602081019050620005ba565b86831015620006015784890151620005fd601f891682620004f1565b8355505b6001600288020188555050505b505050505050565b6000819050919050565b6200062b8162000616565b82525050565b6200063c81620003db565b82525050565b600073ffffffffffffffffffffffffffffffffffffffff82169050919050565b60006200066f8262000642565b9050919050565b620006818162000662565b82525050565b600060a0820190506200069e600083018862000620565b620006ad602083018762000620565b620006bc604083018662000620565b620006cb606083018562000631565b620006da608083018462000676565b9695505050505050565b600082825260208201905092915050565b60005b8381101562000715578082015181840152602081019050620006f8565b60008484015250505050565b6000601f19601f8301169050919050565b60006200073f82620002b5565b6200074b8185620006e4565b93506200075d818560208601620006f5565b620007688162000721565b840191505092915050565b600060208201905081810360008301526200078f818462000732565b905092915050565b600081519050919050565b6000819050602082019050919050565b6000620007c0825162000616565b80915050919050565b6000620007d68262000797565b82620007e284620007a2565b9050620007ef81620007b2565b9250602082101562000832576200082d7fffffffffffffffffffffffffffffffffffffffffffffffffffffffffffffffff8360200360080262000378565b831692505b5050919050565b60805160a05160c05160e0516101005161012051610140516128bc620008946000396000610710015260006106dc015260006117af0152600061178e015260006110f3015260006111490152600061117201526128bc6000f3fe608060405234801561001057600080fd5b50600436106100cf5760003560e01c80637b7c65c91161008c5780638ff9e2f5116100665780638ff9e2f5146101f057806395d89b4114610220578063a9059cbb1461023e578063b6ce514b1461025a576100cf565b80637b7c65c9146101805780637ba0e2e7146101b057806384b0196e146101cc576100cf565b8063014647f4146100d457806306fdde03146100f057806323b872dd1461010e578063297235111461012a578063313ce567146101465780634997266314610164575b600080fd5b6100ee60048036038101906100e99190611ac5565b61028a565b005b6100f86102ec565b6040516101059190611bb5565b60405180910390f35b61012860048036038101906101239190611c0d565b610325565b005b610144600480360381019061013f9190611ac5565b610346565b005b61014e6103a1565b60405161015b9190611c7c565b60405180910390f35b61017e60048036038101906101799190611c97565b6103a6565b005b61019a60048036038101906101959190611d41565b610403565b6040516101a79190611df6565b60405180910390f35b6101ca60048036038101906101c59190611e18565b610537565b005b6101d46106c9565b6040516101e79796959493929190611f8b565b60405180910390f35b61020a60048036038101906102059190611d41565b6107cb565b6040516102179190611df6565b60405180910390f35b61022861093c565b6040516102359190611bb5565b60405180910390f35b6102586004803603810190610253919061200f565b610975565b005b610274600480360381019061026f919061204f565b610984565b6040516102819190611df6565b60405180910390f35b60003390506102e681856102e186868080601f016020809104026020016040519081016040528093929190818152602001838380828437600081840152601f19601f82011690508083019250505050505050610b12565b610b26565b50505050565b6040518060400160405280600981526020017f4e6172616767617261000000000000000000000000000000000000000000000081525081565b6000339050610335848284610bac565b610340848484610be6565b50505050565b61039c8361039784848080601f016020809104026020016040519081016040528093929190818152602001838380828437600081840152601f19601f82011690508083019250505050505050610b12565b610975565b505050565b601281565b6103fd84846103f885858080601f016020809104026020016040519081016040528093929190818152602001838380828437600081840152601f19601f82011690508083019250505050505050610b12565b610325565b50505050565b60608383838080601f016020809104026020016040519081016040528093929190818152602001838380828437600081840152601f19601f82011690508083019250505050505050600061049e7f051d137ae0e1fae6e3b6559fed4442b35a85a9a39789838ad5c9ea05e7da2dce846040516020016104839291906120c3565b60405160208183030381529060405280519060200120610d54565b905060006104ac8284610d6e565b90503373ffffffffffffffffffffffffffffffffffffffff168173ffffffffffffffffffffffffffffffffffffffff161461051c576040517f08c379a00000000000000000000000000000000000000000000000000000000081526004016105139061215e565b60405180910390fd5b61052a600254896000610d95565b9450505050509392505050565b600660009054906101000a900473ffffffffffffffffffffffffffffffffffffffff1673ffffffffffffffffffffffffffffffffffffffff163373ffffffffffffffffffffffffffffffffffffffff161461059157600080fd5b60006105e083838080601f016020809104026020016040519081016040528093929190818152602001838380828437600081840152601f19601f82011690508083019250505050505050610b12565b905061064d60046000600660009054906101000a900473ffffffffffffffffffffffffffffffffffffffff1673ffffffffffffffffffffffffffffffffffffffff1673ffffffffffffffffffffffffffffffffffffffff1681526020019081526020016000205482610dd2565b60046000600660009054906101000a900473ffffffffffffffffffffffffffffffffffffffff1673ffffffffffffffffffffffffffffffffffffffff1673ffffffffffffffffffffffffffffffffffffffff168152602001908152602001600020819055506106be60025482610dd2565b600281905550505050565b60006060806000806000606061070960007f0000000000000000000000000000000000000000000000000000000000000000610de890919063ffffffff16565b61073d60017f0000000000000000000000000000000000000000000000000000000000000000610de890919063ffffffff16565b46306000801b600067ffffffffffffffff81111561075e5761075d61217e565b5b60405190808252806020026020018201604052801561078c5781602001602082028036833780820191505090505b507f0f00000000000000000000000000000000000000000000000000000000000000959493929190965096509650965096509650965090919293949596565b60608383838080601f016020809104026020016040519081016040528093929190818152602001838380828437600081840152601f19601f8201169050808301925050505050505060006108667f051d137ae0e1fae6e3b6559fed4442b35a85a9a39789838ad5c9ea05e7da2dce8460405160200161084b9291906120c3565b60405160208183030381529060405280519060200120610d54565b905060006108748284610d6e565b90503373ffffffffffffffffffffffffffffffffffffffff168173ffffffffffffffffffffffffffffffffffffffff16146108e4576040517f08c379a00000000000000000000000000000000000000000000000000000000081526004016108db9061215e565b60405180910390fd5b61092f600460003373ffffffffffffffffffffffffffffffffffffffff1673ffffffffffffffffffffffffffffffffffffffff16815260200190815260200160002054896000610d95565b9450505050509392505050565b6040518060400160405280600481526020017f4e4152410000000000000000000000000000000000000000000000000000000081525081565b610980338383610be6565b5050565b60608383838080601f016020809104026020016040519081016040528093929190818152602001838380828437600081840152601f19601f820116905080830192505050505050506000610a1f7f051d137ae0e1fae6e3b6559fed4442b35a85a9a39789838ad5c9ea05e7da2dce84604051602001610a049291906120c3565b60405160208183030381529060405280519060200120610d54565b90506000610a2d8284610d6e565b90503373ffffffffffffffffffffffffffffffffffffffff168173ffffffffffffffffffffffffffffffffffffffff1614610a9d576040517f08c379a0000000000000000000000000000000000000000000000000000000008152600401610a949061215e565b60405180910390fd5b6000339050610ab5610aaf828c610e98565b8a610fbb565b95505050505050949350505050565b6000602083511015610ae057610ad983610fcf565b9050610b02565b82610aea83610b08565b6000019081610af991906123b9565b5060ff60001b90505b92915050565b6000819050919050565b6000610b1f826002611037565b9050919050565b80600560008573ffffffffffffffffffffffffffffffffffffffff1673ffffffffffffffffffffffffffffffffffffffff16815260200190815260200160002060008473ffffffffffffffffffffffffffffffffffffffff1673ffffffffffffffffffffffffffffffffffffffff16815260200190815260200160002081905550505050565b6000610bb88484610e98565b9050610bcc610bc783836110b7565b6110cd565b610be08484610bdb84866110d9565b610b26565b50505050565b610c37610c3282600460008773ffffffffffffffffffffffffffffffffffffffff1673ffffffffffffffffffffffffffffffffffffffff168152602001908152602001600020546110b7565b6110cd565b610c80600460008473ffffffffffffffffffffffffffffffffffffffff1673ffffffffffffffffffffffffffffffffffffffff1681526020019081526020016000205482610dd2565b600460008473ffffffffffffffffffffffffffffffffffffffff1673ffffffffffffffffffffffffffffffffffffffff16815260200190815260200160002081905550610d0c600460008573ffffffffffffffffffffffffffffffffffffffff1673ffffffffffffffffffffffffffffffffffffffff16815260200190815260200160002054826110d9565b600460008573ffffffffffffffffffffffffffffffffffffffff1673ffffffffffffffffffffffffffffffffffffffff16815260200190815260200160002081905550505050565b6000610d67610d616110ef565b836111a6565b9050919050565b6000806000610d7d85856111e7565b91509150610d8a81611238565b819250505092915050565b606060008414610db057610da9848461139e565b9050610dcb565b610dc8610dc28363ffffffff1661145d565b8461139e565b90505b9392505050565b6000610de083836000611471565b905092915050565b606060ff60001b8314610e0557610dfe83611535565b9050610e92565b818054610e11906121dc565b80601f0160208091040260200160405190810160405280929190818152602001828054610e3d906121dc565b8015610e8a5780601f10610e5f57610100808354040283529160200191610e8a565b820191906000526020600020905b815481529060010190602001808311610e6d57829003601f168201915b505050505090505b92915050565b6000610f1f600560008573ffffffffffffffffffffffffffffffffffffffff1673ffffffffffffffffffffffffffffffffffffffff16815260200190815260200160002060008473ffffffffffffffffffffffffffffffffffffffff1673ffffffffffffffffffffffffffffffffffffffff168152602001908152602001600020546115a9565b15610fa857600560008473ffffffffffffffffffffffffffffffffffffffff1673ffffffffffffffffffffffffffffffffffffffff16815260200190815260200160002060008373ffffffffffffffffffffffffffffffffffffffff1673ffffffffffffffffffffffffffffffffffffffff168152602001908152602001600020549050610fb5565b610fb2600061145d565b90505b92915050565b6060610fc7838361139e565b905092915050565b600080829050601f8151111561101c57826040517f305a27a90000000000000000000000000000000000000000000000000000000081526004016110139190611bb5565b60405180910390fd5b805181611028906124b0565b60001c1760001b915050919050565b600080838360f81b604051602001611050929190612574565b604051602081830303815290604052905060008151905061106f6119b4565b60006020905060006042905081838560208801845afa61108e57600080fd5b826000600181106110a2576110a161259c565b5b602002015160001c9550505050505092915050565b60006110c5838360006115b6565b905092915050565b6110d681611659565b50565b60006110e7838360006116a5565b905092915050565b60007f000000000000000000000000000000000000000000000000000000000000000073ffffffffffffffffffffffffffffffffffffffff163073ffffffffffffffffffffffffffffffffffffffff1614801561116b57507f000000000000000000000000000000000000000000000000000000000000000046145b15611198577f000000000000000000000000000000000000000000000000000000000000000090506111a3565b6111a0611769565b90505b90565b60006040517f190100000000000000000000000000000000000000000000000000000000000081528360028201528260228201526042812091505092915050565b60008060418351036112285760008060006020860151925060408601519150606086015160001a905061121c878285856117ff565b94509450505050611231565b60006002915091505b9250929050565b6000600481111561124c5761124b6125cb565b5b81600481111561125f5761125e6125cb565b5b031561139b5760016004811115611279576112786125cb565b5b81600481111561128c5761128b6125cb565b5b036112cc576040517f08c379a00000000000000000000000000000000000000000000000000000000081526004016112c390612646565b60405180910390fd5b600260048111156112e0576112df6125cb565b5b8160048111156112f3576112f26125cb565b5b03611333576040517f08c379a000000000000000000000000000000000000000000000000000000000815260040161132a906126b2565b60405180910390fd5b60036004811115611347576113466125cb565b5b81600481111561135a576113596125cb565b5b0361139a576040517f08c379a000000000000000000000000000000000000000000000000000000000815260040161139190612744565b60405180910390fd5b5b50565b60606113a86119d6565b8360001b816000600281106113c0576113bf61259c565b5b60200201818152505082816001600281106113de576113dd61259c565b5b602002018181525050600060409050605467ffffffffffffffff8111156114085761140761217e565b5b6040519080825280601f01601f19166020018201604052801561143a5781602001600182028036833780820191505090505b5092506000604390506054848385845afa61145457600080fd5b50505092915050565b600061146a8260026118e1565b9050919050565b60008084036114825782905061152e565b600083036114925783905061152e565b600082156114a657600160f81b90506114ae565b600060f81b90505b60008560001b8560001b836040516020016114cb93929190612785565b60405160208183030381529060405290506000815190506114ea6119b4565b60006020905060006041905081838560208801845afa61150957600080fd5b8260006001811061151d5761151c61259c565b5b602002015160001c96505050505050505b9392505050565b6060600061154283611964565b90506000602067ffffffffffffffff8111156115615761156061217e565b5b6040519080825280601f01601f1916602001820160405280156115935781602001600182028036833780820191505090505b5090508181528360208201528092505050919050565b6000808214159050919050565b60008082156115cb57600160f81b90506115d3565b600060f81b90505b60008560001b8560001b836040516020016115f093929190612785565b604051602081830303815290604052905060008151905061160f6119b4565b60006020905060006046905081838560208801845afa61162e57600080fd5b826000600181106116425761164161259c565b5b602002015160001c96505050505050509392505050565b6116616119b4565b8160001b816000600181106116795761167861259c565b5b6020020181815250506000602090506000604590506000808385845afa61169f57600080fd5b50505050565b60008084036116b657829050611762565b600083036116c657839050611762565b600082156116da57600160f81b90506116e2565b600060f81b90505b60008560001b8560001b836040516020016116ff93929190612785565b604051602081830303815290604052905060008151905061171e6119b4565b60006020905060006047905081838560208801845afa61173d57600080fd5b826000600181106117515761175061259c565b5b602002015160001c96505050505050505b9392505050565b60007f8b73c3c69bb8fe3d512ecc4cf759cc79239f7b179b0ffacaa9a75d522b39400f7f00000000000000000000000000000000000000000000000000000000000000007f000000000000000000000000000000000000000000000000000000000000000046306040516020016117e49594939291906127c2565b60405160208183030381529060405280519060200120905090565b6000807f7fffffffffffffffffffffffffffffff5d576e7357a4501ddfe92f46681b20a08360001c111561183a5760006003915091506118d8565b60006001878787876040516000815260200160405260405161185f9493929190612815565b6020604051602081039080840390855afa158015611881573d6000803e3d6000fd5b505050602060405103519050600073ffffffffffffffffffffffffffffffffffffffff168173ffffffffffffffffffffffffffffffffffffffff16036118cf576000600192509250506118d8565b80600092509250505b94509492505050565b6000808360001b8360f81b6040516020016118fd92919061285a565b604051602081830303815290604052905060008151905061191c6119b4565b6000602090506000604d905081838560208801845afa61193b57600080fd5b8260006001811061194f5761194e61259c565b5b602002015160001c9550505050505092915050565b60008060ff8360001c169050601f8111156119ab576040517fb3512b0c00000000000000000000000000000000000000000000000000000000815260040160405180910390fd5b80915050919050565b6040518060200160405280600190602082028036833780820191505090505090565b6040518060400160405280600290602082028036833780820191505090505090565b600080fd5b600080fd5b600073ffffffffffffffffffffffffffffffffffffffff82169050919050565b6000611a2d82611a02565b9050919050565b611a3d81611a22565b8114611a4857600080fd5b50565b600081359050611a5a81611a34565b92915050565b600080fd5b600080fd5b600080fd5b60008083601f840112611a8557611a84611a60565b5b8235905067ffffffffffffffff811115611aa257611aa1611a65565b5b602083019150836001820283011115611abe57611abd611a6a565b5b9250929050565b600080600060408486031215611ade57611add6119f8565b5b6000611aec86828701611a4b565b935050602084013567ffffffffffffffff811115611b0d57611b0c6119fd565b5b611b1986828701611a6f565b92509250509250925092565b600081519050919050565b600082825260208201905092915050565b60005b83811015611b5f578082015181840152602081019050611b44565b60008484015250505050565b6000601f19601f8301169050919050565b6000611b8782611b25565b611b918185611b30565b9350611ba1818560208601611b41565b611baa81611b6b565b840191505092915050565b60006020820190508181036000830152611bcf8184611b7c565b905092915050565b6000819050919050565b611bea81611bd7565b8114611bf557600080fd5b50565b600081359050611c0781611be1565b92915050565b600080600060608486031215611c2657611c256119f8565b5b6000611c3486828701611a4b565b9350506020611c4586828701611a4b565b9250506040611c5686828701611bf8565b9150509250925092565b600060ff82169050919050565b611c7681611c60565b82525050565b6000602082019050611c916000830184611c6d565b92915050565b60008060008060608587031215611cb157611cb06119f8565b5b6000611cbf87828801611a4b565b9450506020611cd087828801611a4b565b935050604085013567ffffffffffffffff811115611cf157611cf06119fd565b5b611cfd87828801611a6f565b925092505092959194509250565b6000819050919050565b611d1e81611d0b565b8114611d2957600080fd5b50565b600081359050611d3b81611d15565b92915050565b600080600060408486031215611d5a57611d596119f8565b5b6000611d6886828701611d2c565b935050602084013567ffffffffffffffff811115611d8957611d886119fd565b5b611d9586828701611a6f565b92509250509250925092565b600081519050919050565b600082825260208201905092915050565b6000611dc882611da1565b611dd28185611dac565b9350611de2818560208601611b41565b611deb81611b6b565b840191505092915050565b60006020820190508181036000830152611e108184611dbd565b905092915050565b60008060208385031215611e2f57611e2e6119f8565b5b600083013567ffffffffffffffff811115611e4d57611e4c6119fd565b5b611e5985828601611a6f565b92509250509250929050565b60007fff0000000000000000000000000000000000000000000000000000000000000082169050919050565b611e9a81611e65565b82525050565b611ea981611bd7565b82525050565b611eb881611a22565b82525050565b611ec781611d0b565b82525050565b600081519050919050565b600082825260208201905092915050565b6000819050602082019050919050565b611f0281611bd7565b82525050565b6000611f148383611ef9565b60208301905092915050565b6000602082019050919050565b6000611f3882611ecd565b611f428185611ed8565b9350611f4d83611ee9565b8060005b83811015611f7e578151611f658882611f08565b9750611f7083611f20565b925050600181019050611f51565b5085935050505092915050565b600060e082019050611fa0600083018a611e91565b8181036020830152611fb28189611b7c565b90508181036040830152611fc68188611b7c565b9050611fd56060830187611ea0565b611fe26080830186611eaf565b611fef60a0830185611ebe565b81810360c08301526120018184611f2d565b905098975050505050505050565b60008060408385031215612026576120256119f8565b5b600061203485828601611a4b565b925050602061204585828601611bf8565b9150509250929050565b60008060008060608587031215612069576120686119f8565b5b600061207787828801611a4b565b945050602061208887828801611d2c565b935050604085013567ffffffffffffffff8111156120a9576120a86119fd565b5b6120b587828801611a6f565b925092505092959194509250565b60006040820190506120d86000830185611ebe565b6120e56020830184611ebe565b9392505050565b7f454950373132207369676e657220616e64207472616e73616374696f6e20736960008201527f676e657220646f206e6f74206d61746368000000000000000000000000000000602082015250565b6000612148603183611b30565b9150612153826120ec565b604082019050919050565b600060208201905081810360008301526121778161213b565b9050919050565b7f4e487b7100000000000000000000000000000000000000000000000000000000600052604160045260246000fd5b7f4e487b7100000000000000000000000000000000000000000000000000000000600052602260045260246000fd5b600060028204905060018216806121f457607f821691505b602082108103612207576122066121ad565b5b50919050565b60008190508160005260206000209050919050565b60006020601f8301049050919050565b600082821b905092915050565b60006008830261226f7fffffffffffffffffffffffffffffffffffffffffffffffffffffffffffffffff82612232565b6122798683612232565b95508019841693508086168417925050509392505050565b6000819050919050565b60006122b66122b16122ac84611bd7565b612291565b611bd7565b9050919050565b6000819050919050565b6122d08361229b565b6122e46122dc826122bd565b84845461223f565b825550505050565b600090565b6122f96122ec565b6123048184846122c7565b505050565b5b818110156123285761231d6000826122f1565b60018101905061230a565b5050565b601f82111561236d5761233e8161220d565b61234784612222565b81016020851015612356578190505b61236a61236285612222565b830182612309565b50505b505050565b600082821c905092915050565b600061239060001984600802612372565b1980831691505092915050565b60006123a9838361237f565b9150826002028217905092915050565b6123c282611b25565b67ffffffffffffffff8111156123db576123da61217e565b5b6123e582546121dc565b6123f082828561232c565b600060209050601f8311600181146124235760008415612411578287015190505b61241b858261239d565b865550612483565b601f1984166124318661220d565b60005b8281101561245957848901518255600182019150602085019450602081019050612434565b868310156124765784890151612472601f89168261237f565b8355505b6001600288020188555050505b505050505050565b6000819050602082019050919050565b60006124a78251611d0b565b80915050919050565b60006124bb82611da1565b826124c58461248b565b90506124d08161249b565b925060208210156125105761250b7fffffffffffffffffffffffffffffffffffffffffffffffffffffffffffffffff83602003600802612232565b831692505b5050919050565b600081905092915050565b600061252d82611da1565b6125378185612517565b9350612547818560208601611b41565b80840191505092915050565b6000819050919050565b61256e61256982611e65565b612553565b82525050565b60006125808285612522565b915061258c828461255d565b6001820191508190509392505050565b7f4e487b7100000000000000000000000000000000000000000000000000000000600052603260045260246000fd5b7f4e487b7100000000000000000000000000000000000000000000000000000000600052602160045260246000fd5b7f45434453413a20696e76616c6964207369676e61747572650000000000000000600082015250565b6000612630601883611b30565b915061263b826125fa565b602082019050919050565b6000602082019050818103600083015261265f81612623565b9050919050565b7f45434453413a20696e76616c6964207369676e6174757265206c656e67746800600082015250565b600061269c601f83611b30565b91506126a782612666565b602082019050919050565b600060208201905081810360008301526126cb8161268f565b9050919050565b7f45434453413a20696e76616c6964207369676e6174757265202773272076616c60008201527f7565000000000000000000000000000000000000000000000000000000000000602082015250565b600061272e602283611b30565b9150612739826126d2565b604082019050919050565b6000602082019050818103600083015261275d81612721565b9050919050565b6000819050919050565b61277f61277a82611d0b565b612764565b82525050565b6000612791828661276e565b6020820191506127a1828561276e565b6020820191506127b1828461255d565b600182019150819050949350505050565b600060a0820190506127d76000830188611ebe565b6127e46020830187611ebe565b6127f16040830186611ebe565b6127fe6060830185611ea0565b61280b6080830184611eaf565b9695505050505050565b600060808201905061282a6000830187611ebe565b6128376020830186611c6d565b6128446040830185611ebe565b6128516060830184611ebe565b95945050505050565b6000612866828561276e565b602082019150612876828461255d565b600182019150819050939250505056fea2646970667358221220e4c449bd7640aabb50c9f2b1f219e2adb459a6ccc95b0123646a33466023da8064736f6c63430008120033",
  "linkReferences": {},
  "deployedLinkReferences": {}
}