{
  "_format": "hh-sol-artifact-1",
  "contractName": "EncryptedERC20",
  "sourceName": "examples/EncryptedERC20.sol",
  "abi": [
    {
      "inputs": [
        {
          "internalType": "string",
          "name": "name_",
          "type": "string"
        },
        {
          "internalType": "string",
          "name": "symbol_",
          "type": "string"
        }
      ],
      "stateMutability": "nonpayable",
      "type": "constructor"
    },
    {
      "inputs": [],
      "name": "ECDSAInvalidSignature",
      "type": "error"
    },
    {
      "inputs": [
        {
          "internalType": "uint256",
          "name": "length",
          "type": "uint256"
        }
      ],
      "name": "ECDSAInvalidSignatureLength",
      "type": "error"
    },
    {
      "inputs": [
        {
          "internalType": "bytes32",
          "name": "s",
          "type": "bytes32"
        }
      ],
      "name": "ECDSAInvalidSignatureS",
      "type": "error"
    },
    {
      "inputs": [],
      "name": "InvalidShortString",
      "type": "error"
    },
    {
      "inputs": [
        {
          "internalType": "address",
          "name": "owner",
          "type": "address"
        }
      ],
      "name": "OwnableInvalidOwner",
      "type": "error"
    },
    {
      "inputs": [
        {
          "internalType": "address",
          "name": "account",
          "type": "address"
        }
      ],
      "name": "OwnableUnauthorizedAccount",
      "type": "error"
    },
    {
      "inputs": [
        {
          "internalType": "string",
          "name": "str",
          "type": "string"
        }
      ],
      "name": "StringTooLong",
      "type": "error"
    },
    {
      "anonymous": false,
      "inputs": [
        {
          "indexed": true,
          "internalType": "address",
          "name": "owner",
          "type": "address"
        },
        {
          "indexed": true,
          "internalType": "address",
          "name": "spender",
          "type": "address"
        }
      ],
      "name": "Approval",
      "type": "event"
    },
    {
      "anonymous": false,
      "inputs": [],
      "name": "EIP712DomainChanged",
      "type": "event"
    },
    {
      "anonymous": false,
      "inputs": [
        {
          "indexed": true,
          "internalType": "address",
          "name": "to",
          "type": "address"
        },
        {
          "indexed": false,
          "internalType": "uint32",
          "name": "amount",
          "type": "uint32"
        }
      ],
      "name": "Mint",
      "type": "event"
    },
    {
      "anonymous": false,
      "inputs": [
        {
          "indexed": true,
          "internalType": "address",
          "name": "previousOwner",
          "type": "address"
        },
        {
          "indexed": true,
          "internalType": "address",
          "name": "newOwner",
          "type": "address"
        }
      ],
      "name": "OwnershipTransferStarted",
      "type": "event"
    },
    {
      "anonymous": false,
      "inputs": [
        {
          "indexed": true,
          "internalType": "address",
          "name": "previousOwner",
          "type": "address"
        },
        {
          "indexed": true,
          "internalType": "address",
          "name": "newOwner",
          "type": "address"
        }
      ],
      "name": "OwnershipTransferred",
      "type": "event"
    },
    {
      "anonymous": false,
      "inputs": [
        {
          "indexed": true,
          "internalType": "address",
          "name": "from",
          "type": "address"
        },
        {
          "indexed": true,
          "internalType": "address",
          "name": "to",
          "type": "address"
        }
      ],
      "name": "Transfer",
      "type": "event"
    },
    {
      "inputs": [],
      "name": "acceptOwnership",
      "outputs": [],
      "stateMutability": "nonpayable",
      "type": "function"
    },
    {
      "inputs": [
        {
          "internalType": "address",
          "name": "owner",
          "type": "address"
        },
        {
          "internalType": "address",
          "name": "spender",
          "type": "address"
        },
        {
          "internalType": "bytes32",
          "name": "publicKey",
          "type": "bytes32"
        },
        {
          "internalType": "bytes",
          "name": "signature",
          "type": "bytes"
        }
      ],
      "name": "allowance",
      "outputs": [
        {
          "internalType": "bytes",
          "name": "",
          "type": "bytes"
        }
      ],
      "stateMutability": "view",
      "type": "function"
    },
    {
      "inputs": [
        {
          "internalType": "address",
          "name": "spender",
          "type": "address"
        },
        {
          "internalType": "bytes",
          "name": "encryptedAmount",
          "type": "bytes"
        }
      ],
      "name": "approve",
      "outputs": [
        {
          "internalType": "bool",
          "name": "",
          "type": "bool"
        }
      ],
      "stateMutability": "nonpayable",
      "type": "function"
    },
    {
      "inputs": [
        {
          "internalType": "address",
          "name": "spender",
          "type": "address"
        },
        {
          "internalType": "euint32",
          "name": "amount",
          "type": "uint256"
        }
      ],
      "name": "approve",
      "outputs": [
        {
          "internalType": "bool",
          "name": "",
          "type": "bool"
        }
      ],
      "stateMutability": "nonpayable",
      "type": "function"
    },
    {
      "inputs": [
        {
          "internalType": "address",
          "name": "wallet",
          "type": "address"
        },
        {
          "internalType": "bytes32",
          "name": "publicKey",
          "type": "bytes32"
        },
        {
          "internalType": "bytes",
          "name": "signature",
          "type": "bytes"
        }
      ],
      "name": "balanceOf",
      "outputs": [
        {
          "internalType": "bytes",
          "name": "",
          "type": "bytes"
        }
      ],
      "stateMutability": "view",
      "type": "function"
    },
    {
      "inputs": [],
      "name": "decimals",
      "outputs": [
        {
          "internalType": "uint8",
          "name": "",
          "type": "uint8"
        }
      ],
      "stateMutability": "view",
      "type": "function"
    },
    {
      "inputs": [],
      "name": "eip712Domain",
      "outputs": [
        {
          "internalType": "bytes1",
          "name": "fields",
          "type": "bytes1"
        },
        {
          "internalType": "string",
          "name": "name",
          "type": "string"
        },
        {
          "internalType": "string",
          "name": "version",
          "type": "string"
        },
        {
          "internalType": "uint256",
          "name": "chainId",
          "type": "uint256"
        },
        {
          "internalType": "address",
          "name": "verifyingContract",
          "type": "address"
        },
        {
          "internalType": "bytes32",
          "name": "salt",
          "type": "bytes32"
        },
        {
          "internalType": "uint256[]",
          "name": "extensions",
          "type": "uint256[]"
        }
      ],
      "stateMutability": "view",
      "type": "function"
    },
    {
      "inputs": [
        {
          "internalType": "uint32",
          "name": "mintedAmount",
          "type": "uint32"
        }
      ],
      "name": "mint",
      "outputs": [],
      "stateMutability": "nonpayable",
      "type": "function"
    },
    {
      "inputs": [],
      "name": "name",
      "outputs": [
        {
          "internalType": "string",
          "name": "",
          "type": "string"
        }
      ],
      "stateMutability": "view",
      "type": "function"
    },
    {
      "inputs": [],
      "name": "owner",
      "outputs": [
        {
          "internalType": "address",
          "name": "",
          "type": "address"
        }
      ],
      "stateMutability": "view",
      "type": "function"
    },
    {
      "inputs": [],
      "name": "pendingOwner",
      "outputs": [
        {
          "internalType": "address",
          "name": "",
          "type": "address"
        }
      ],
      "stateMutability": "view",
      "type": "function"
    },
    {
      "inputs": [],
      "name": "renounceOwnership",
      "outputs": [],
      "stateMutability": "nonpayable",
      "type": "function"
    },
    {
      "inputs": [],
      "name": "symbol",
      "outputs": [
        {
          "internalType": "string",
          "name": "",
          "type": "string"
        }
      ],
      "stateMutability": "view",
      "type": "function"
    },
    {
      "inputs": [],
      "name": "totalSupply",
      "outputs": [
        {
          "internalType": "uint32",
          "name": "",
          "type": "uint32"
        }
      ],
      "stateMutability": "view",
      "type": "function"
    },
    {
      "inputs": [
        {
          "internalType": "address",
          "name": "to",
          "type": "address"
        },
        {
          "internalType": "bytes",
          "name": "encryptedAmount",
          "type": "bytes"
        }
      ],
      "name": "transfer",
      "outputs": [
        {
          "internalType": "bool",
          "name": "",
          "type": "bool"
        }
      ],
      "stateMutability": "nonpayable",
      "type": "function"
    },
    {
      "inputs": [
        {
          "internalType": "address",
          "name": "to",
          "type": "address"
        },
        {
          "internalType": "euint32",
          "name": "amount",
          "type": "uint256"
        }
      ],
      "name": "transfer",
      "outputs": [
        {
          "internalType": "bool",
          "name": "",
          "type": "bool"
        }
      ],
      "stateMutability": "nonpayable",
      "type": "function"
    },
    {
      "inputs": [
        {
          "internalType": "address",
          "name": "from",
          "type": "address"
        },
        {
          "internalType": "address",
          "name": "to",
          "type": "address"
        },
        {
          "internalType": "euint32",
          "name": "amount",
          "type": "uint256"
        }
      ],
      "name": "transferFrom",
      "outputs": [
        {
          "internalType": "bool",
          "name": "",
          "type": "bool"
        }
      ],
      "stateMutability": "nonpayable",
      "type": "function"
    },
    {
      "inputs": [
        {
          "internalType": "address",
          "name": "from",
          "type": "address"
        },
        {
          "internalType": "address",
          "name": "to",
          "type": "address"
        },
        {
          "internalType": "bytes",
          "name": "encryptedAmount",
          "type": "bytes"
        }
      ],
      "name": "transferFrom",
      "outputs": [
        {
          "internalType": "bool",
          "name": "",
          "type": "bool"
        }
      ],
      "stateMutability": "nonpayable",
      "type": "function"
    },
    {
      "inputs": [
        {
          "internalType": "address",
          "name": "newOwner",
          "type": "address"
        }
      ],
      "name": "transferOwnership",
      "outputs": [],
      "stateMutability": "nonpayable",
      "type": "function"
    }
  ],
  "bytecode": "0x61016060405234801562000011575f80fd5b50604051620020f4380380620020f4833981016040819052620000349162000345565b604080518082018252601381527f417574686f72697a6174696f6e20746f6b656e00000000000000000000000000602080830191909152825180840190935260018352603160f81b9083015233916200008e825f62000196565b610120526200009f81600162000196565b61014052815160208084019190912060e052815190820120610100524660a0526200012c60e05161010051604080517f8b73c3c69bb8fe3d512ecc4cf759cc79239f7b179b0ffacaa9a75d522b39400f60208201529081019290925260608201524660808201523060a08201525f9060c00160405160208183030381529060405280519060200120905090565b60805250503060c0526001600160a01b0381166200016457604051631e4fbdf760e01b81525f60048201526024015b60405180910390fd5b6200016f81620001ce565b5060046200017e838262000435565b5060056200018d828262000435565b50505062000559565b5f602083511015620001b557620001ad83620001ec565b9050620001c8565b81620001c2848262000435565b5060ff90505b92915050565b600380546001600160a01b0319169055620001e9816200022e565b50565b5f80829050601f8151111562000219578260405163305a27a960e01b81526004016200015b919062000501565b8051620002268262000535565b179392505050565b600280546001600160a01b038381166001600160a01b0319831681179093556040519116919082907f8be0079c531659141344cd1fd0a4f28419497f9722a3daafe3b4186f6b6457e0905f90a35050565b634e487b7160e01b5f52604160045260245ffd5b5f5b83811015620002af57818101518382015260200162000295565b50505f910152565b5f82601f830112620002c7575f80fd5b81516001600160401b0380821115620002e457620002e46200027f565b604051601f8301601f19908116603f011681019082821181831017156200030f576200030f6200027f565b8160405283815286602085880101111562000328575f80fd5b6200033b84602083016020890162000293565b9695505050505050565b5f806040838503121562000357575f80fd5b82516001600160401b03808211156200036e575f80fd5b6200037c86838701620002b7565b9350602085015191508082111562000392575f80fd5b50620003a185828601620002b7565b9150509250929050565b600181811c90821680620003c057607f821691505b602082108103620003df57634e487b7160e01b5f52602260045260245ffd5b50919050565b601f8211156200043057805f5260205f20601f840160051c810160208510156200040c5750805b601f840160051c820191505b818110156200042d575f815560010162000418565b50505b505050565b81516001600160401b038111156200045157620004516200027f565b6200046981620004628454620003ab565b84620003e5565b602080601f8311600181146200049f575f8415620004875750858301515b5f19600386901b1c1916600185901b178555620004f9565b5f85815260208120601f198616915b82811015620004cf57888601518255948401946001909101908401620004ae565b5085821015620004ed57878501515f19600388901b60f8161c191681555b505060018460011b0185555b505050505050565b602081525f82518060208401526200052181604085016020870162000293565b601f01601f19169190910160400192915050565b80516020808301519190811015620003df575f1960209190910360031b1b16919050565b60805160a05160c05160e051610100516101205161014051611b49620005ab5f395f610cf601525f610cc501525f610f1801525f610ef001525f610e4b01525f610e7501525f610e9f0152611b495ff3fe608060405234801561000f575f80fd5b5060043610610149575f3560e01c80636934c747116100c757806395d89b411161007d578063a9059cbb11610063578063a9059cbb146102a7578063e30c3978146102ba578063f2fde38b146102cb575f80fd5b806395d89b411461028c578063a71bbebe14610294575f80fd5b806379ba5097116100ad57806379ba50971461024457806384b0196e1461024c5780638da5cb5b14610267575f80fd5b80636934c74714610227578063715018a61461023a575f80fd5b806323b872dd1161011c578063313ce56711610102578063313ce567146101e857806332cbfb07146102015780634997266314610214575f80fd5b806323b872dd146101c257806329723511146101d5575f80fd5b8063014647f41461014d57806306fdde0314610175578063095ea7b31461018a57806318160ddd1461019d575b5f80fd5b61016061015b3660046116e3565b6102de565b60405190151581526020015b60405180910390f35b61017d61032e565b60405161016c919061177f565b610160610198366004611791565b6103be565b600354600160a01b900463ffffffff1660405163ffffffff909116815260200161016c565b6101606101d03660046117b9565b61041b565b6101606101e33660046116e3565b610443565b6101ef5f81565b60405160ff909116815260200161016c565b61017d61020f3660046117f2565b610486565b61016061022236600461185c565b6105ed565b61017d6102353660046118b9565b610631565b610242610790565b005b6102426107a3565b6102546107e7565b60405161016c97969594939291906118f7565b6002546001600160a01b03165b6040516001600160a01b03909116815260200161016c565b61017d610829565b6102426102a236600461198e565b610838565b6101606102b5366004611791565b610945565b6003546001600160a01b0316610274565b6102426102d93660046119b1565b610979565b5f6103218461019885858080601f0160208091040260200160405190810160405280939291908181526020018383808284375f920191909152506109f792505050565b50600190505b9392505050565b60606004805461033d906119ca565b80601f0160208091040260200160405190810160405280929190818152602001828054610369906119ca565b80156103b45780601f1061038b576101008083540402835291602001916103b4565b820191905f5260205f20905b81548152906001019060200180831161039757829003601f168201915b5050505050905090565b335f8181526007602090815260408083206001600160a01b03871680855292528083208590555191929182907ff37f546c25e850257cc0c94f92bec94a17e2f0e884ddda268a25d8144b70eb6a908590a360019150505b92915050565b5f3381610429868386610a03565b905061043786868684610aa1565b50600195945050505050565b5f610321846102b585858080601f0160208091040260200160405190810160405280939291908181526020018383808284375f920191909152506109f792505050565b60608383838080601f0160208091040260200160405190810160405280939291908181526020018383808284375f920182905250604080517f051d137ae0e1fae6e3b6559fed4442b35a85a9a39789838ad5c9ea05e7da2dce6020820152908101879052909350610513925060600190505b60405160208183030381529060405280519060200120610b67565b90505f6105208284610b93565b90506001600160a01b03811633146105a55760405162461bcd60e51b815260206004820152603160248201527f454950373132207369676e657220616e64207472616e73616374696f6e20736960448201527f676e657220646f206e6f74206d6174636800000000000000000000000000000060648201526084015b60405180910390fd5b6001600160a01b038a163314806105c457506001600160a01b03891633145b6105cc575f80fd5b6105df6105d98b8b610bbb565b89610c22565b9a9950505050505050505050565b5f61043785856101d086868080601f0160208091040260200160405190810160405280939291908181526020018383808284375f920191909152506109f792505050565b60608383838080601f0160208091040260200160405190810160405280939291908181526020018383808284375f920182905250604080517f051d137ae0e1fae6e3b6559fed4442b35a85a9a39789838ad5c9ea05e7da2dce60208201529081018790529093506106a7925060600190506104f8565b90505f6106b48284610b93565b90506001600160a01b03811633146107345760405162461bcd60e51b815260206004820152603160248201527f454950373132207369676e657220616e64207472616e73616374696f6e20736960448201527f676e657220646f206e6f74206d61746368000000000000000000000000000000606482015260840161059c565b336001600160a01b038a160361076e576001600160a01b0389165f90815260066020526040812054610767918a90610c2e565b9450610784565b61078161077a5f610c5f565b895f610c2e565b94505b50505050949350505050565b610798610c6b565b6107a15f610c98565b565b60035433906001600160a01b031681146107db5760405163118cdaa760e01b81526001600160a01b038216600482015260240161059c565b6107e481610c98565b50565b5f6060805f805f60606107f8610cbe565b610800610cef565b604080515f80825260208201909252600f60f81b9b939a50919850469750309650945092509050565b60606005805461033d906119ca565b610840610c6b565b61087e60065f6108586002546001600160a01b031690565b6001600160a01b03166001600160a01b031681526020019081526020015f205482610d1c565b60065f6108936002546001600160a01b031690565b6001600160a01b0316815260208101919091526040015f20556003546108c7908290600160a01b900463ffffffff16611a16565b600380547fffffffffffffffff00000000ffffffffffffffffffffffffffffffffffffffff16600160a01b63ffffffff93841602179055600254604080519284168352516001600160a01b03909116917f3e5818968bcdc7c820f0f44b24095a2e03c5411ad461dcb4f3528629389b0f8c919081900360200190a250565b335f908152600660205260408120548190610961908490610d40565b905061096f33858584610aa1565b5060019392505050565b610981610c6b565b600380546001600160a01b03831673ffffffffffffffffffffffffffffffffffffffff1990911681179091556109bf6002546001600160a01b031690565b6001600160a01b03167f38d16b8cac22d99fc7c124b9cd0de2d3fa1faef420bfe791d8c362d765e2270060405160405180910390a350565b5f610415826002610d77565b5f80610a0f8585610bbb565b90505f610a1c8483610d40565b6001600160a01b0387165f9081526006602052604081205491925090610a43908690610d40565b90505f610a508284610e0a565b9050610a968888610a6b84610a65898c610e1d565b89610e28565b6001600160a01b039283165f9081526007602090815260408083209490951682529290925291902055565b979650505050505050565b6001600160a01b0383165f90815260066020526040812054610ad891610ad39084908690610ace90610c5f565b610e28565b610e34565b6001600160a01b038085165f9081526006602052604080822093909355908616815290812054610b1891610b139084908690610ace90610c5f565b610e1d565b6001600160a01b038086165f818152600660205260408082209490945592519186169290917f4853ae1b4d437c4255ac16cd3ceda3465975023f27cb141584cd9d44440fed829190a350505050565b5f610415610b73610e3f565b8360405161190160f01b8152600281019290925260228201526042902090565b5f805f80610ba18686610f68565b925092509250610bb18282610fb1565b5090949350505050565b6001600160a01b038281165f90815260076020908152604080832093851683529290529081205415610c1257506001600160a01b038083165f90815260076020908152604080832093851683529290522054610415565b610c1b5f610c5f565b9050610415565b6060610327838361106d565b60608315610c4757610c40848461106d565b9050610327565b610c40610c598363ffffffff16610c5f565b8461106d565b5f6104158260026110d8565b6002546001600160a01b031633146107a15760405163118cdaa760e01b815233600482015260240161059c565b6003805473ffffffffffffffffffffffffffffffffffffffff191690556107e48161114e565b6060610cea7f00000000000000000000000000000000000000000000000000000000000000005f6111ac565b905090565b6060610cea7f000000000000000000000000000000000000000000000000000000000000000060016111ac565b5f82610d2e57610d2b5f610c5f565b92505b610327838363ffffffff16600161124e565b5f82610d5257610d4f5f610c5f565b92505b81610d6357610d605f610c5f565b91505b610327610d7184845f6112e4565b5f611336565b5f80838360f81b604051602001610d8f929190611a46565b60408051601f1981840301815290829052630964a5d960e31b82529150605d90634b252ec890610dc390849060040161177f565b602060405180830381865afa158015610dde573d5f803e3d5ffd5b505050506040513d601f19601f82011682018060405250810190610e029190611a74565b949350505050565b5f610327610e188484611371565b61139e565b5f61032783836113a9565b5f610e028484846113d7565b5f6103278383611422565b5f306001600160a01b037f000000000000000000000000000000000000000000000000000000000000000016148015610e9757507f000000000000000000000000000000000000000000000000000000000000000046145b15610ec157507f000000000000000000000000000000000000000000000000000000000000000090565b610cea604080517f8b73c3c69bb8fe3d512ecc4cf759cc79239f7b179b0ffacaa9a75d522b39400f60208201527f0000000000000000000000000000000000000000000000000000000000000000918101919091527f000000000000000000000000000000000000000000000000000000000000000060608201524660808201523060a08201525f9060c00160405160208183030381529060405280519060200120905090565b5f805f8351604103610f9f576020840151604085015160608601515f1a610f9188828585611450565b955095509550505050610faa565b505081515f91506002905b9250925092565b5f826003811115610fc457610fc4611a8b565b03610fcd575050565b6001826003811115610fe157610fe1611a8b565b03610fff5760405163f645eedf60e01b815260040160405180910390fd5b600282600381111561101357611013611a8b565b036110345760405163fce698f760e01b81526004810182905260240161059c565b600382600381111561104857611048611a8b565b03611069576040516335e2f38360e21b81526004810182905260240161059c565b5050565b60405163d6ad57cd60e01b81526004810183905260248101829052606090605d9063d6ad57cd906044015f60405180830381865afa1580156110b1573d5f803e3d5ffd5b505050506040513d5f823e601f3d908101601f191682016040526103279190810190611a9f565b604051631ce2e8d760e31b8152600481018390526001600160f81b031960f883901b1660248201525f90605d9063e71746b8906044015b602060405180830381865afa15801561112a573d5f803e3d5ffd5b505050506040513d601f19601f820116820180604052508101906103279190611a74565b600280546001600160a01b0383811673ffffffffffffffffffffffffffffffffffffffff19831681179093556040519116919082907f8be0079c531659141344cd1fd0a4f28419497f9722a3daafe3b4186f6b6457e0905f90a35050565b606060ff83146111bf57610c1b83611518565b8180546111cb906119ca565b80601f01602080910402602001604051908101604052809291908181526020018280546111f7906119ca565b80156112425780601f1061121957610100808354040283529160200191611242565b820191905f5260205f20905b81548152906001019060200180831161122557829003601f168201915b50505050509050610415565b5f8082156112615750600160f81b611264565b505f5b60405163f953e42760e01b815260048101869052602481018590526001600160f81b031982166044820152605d9063f953e427906064015b602060405180830381865afa1580156112b7573d5f803e3d5ffd5b505050506040513d601f19601f820116820180604052508101906112db9190611a74565b95945050505050565b5f8082156112f75750600160f81b6112fa565b505f5b6040516334a6d7b960e11b815260048101869052602481018590526001600160f81b031982166044820152605d9063694daf729060640161129c565b60405163025f346960e51b8152600481018390526001600160f81b031960f883901b1660248201525f90605d90634be68d209060440161110f565b5f82611383576113805f611555565b92505b81611394576113915f611555565b91505b6103278383611560565b5f610415825f611597565b5f826113bb576113b85f610c5f565b92505b816113cc576113c95f610c5f565b91505b61032783835f6115b8565b60405163cb3b940760e01b81526004810184905260248101839052604481018290525f90605d9063cb3b940790606401602060405180830381865afa158015610dde573d5f803e3d5ffd5b5f82611434576114315f610c5f565b92505b81611445576114425f610c5f565b91505b61032783835f61124e565b5f80807f7fffffffffffffffffffffffffffffff5d576e7357a4501ddfe92f46681b20a084111561148957505f9150600390508261150e565b604080515f808252602082018084528a905260ff891692820192909252606081018790526080810186905260019060a0016020604051602081039080840390855afa1580156114da573d5f803e3d5ffd5b5050604051601f1901519150506001600160a01b03811661150557505f92506001915082905061150e565b92505f91508190505b9450945094915050565b60605f6115248361160a565b6040805160208082528183019092529192505f91906020820181803683375050509182525060208101929092525090565b5f610415825f6110d8565b604051630ccd46b160e31b815260048101839052602481018290525f60448201819052908190605d9063666a358890606401610dc3565b5f826115a9576115a65f611555565b92505b610327838360ff166001611631565b5f8082156115cb5750600160f81b6115ce565b505f5b604051638c14cc2160e01b815260048101869052602481018590526001600160f81b031982166044820152605d90638c14cc219060640161129c565b5f60ff8216601f81111561041557604051632cd44ac360e21b815260040160405180910390fd5b5f8082156116445750600160f81b611647565b505f5b604051631927108160e01b815260048101869052602481018590526001600160f81b031982166044820152605d9063192710819060640161129c565b80356001600160a01b0381168114611699575f80fd5b919050565b5f8083601f8401126116ae575f80fd5b50813567ffffffffffffffff8111156116c5575f80fd5b6020830191508360208285010111156116dc575f80fd5b9250929050565b5f805f604084860312156116f5575f80fd5b6116fe84611683565b9250602084013567ffffffffffffffff811115611719575f80fd5b6117258682870161169e565b9497909650939450505050565b5f5b8381101561174c578181015183820152602001611734565b50505f910152565b5f815180845261176b816020860160208601611732565b601f01601f19169290920160200192915050565b602081525f6103276020830184611754565b5f80604083850312156117a2575f80fd5b6117ab83611683565b946020939093013593505050565b5f805f606084860312156117cb575f80fd5b6117d484611683565b92506117e260208501611683565b9150604084013590509250925092565b5f805f805f60808688031215611806575f80fd5b61180f86611683565b945061181d60208701611683565b935060408601359250606086013567ffffffffffffffff81111561183f575f80fd5b61184b8882890161169e565b969995985093965092949392505050565b5f805f806060858703121561186f575f80fd5b61187885611683565b935061188660208601611683565b9250604085013567ffffffffffffffff8111156118a1575f80fd5b6118ad8782880161169e565b95989497509550505050565b5f805f80606085870312156118cc575f80fd5b6118d585611683565b935060208501359250604085013567ffffffffffffffff8111156118a1575f80fd5b60ff60f81b881681525f602060e0602084015261191760e084018a611754565b8381036040850152611929818a611754565b606085018990526001600160a01b038816608086015260a0850187905284810360c0860152855180825260208088019350909101905f5b8181101561197c57835183529284019291840191600101611960565b50909c9b505050505050505050505050565b5f6020828403121561199e575f80fd5b813563ffffffff81168114610327575f80fd5b5f602082840312156119c1575f80fd5b61032782611683565b600181811c908216806119de57607f821691505b6020821081036119fc57634e487b7160e01b5f52602260045260245ffd5b50919050565b634e487b7160e01b5f52604160045260245ffd5b63ffffffff818116838216019080821115611a3f57634e487b7160e01b5f52601160045260245ffd5b5092915050565b5f8351611a57818460208801611732565b6001600160f81b0319939093169190920190815260010192915050565b5f60208284031215611a84575f80fd5b5051919050565b634e487b7160e01b5f52602160045260245ffd5b5f60208284031215611aaf575f80fd5b815167ffffffffffffffff80821115611ac6575f80fd5b818401915084601f830112611ad9575f80fd5b815181811115611aeb57611aeb611a02565b604051601f8201601f19908116603f01168101908382118183101715611b1357611b13611a02565b81604052828152876020848701011115611b2b575f80fd5b610a9683602083016020880161173256fea164736f6c6343000816000a",
  "linkReferences": {},
  "deployedLinkReferences": {}
}