{
  "_format": "hh-sol-artifact-1",
  "contractName": "EncryptedERC20",
  "sourceName": "examples/EncryptedERC20.sol",
  "abi": [
    {
      "inputs": [],
      "stateMutability": "nonpayable",
      "type": "constructor"
    },
    {
      "inputs": [],
      "name": "InvalidShortString",
      "type": "error"
    },
    {
      "inputs": [
        {
          "internalType": "string",
          "name": "str",
          "type": "string"
        }
      ],
      "name": "StringTooLong",
      "type": "error"
    },
    {
      "anonymous": false,
      "inputs": [],
      "name": "EIP712DomainChanged",
      "type": "event"
    },
    {
      "inputs": [
        {
          "internalType": "address",
          "name": "spender",
          "type": "address"
        },
        {
          "internalType": "bytes32",
          "name": "publicKey",
          "type": "bytes32"
        },
        {
          "internalType": "bytes",
          "name": "signature",
          "type": "bytes"
        }
      ],
      "name": "allowance",
      "outputs": [
        {
          "internalType": "bytes",
          "name": "",
          "type": "bytes"
        }
      ],
      "stateMutability": "view",
      "type": "function"
    },
    {
      "inputs": [
        {
          "internalType": "address",
          "name": "spender",
          "type": "address"
        },
        {
          "internalType": "bytes",
          "name": "encryptedAmount",
          "type": "bytes"
        }
      ],
      "name": "approve",
      "outputs": [],
      "stateMutability": "nonpayable",
      "type": "function"
    },
    {
      "inputs": [
        {
          "internalType": "bytes32",
          "name": "publicKey",
          "type": "bytes32"
        },
        {
          "internalType": "bytes",
          "name": "signature",
          "type": "bytes"
        }
      ],
      "name": "balanceOf",
      "outputs": [
        {
          "internalType": "bytes",
          "name": "",
          "type": "bytes"
        }
      ],
      "stateMutability": "view",
      "type": "function"
    },
    {
      "inputs": [],
      "name": "decimals",
      "outputs": [
        {
          "internalType": "uint8",
          "name": "",
          "type": "uint8"
        }
      ],
      "stateMutability": "view",
      "type": "function"
    },
    {
      "inputs": [],
      "name": "eip712Domain",
      "outputs": [
        {
          "internalType": "bytes1",
          "name": "fields",
          "type": "bytes1"
        },
        {
          "internalType": "string",
          "name": "name",
          "type": "string"
        },
        {
          "internalType": "string",
          "name": "version",
          "type": "string"
        },
        {
          "internalType": "uint256",
          "name": "chainId",
          "type": "uint256"
        },
        {
          "internalType": "address",
          "name": "verifyingContract",
          "type": "address"
        },
        {
          "internalType": "bytes32",
          "name": "salt",
          "type": "bytes32"
        },
        {
          "internalType": "uint256[]",
          "name": "extensions",
          "type": "uint256[]"
        }
      ],
      "stateMutability": "view",
      "type": "function"
    },
    {
      "inputs": [
        {
          "internalType": "bytes32",
          "name": "publicKey",
          "type": "bytes32"
        },
        {
          "internalType": "bytes",
          "name": "signature",
          "type": "bytes"
        }
      ],
      "name": "getTotalSupply",
      "outputs": [
        {
          "internalType": "bytes",
          "name": "",
          "type": "bytes"
        }
      ],
      "stateMutability": "view",
      "type": "function"
    },
    {
      "inputs": [
        {
          "internalType": "bytes",
          "name": "encryptedAmount",
          "type": "bytes"
        }
      ],
      "name": "mint",
      "outputs": [],
      "stateMutability": "nonpayable",
      "type": "function"
    },
    {
      "inputs": [],
      "name": "name",
      "outputs": [
        {
          "internalType": "string",
          "name": "",
          "type": "string"
        }
      ],
      "stateMutability": "view",
      "type": "function"
    },
    {
      "inputs": [],
      "name": "symbol",
      "outputs": [
        {
          "internalType": "string",
          "name": "",
          "type": "string"
        }
      ],
      "stateMutability": "view",
      "type": "function"
    },
    {
      "inputs": [
        {
          "internalType": "address",
          "name": "to",
          "type": "address"
        },
        {
          "internalType": "bytes",
          "name": "encryptedAmount",
          "type": "bytes"
        }
      ],
      "name": "transfer",
      "outputs": [],
      "stateMutability": "nonpayable",
      "type": "function"
    },
    {
      "inputs": [
        {
          "internalType": "address",
          "name": "to",
          "type": "address"
        },
        {
          "internalType": "euint32",
          "name": "amount",
          "type": "uint256"
        }
      ],
      "name": "transfer",
      "outputs": [],
      "stateMutability": "nonpayable",
      "type": "function"
    },
    {
      "inputs": [
        {
          "internalType": "address",
          "name": "from",
          "type": "address"
        },
        {
          "internalType": "address",
          "name": "to",
          "type": "address"
        },
        {
          "internalType": "euint32",
          "name": "amount",
          "type": "uint256"
        }
      ],
      "name": "transferFrom",
      "outputs": [],
      "stateMutability": "nonpayable",
      "type": "function"
    },
    {
      "inputs": [
        {
          "internalType": "address",
          "name": "from",
          "type": "address"
        },
        {
          "internalType": "address",
          "name": "to",
          "type": "address"
        },
        {
          "internalType": "bytes",
          "name": "encryptedAmount",
          "type": "bytes"
        }
      ],
      "name": "transferFrom",
      "outputs": [],
      "stateMutability": "nonpayable",
      "type": "function"
    }
  ],
  "bytecode": "0x6101606040523480156200001257600080fd5b506040518060400160405280601381526020017f417574686f72697a6174696f6e20746f6b656e000000000000000000000000008152506040518060400160405280600181526020017f310000000000000000000000000000000000000000000000000000000000000081525081816200009c6000836200018460201b62000b531790919060201c565b6101208181525050620000bf6001826200018460201b62000b531790919060201c565b6101408181525050818051906020012060e08181525050808051906020012061010081815250504660a08181525050620000fe620001e160201b60201c565b608081815250503073ffffffffffffffffffffffffffffffffffffffff1660c08173ffffffffffffffffffffffffffffffffffffffff16815250505050505033600660006101000a81548173ffffffffffffffffffffffffffffffffffffffff021916908373ffffffffffffffffffffffffffffffffffffffff16021790555062000839565b6000602083511015620001aa57620001a2836200023e60201b60201c565b9050620001db565b82620001c183620002ab60201b62000b971760201c565b6000019081620001d291906200052f565b5060ff60001b90505b92915050565b60007f8b73c3c69bb8fe3d512ecc4cf759cc79239f7b179b0ffacaa9a75d522b39400f60e0516101005146306040516020016200022395949392919062000687565b60405160208183030381529060405280519060200120905090565b600080829050601f815111156200028e57826040517f305a27a900000000000000000000000000000000000000000000000000000000815260040162000285919062000773565b60405180910390fd5b8051816200029c90620007c9565b60001c1760001b915050919050565b6000819050919050565b600081519050919050565b7f4e487b7100000000000000000000000000000000000000000000000000000000600052604160045260246000fd5b7f4e487b7100000000000000000000000000000000000000000000000000000000600052602260045260246000fd5b600060028204905060018216806200033757607f821691505b6020821081036200034d576200034c620002ef565b5b50919050565b60008190508160005260206000209050919050565b60006020601f8301049050919050565b600082821b905092915050565b600060088302620003b77fffffffffffffffffffffffffffffffffffffffffffffffffffffffffffffffff8262000378565b620003c3868362000378565b95508019841693508086168417925050509392505050565b6000819050919050565b6000819050919050565b6000620004106200040a6200040484620003db565b620003e5565b620003db565b9050919050565b6000819050919050565b6200042c83620003ef565b620004446200043b8262000417565b84845462000385565b825550505050565b600090565b6200045b6200044c565b6200046881848462000421565b505050565b5b8181101562000490576200048460008262000451565b6001810190506200046e565b5050565b601f821115620004df57620004a98162000353565b620004b48462000368565b81016020851015620004c4578190505b620004dc620004d38562000368565b8301826200046d565b50505b505050565b600082821c905092915050565b60006200050460001984600802620004e4565b1980831691505092915050565b60006200051f8383620004f1565b9150826002028217905092915050565b6200053a82620002b5565b67ffffffffffffffff811115620005565762000555620002c0565b5b6200056282546200031e565b6200056f82828562000494565b600060209050601f831160018114620005a7576000841562000592578287015190505b6200059e858262000511565b8655506200060e565b601f198416620005b78662000353565b60005b82811015620005e157848901518255600182019150602085019450602081019050620005ba565b86831015620006015784890151620005fd601f891682620004f1565b8355505b6001600288020188555050505b505050505050565b6000819050919050565b6200062b8162000616565b82525050565b6200063c81620003db565b82525050565b600073ffffffffffffffffffffffffffffffffffffffff82169050919050565b60006200066f8262000642565b9050919050565b620006818162000662565b82525050565b600060a0820190506200069e600083018862000620565b620006ad602083018762000620565b620006bc604083018662000620565b620006cb606083018562000631565b620006da608083018462000676565b9695505050505050565b600082825260208201905092915050565b60005b8381101562000715578082015181840152602081019050620006f8565b60008484015250505050565b6000601f19601f8301169050919050565b60006200073f82620002b5565b6200074b8185620006e4565b93506200075d818560208601620006f5565b620007688162000721565b840191505092915050565b600060208201905081810360008301526200078f818462000732565b905092915050565b600081519050919050565b6000819050602082019050919050565b6000620007c0825162000616565b80915050919050565b6000620007d68262000797565b82620007e284620007a2565b9050620007ef81620007b2565b9250602082101562000832576200082d7fffffffffffffffffffffffffffffffffffffffffffffffffffffffffffffffff8360200360080262000378565b831692505b5050919050565b60805160a05160c05160e0516101005161012051610140516128bd62000894600039600061073901526000610705015260006118700152600061184f01526000611160015260006111b6015260006111df01526128bd6000f3fe608060405234801561001057600080fd5b50600436106100cf5760003560e01c80637b7c65c91161008c5780638ff9e2f5116100665780638ff9e2f5146101f057806395d89b4114610220578063a9059cbb1461023e578063b6ce514b1461025a576100cf565b80637b7c65c9146101805780637ba0e2e7146101b057806384b0196e146101cc576100cf565b8063014647f4146100d457806306fdde03146100f057806323b872dd1461010e578063297235111461012a578063313ce567146101465780634997266314610164575b600080fd5b6100ee60048036038101906100e99190611b03565b61028a565b005b6100f86102ec565b6040516101059190611bf3565b60405180910390f35b61012860048036038101906101239190611c4b565b610325565b005b610144600480360381019061013f9190611b03565b610346565b005b61014e6103a1565b60405161015b9190611cba565b60405180910390f35b61017e60048036038101906101799190611cd5565b6103a6565b005b61019a60048036038101906101959190611d7f565b610403565b6040516101a79190611e34565b60405180910390f35b6101ca60048036038101906101c59190611e56565b610560565b005b6101d46106f2565b6040516101e79796959493929190611fc9565b60405180910390f35b61020a60048036038101906102059190611d7f565b6107f4565b6040516102179190611e34565b60405180910390f35b6102286109cb565b6040516102359190611bf3565b60405180910390f35b6102586004803603810190610253919061204d565b610a04565b005b610274600480360381019061026f919061208d565b610a13565b6040516102819190611e34565b60405180910390f35b60003390506102e681856102e186868080601f016020809104026020016040519081016040528093929190818152602001838380828437600081840152601f19601f82011690508083019250505050505050610ba1565b610bb5565b50505050565b6040518060400160405280600981526020017f4e6172616767617261000000000000000000000000000000000000000000000081525081565b6000339050610335848284610c3b565b610340848484610c75565b50505050565b61039c8361039784848080601f016020809104026020016040519081016040528093929190818152602001838380828437600081840152601f19601f82011690508083019250505050505050610ba1565b610a04565b505050565b601281565b6103fd84846103f885858080601f016020809104026020016040519081016040528093929190818152602001838380828437600081840152601f19601f82011690508083019250505050505050610ba1565b610325565b50505050565b60608383838080601f016020809104026020016040519081016040528093929190818152602001838380828437600081840152601f19601f82011690508083019250505050505050600061049e7f051d137ae0e1fae6e3b6559fed4442b35a85a9a39789838ad5c9ea05e7da2dce84604051602001610483929190612101565b60405160208183030381529060405280519060200120610de3565b905060006104ac8284610dfd565b90503373ffffffffffffffffffffffffffffffffffffffff168173ffffffffffffffffffffffffffffffffffffffff161461051c576040517f08c379a00000000000000000000000000000000000000000000000000000000081526004016105139061219c565b60405180910390fd5b610527600254610e24565b1561053f5761053860025489610e31565b9450610555565b61055261054c6000610e45565b89610e31565b94505b505050509392505050565b600660009054906101000a900473ffffffffffffffffffffffffffffffffffffffff1673ffffffffffffffffffffffffffffffffffffffff163373ffffffffffffffffffffffffffffffffffffffff16146105ba57600080fd5b600061060983838080601f016020809104026020016040519081016040528093929190818152602001838380828437600081840152601f19601f82011690508083019250505050505050610ba1565b905061067660046000600660009054906101000a900473ffffffffffffffffffffffffffffffffffffffff1673ffffffffffffffffffffffffffffffffffffffff1673ffffffffffffffffffffffffffffffffffffffff1681526020019081526020016000205482610e59565b60046000600660009054906101000a900473ffffffffffffffffffffffffffffffffffffffff1673ffffffffffffffffffffffffffffffffffffffff1673ffffffffffffffffffffffffffffffffffffffff168152602001908152602001600020819055506106e760025482610e59565b600281905550505050565b60006060806000806000606061073260007f0000000000000000000000000000000000000000000000000000000000000000610e6d90919063ffffffff16565b61076660017f0000000000000000000000000000000000000000000000000000000000000000610e6d90919063ffffffff16565b46306000801b600067ffffffffffffffff811115610787576107866121bc565b5b6040519080825280602002602001820160405280156107b55781602001602082028036833780820191505090505b507f0f00000000000000000000000000000000000000000000000000000000000000959493929190965096509650965096509650965090919293949596565b60608383838080601f016020809104026020016040519081016040528093929190818152602001838380828437600081840152601f19601f82011690508083019250505050505050600061088f7f051d137ae0e1fae6e3b6559fed4442b35a85a9a39789838ad5c9ea05e7da2dce84604051602001610874929190612101565b60405160208183030381529060405280519060200120610de3565b9050600061089d8284610dfd565b90503373ffffffffffffffffffffffffffffffffffffffff168173ffffffffffffffffffffffffffffffffffffffff161461090d576040517f08c379a00000000000000000000000000000000000000000000000000000000081526004016109049061219c565b60405180910390fd5b610955600460003373ffffffffffffffffffffffffffffffffffffffff1673ffffffffffffffffffffffffffffffffffffffff16815260200190815260200160002054610e24565b156109aa576109a3600460003373ffffffffffffffffffffffffffffffffffffffff1673ffffffffffffffffffffffffffffffffffffffff1681526020019081526020016000205489610e31565b94506109c0565b6109bd6109b76000610e45565b89610e31565b94505b505050509392505050565b6040518060400160405280600481526020017f4e4152410000000000000000000000000000000000000000000000000000000081525081565b610a0f338383610c75565b5050565b60608383838080601f016020809104026020016040519081016040528093929190818152602001838380828437600081840152601f19601f820116905080830192505050505050506000610aae7f051d137ae0e1fae6e3b6559fed4442b35a85a9a39789838ad5c9ea05e7da2dce84604051602001610a93929190612101565b60405160208183030381529060405280519060200120610de3565b90506000610abc8284610dfd565b90503373ffffffffffffffffffffffffffffffffffffffff168173ffffffffffffffffffffffffffffffffffffffff1614610b2c576040517f08c379a0000000000000000000000000000000000000000000000000000000008152600401610b239061219c565b60405180910390fd5b6000339050610b44610b3e828c610f1d565b8a610e31565b95505050505050949350505050565b6000602083511015610b6f57610b6883611040565b9050610b91565b82610b7983610b97565b6000019081610b8891906123f7565b5060ff60001b90505b92915050565b6000819050919050565b6000610bae8260026110a8565b9050919050565b80600560008573ffffffffffffffffffffffffffffffffffffffff1673ffffffffffffffffffffffffffffffffffffffff16815260200190815260200160002060008473ffffffffffffffffffffffffffffffffffffffff1673ffffffffffffffffffffffffffffffffffffffff16815260200190815260200160002081905550505050565b6000610c478484610f1d565b9050610c5b610c568383611128565b61113c565b610c6f8484610c6a8486611148565b610bb5565b50505050565b610cc6610cc182600460008773ffffffffffffffffffffffffffffffffffffffff1673ffffffffffffffffffffffffffffffffffffffff16815260200190815260200160002054611128565b61113c565b610d0f600460008473ffffffffffffffffffffffffffffffffffffffff1673ffffffffffffffffffffffffffffffffffffffff1681526020019081526020016000205482610e59565b600460008473ffffffffffffffffffffffffffffffffffffffff1673ffffffffffffffffffffffffffffffffffffffff16815260200190815260200160002081905550610d9b600460008573ffffffffffffffffffffffffffffffffffffffff1673ffffffffffffffffffffffffffffffffffffffff1681526020019081526020016000205482611148565b600460008573ffffffffffffffffffffffffffffffffffffffff1673ffffffffffffffffffffffffffffffffffffffff16815260200190815260200160002081905550505050565b6000610df6610df061115c565b83611213565b9050919050565b6000806000610e0c8585611254565b91509150610e19816112a5565b819250505092915050565b6000808214159050919050565b6060610e3d838361140b565b905092915050565b6000610e528260026114ca565b9050919050565b6000610e65838361154d565b905092915050565b606060ff60001b8314610e8a57610e838361160c565b9050610f17565b818054610e969061221a565b80601f0160208091040260200160405190810160405280929190818152602001828054610ec29061221a565b8015610f0f5780601f10610ee457610100808354040283529160200191610f0f565b820191906000526020600020905b815481529060010190602001808311610ef257829003601f168201915b505050505090505b92915050565b6000610fa4600560008573ffffffffffffffffffffffffffffffffffffffff1673ffffffffffffffffffffffffffffffffffffffff16815260200190815260200160002060008473ffffffffffffffffffffffffffffffffffffffff1673ffffffffffffffffffffffffffffffffffffffff16815260200190815260200160002054610e24565b1561102d57600560008473ffffffffffffffffffffffffffffffffffffffff1673ffffffffffffffffffffffffffffffffffffffff16815260200190815260200160002060008373ffffffffffffffffffffffffffffffffffffffff1673ffffffffffffffffffffffffffffffffffffffff16815260200190815260200160002054905061103a565b6110376000610e45565b90505b92915050565b600080829050601f8151111561108d57826040517f305a27a90000000000000000000000000000000000000000000000000000000081526004016110849190611bf3565b60405180910390fd5b805181611099906124ee565b60001c1760001b915050919050565b600080838360f81b6040516020016110c19291906125b2565b60405160208183030381529060405290506000815190506110e06119f2565b60006020905060006042905081838560208801845afa6110ff57600080fd5b82600060018110611113576111126125da565b5b602002015160001c9550505050505092915050565b60006111348383611680565b905092915050565b6111458161171f565b50565b6000611154838361176b565b905092915050565b60007f000000000000000000000000000000000000000000000000000000000000000073ffffffffffffffffffffffffffffffffffffffff163073ffffffffffffffffffffffffffffffffffffffff161480156111d857507f000000000000000000000000000000000000000000000000000000000000000046145b15611205577f00000000000000000000000000000000000000000000000000000000000000009050611210565b61120d61182a565b90505b90565b60006040517f190100000000000000000000000000000000000000000000000000000000000081528360028201528260228201526042812091505092915050565b60008060418351036112955760008060006020860151925060408601519150606086015160001a9050611289878285856118c0565b9450945050505061129e565b60006002915091505b9250929050565b600060048111156112b9576112b8612609565b5b8160048111156112cc576112cb612609565b5b031561140857600160048111156112e6576112e5612609565b5b8160048111156112f9576112f8612609565b5b03611339576040517f08c379a000000000000000000000000000000000000000000000000000000000815260040161133090612684565b60405180910390fd5b6002600481111561134d5761134c612609565b5b8160048111156113605761135f612609565b5b036113a0576040517f08c379a0000000000000000000000000000000000000000000000000000000008152600401611397906126f0565b60405180910390fd5b600360048111156113b4576113b3612609565b5b8160048111156113c7576113c6612609565b5b03611407576040517f08c379a00000000000000000000000000000000000000000000000000000000081526004016113fe90612782565b60405180910390fd5b5b50565b6060611415611a14565b8360001b8160006002811061142d5761142c6125da565b5b602002018181525050828160016002811061144b5761144a6125da565b5b602002018181525050600060409050605467ffffffffffffffff811115611475576114746121bc565b5b6040519080825280601f01601f1916602001820160405280156114a75781602001600182028036833780820191505090505b5092506000604390506054848385845afa6114c157600080fd5b50505092915050565b6000808360001b8360f81b6040516020016114e69291906127c3565b60405160208183030381529060405290506000815190506115056119f2565b6000602090506000604d905081838560208801845afa61152457600080fd5b82600060018110611538576115376125da565b5b602002015160001c9550505050505092915050565b600080830361155e57819050611606565b6000820361156e57829050611606565b611576611a14565b8360001b8160006002811061158e5761158d6125da565b5b6020020181815250508260001b816001600281106115af576115ae6125da565b5b6020020181815250506000604090506115c66119f2565b60006020905060006041905081838587845afa6115e257600080fd5b826000600181106115f6576115f56125da565b5b602002015160001c955050505050505b92915050565b60606000611619836119a2565b90506000602067ffffffffffffffff811115611638576116376121bc565b5b6040519080825280601f01601f19166020018201604052801561166a5781602001600182028036833780820191505090505b5090508181528360208201528092505050919050565b600061168a611a14565b8360001b816000600281106116a2576116a16125da565b5b6020020181815250508260001b816001600281106116c3576116c26125da565b5b6020020181815250506000604090506116da6119f2565b60006020905060006046905081838587845afa6116f657600080fd5b8260006001811061170a576117096125da565b5b602002015160001c9550505050505092915050565b6117276119f2565b8160001b8160006001811061173f5761173e6125da565b5b6020020181815250506000602090506000604590506000808385845afa61176557600080fd5b50505050565b600080830361177c57819050611824565b6000820361178c57829050611824565b611794611a14565b8360001b816000600281106117ac576117ab6125da565b5b6020020181815250508260001b816001600281106117cd576117cc6125da565b5b6020020181815250506000604090506117e46119f2565b60006020905060006047905081838587845afa61180057600080fd5b82600060018110611814576118136125da565b5b602002015160001c955050505050505b92915050565b60007f8b73c3c69bb8fe3d512ecc4cf759cc79239f7b179b0ffacaa9a75d522b39400f7f00000000000000000000000000000000000000000000000000000000000000007f000000000000000000000000000000000000000000000000000000000000000046306040516020016118a59594939291906127ef565b60405160208183030381529060405280519060200120905090565b6000807f7fffffffffffffffffffffffffffffff5d576e7357a4501ddfe92f46681b20a08360001c11156118fb576000600391509150611999565b6000600187878787604051600081526020016040526040516119209493929190612842565b6020604051602081039080840390855afa158015611942573d6000803e3d6000fd5b505050602060405103519050600073ffffffffffffffffffffffffffffffffffffffff168173ffffffffffffffffffffffffffffffffffffffff160361199057600060019250925050611999565b80600092509250505b94509492505050565b60008060ff8360001c169050601f8111156119e9576040517fb3512b0c00000000000000000000000000000000000000000000000000000000815260040160405180910390fd5b80915050919050565b6040518060200160405280600190602082028036833780820191505090505090565b6040518060400160405280600290602082028036833780820191505090505090565b600080fd5b600080fd5b600073ffffffffffffffffffffffffffffffffffffffff82169050919050565b6000611a6b82611a40565b9050919050565b611a7b81611a60565b8114611a8657600080fd5b50565b600081359050611a9881611a72565b92915050565b600080fd5b600080fd5b600080fd5b60008083601f840112611ac357611ac2611a9e565b5b8235905067ffffffffffffffff811115611ae057611adf611aa3565b5b602083019150836001820283011115611afc57611afb611aa8565b5b9250929050565b600080600060408486031215611b1c57611b1b611a36565b5b6000611b2a86828701611a89565b935050602084013567ffffffffffffffff811115611b4b57611b4a611a3b565b5b611b5786828701611aad565b92509250509250925092565b600081519050919050565b600082825260208201905092915050565b60005b83811015611b9d578082015181840152602081019050611b82565b60008484015250505050565b6000601f19601f8301169050919050565b6000611bc582611b63565b611bcf8185611b6e565b9350611bdf818560208601611b7f565b611be881611ba9565b840191505092915050565b60006020820190508181036000830152611c0d8184611bba565b905092915050565b6000819050919050565b611c2881611c15565b8114611c3357600080fd5b50565b600081359050611c4581611c1f565b92915050565b600080600060608486031215611c6457611c63611a36565b5b6000611c7286828701611a89565b9350506020611c8386828701611a89565b9250506040611c9486828701611c36565b9150509250925092565b600060ff82169050919050565b611cb481611c9e565b82525050565b6000602082019050611ccf6000830184611cab565b92915050565b60008060008060608587031215611cef57611cee611a36565b5b6000611cfd87828801611a89565b9450506020611d0e87828801611a89565b935050604085013567ffffffffffffffff811115611d2f57611d2e611a3b565b5b611d3b87828801611aad565b925092505092959194509250565b6000819050919050565b611d5c81611d49565b8114611d6757600080fd5b50565b600081359050611d7981611d53565b92915050565b600080600060408486031215611d9857611d97611a36565b5b6000611da686828701611d6a565b935050602084013567ffffffffffffffff811115611dc757611dc6611a3b565b5b611dd386828701611aad565b92509250509250925092565b600081519050919050565b600082825260208201905092915050565b6000611e0682611ddf565b611e108185611dea565b9350611e20818560208601611b7f565b611e2981611ba9565b840191505092915050565b60006020820190508181036000830152611e4e8184611dfb565b905092915050565b60008060208385031215611e6d57611e6c611a36565b5b600083013567ffffffffffffffff811115611e8b57611e8a611a3b565b5b611e9785828601611aad565b92509250509250929050565b60007fff0000000000000000000000000000000000000000000000000000000000000082169050919050565b611ed881611ea3565b82525050565b611ee781611c15565b82525050565b611ef681611a60565b82525050565b611f0581611d49565b82525050565b600081519050919050565b600082825260208201905092915050565b6000819050602082019050919050565b611f4081611c15565b82525050565b6000611f528383611f37565b60208301905092915050565b6000602082019050919050565b6000611f7682611f0b565b611f808185611f16565b9350611f8b83611f27565b8060005b83811015611fbc578151611fa38882611f46565b9750611fae83611f5e565b925050600181019050611f8f565b5085935050505092915050565b600060e082019050611fde600083018a611ecf565b8181036020830152611ff08189611bba565b905081810360408301526120048188611bba565b90506120136060830187611ede565b6120206080830186611eed565b61202d60a0830185611efc565b81810360c083015261203f8184611f6b565b905098975050505050505050565b6000806040838503121561206457612063611a36565b5b600061207285828601611a89565b925050602061208385828601611c36565b9150509250929050565b600080600080606085870312156120a7576120a6611a36565b5b60006120b587828801611a89565b94505060206120c687828801611d6a565b935050604085013567ffffffffffffffff8111156120e7576120e6611a3b565b5b6120f387828801611aad565b925092505092959194509250565b60006040820190506121166000830185611efc565b6121236020830184611efc565b9392505050565b7f454950373132207369676e657220616e64207472616e73616374696f6e20736960008201527f676e657220646f206e6f74206d61746368000000000000000000000000000000602082015250565b6000612186603183611b6e565b91506121918261212a565b604082019050919050565b600060208201905081810360008301526121b581612179565b9050919050565b7f4e487b7100000000000000000000000000000000000000000000000000000000600052604160045260246000fd5b7f4e487b7100000000000000000000000000000000000000000000000000000000600052602260045260246000fd5b6000600282049050600182168061223257607f821691505b602082108103612245576122446121eb565b5b50919050565b60008190508160005260206000209050919050565b60006020601f8301049050919050565b600082821b905092915050565b6000600883026122ad7fffffffffffffffffffffffffffffffffffffffffffffffffffffffffffffffff82612270565b6122b78683612270565b95508019841693508086168417925050509392505050565b6000819050919050565b60006122f46122ef6122ea84611c15565b6122cf565b611c15565b9050919050565b6000819050919050565b61230e836122d9565b61232261231a826122fb565b84845461227d565b825550505050565b600090565b61233761232a565b612342818484612305565b505050565b5b818110156123665761235b60008261232f565b600181019050612348565b5050565b601f8211156123ab5761237c8161224b565b61238584612260565b81016020851015612394578190505b6123a86123a085612260565b830182612347565b50505b505050565b600082821c905092915050565b60006123ce600019846008026123b0565b1980831691505092915050565b60006123e783836123bd565b9150826002028217905092915050565b61240082611b63565b67ffffffffffffffff811115612419576124186121bc565b5b612423825461221a565b61242e82828561236a565b600060209050601f831160018114612461576000841561244f578287015190505b61245985826123db565b8655506124c1565b601f19841661246f8661224b565b60005b8281101561249757848901518255600182019150602085019450602081019050612472565b868310156124b457848901516124b0601f8916826123bd565b8355505b6001600288020188555050505b505050505050565b6000819050602082019050919050565b60006124e58251611d49565b80915050919050565b60006124f982611ddf565b82612503846124c9565b905061250e816124d9565b9250602082101561254e576125497fffffffffffffffffffffffffffffffffffffffffffffffffffffffffffffffff83602003600802612270565b831692505b5050919050565b600081905092915050565b600061256b82611ddf565b6125758185612555565b9350612585818560208601611b7f565b80840191505092915050565b6000819050919050565b6125ac6125a782611ea3565b612591565b82525050565b60006125be8285612560565b91506125ca828461259b565b6001820191508190509392505050565b7f4e487b7100000000000000000000000000000000000000000000000000000000600052603260045260246000fd5b7f4e487b7100000000000000000000000000000000000000000000000000000000600052602160045260246000fd5b7f45434453413a20696e76616c6964207369676e61747572650000000000000000600082015250565b600061266e601883611b6e565b915061267982612638565b602082019050919050565b6000602082019050818103600083015261269d81612661565b9050919050565b7f45434453413a20696e76616c6964207369676e6174757265206c656e67746800600082015250565b60006126da601f83611b6e565b91506126e5826126a4565b602082019050919050565b60006020820190508181036000830152612709816126cd565b9050919050565b7f45434453413a20696e76616c6964207369676e6174757265202773272076616c60008201527f7565000000000000000000000000000000000000000000000000000000000000602082015250565b600061276c602283611b6e565b915061277782612710565b604082019050919050565b6000602082019050818103600083015261279b8161275f565b9050919050565b6000819050919050565b6127bd6127b882611d49565b6127a2565b82525050565b60006127cf82856127ac565b6020820191506127df828461259b565b6001820191508190509392505050565b600060a0820190506128046000830188611efc565b6128116020830187611efc565b61281e6040830186611efc565b61282b6060830185611ede565b6128386080830184611eed565b9695505050505050565b60006080820190506128576000830187611efc565b6128646020830186611cab565b6128716040830185611efc565b61287e6060830184611efc565b9594505050505056fea264697066735822122078dc6d60aefed6d15c3bf47234835c0237e665d1f1c0a62a1ec385a0186322f064736f6c63430008120033",
  "linkReferences": {},
  "deployedLinkReferences": {}
}