{
  "_format": "hh-sol-artifact-1",
  "contractName": "PrivateBet",
  "sourceName": "examples/PrivateBet.sol",
  "abi": [
    {
      "inputs": [
        {
          "internalType": "contract EncryptedERC20",
          "name": "_tokenContract",
          "type": "address"
        }
      ],
      "stateMutability": "nonpayable",
      "type": "constructor"
    },
    {
      "inputs": [],
      "name": "InvalidShortString",
      "type": "error"
    },
    {
      "inputs": [
        {
          "internalType": "string",
          "name": "str",
          "type": "string"
        }
      ],
      "name": "StringTooLong",
      "type": "error"
    },
    {
      "anonymous": false,
      "inputs": [],
      "name": "EIP712DomainChanged",
      "type": "event"
    },
    {
      "anonymous": false,
      "inputs": [
        {
          "indexed": false,
          "internalType": "uint256",
          "name": "gameID",
          "type": "uint256"
        },
        {
          "indexed": false,
          "internalType": "string",
          "name": "description",
          "type": "string"
        },
        {
          "indexed": false,
          "internalType": "bool",
          "name": "isSuccessful",
          "type": "bool"
        }
      ],
      "name": "GameClosed",
      "type": "event"
    },
    {
      "anonymous": false,
      "inputs": [
        {
          "indexed": false,
          "internalType": "uint256",
          "name": "gameID",
          "type": "uint256"
        },
        {
          "indexed": false,
          "internalType": "euint32",
          "name": "encryptedBetAmount",
          "type": "uint256"
        }
      ],
      "name": "NewBet",
      "type": "event"
    },
    {
      "anonymous": false,
      "inputs": [
        {
          "indexed": false,
          "internalType": "string",
          "name": "description",
          "type": "string"
        }
      ],
      "name": "NewGame",
      "type": "event"
    },
    {
      "inputs": [],
      "name": "BET_MULTIPLIER",
      "outputs": [
        {
          "internalType": "uint32",
          "name": "",
          "type": "uint32"
        }
      ],
      "stateMutability": "view",
      "type": "function"
    },
    {
      "inputs": [
        {
          "internalType": "uint256",
          "name": "_gameId",
          "type": "uint256"
        }
      ],
      "name": "cancelGame",
      "outputs": [],
      "stateMutability": "nonpayable",
      "type": "function"
    },
    {
      "inputs": [
        {
          "internalType": "uint256",
          "name": "_gameId",
          "type": "uint256"
        },
        {
          "internalType": "bool",
          "name": "_isSuccessful",
          "type": "bool"
        }
      ],
      "name": "closeGame",
      "outputs": [],
      "stateMutability": "nonpayable",
      "type": "function"
    },
    {
      "inputs": [],
      "name": "contractOwner",
      "outputs": [
        {
          "internalType": "address",
          "name": "",
          "type": "address"
        }
      ],
      "stateMutability": "view",
      "type": "function"
    },
    {
      "inputs": [
        {
          "internalType": "string",
          "name": "_description",
          "type": "string"
        }
      ],
      "name": "createGame",
      "outputs": [],
      "stateMutability": "nonpayable",
      "type": "function"
    },
    {
      "inputs": [],
      "name": "eip712Domain",
      "outputs": [
        {
          "internalType": "bytes1",
          "name": "fields",
          "type": "bytes1"
        },
        {
          "internalType": "string",
          "name": "name",
          "type": "string"
        },
        {
          "internalType": "string",
          "name": "version",
          "type": "string"
        },
        {
          "internalType": "uint256",
          "name": "chainId",
          "type": "uint256"
        },
        {
          "internalType": "address",
          "name": "verifyingContract",
          "type": "address"
        },
        {
          "internalType": "bytes32",
          "name": "salt",
          "type": "bytes32"
        },
        {
          "internalType": "uint256[]",
          "name": "extensions",
          "type": "uint256[]"
        }
      ],
      "stateMutability": "view",
      "type": "function"
    },
    {
      "inputs": [
        {
          "internalType": "uint256",
          "name": "",
          "type": "uint256"
        }
      ],
      "name": "games",
      "outputs": [
        {
          "internalType": "string",
          "name": "description",
          "type": "string"
        },
        {
          "internalType": "enum PrivateBet.GameState",
          "name": "state",
          "type": "uint8"
        },
        {
          "internalType": "uint256",
          "name": "numBets",
          "type": "uint256"
        },
        {
          "internalType": "bool",
          "name": "isSuccessful",
          "type": "bool"
        }
      ],
      "stateMutability": "view",
      "type": "function"
    },
    {
      "inputs": [
        {
          "internalType": "uint256",
          "name": "gameId",
          "type": "uint256"
        },
        {
          "internalType": "bytes32",
          "name": "publicKey",
          "type": "bytes32"
        },
        {
          "internalType": "bytes",
          "name": "signature",
          "type": "bytes"
        }
      ],
      "name": "getBet",
      "outputs": [
        {
          "components": [
            {
              "internalType": "bytes",
              "name": "amount",
              "type": "bytes"
            },
            {
              "internalType": "enum PrivateBet.BetState",
              "name": "state",
              "type": "uint8"
            }
          ],
          "internalType": "struct PrivateBet.BetReturn",
          "name": "",
          "type": "tuple"
        }
      ],
      "stateMutability": "view",
      "type": "function"
    },
    {
      "inputs": [],
      "name": "numGames",
      "outputs": [
        {
          "internalType": "uint256",
          "name": "",
          "type": "uint256"
        }
      ],
      "stateMutability": "view",
      "type": "function"
    },
    {
      "inputs": [
        {
          "internalType": "uint256",
          "name": "_gameId",
          "type": "uint256"
        }
      ],
      "name": "pauseGame",
      "outputs": [],
      "stateMutability": "nonpayable",
      "type": "function"
    },
    {
      "inputs": [
        {
          "internalType": "uint256",
          "name": "_gameId",
          "type": "uint256"
        },
        {
          "internalType": "bytes",
          "name": "_encryptedAmount",
          "type": "bytes"
        }
      ],
      "name": "placeBet",
      "outputs": [],
      "stateMutability": "nonpayable",
      "type": "function"
    },
    {
      "inputs": [],
      "name": "tokenContract",
      "outputs": [
        {
          "internalType": "contract EncryptedERC20",
          "name": "",
          "type": "address"
        }
      ],
      "stateMutability": "view",
      "type": "function"
    },
    {
      "inputs": [
        {
          "internalType": "uint256",
          "name": "_gameId",
          "type": "uint256"
        }
      ],
      "name": "withdraw",
      "outputs": [],
      "stateMutability": "nonpayable",
      "type": "function"
    }
  ],
  "bytecode": "0x6101606040523480156200001257600080fd5b5060405162003f0b38038062003f0b8339818101604052810190620000389190620003a2565b6040518060400160405280601381526020017f417574686f72697a6174696f6e20746f6b656e000000000000000000000000008152506040518060400160405280600181526020017f31000000000000000000000000000000000000000000000000000000000000008152508181620000c1600083620001f360201b620015ef1790919060201c565b6101208181525050620000e4600182620001f360201b620015ef1790919060201c565b6101408181525050818051906020012060e08181525050808051906020012061010081815250504660a08181525050620001236200025060201b60201c565b608081815250503073ffffffffffffffffffffffffffffffffffffffff1660c08173ffffffffffffffffffffffffffffffffffffffff16815250505050505033600260006101000a81548173ffffffffffffffffffffffffffffffffffffffff021916908373ffffffffffffffffffffffffffffffffffffffff160217905550600060068190555080600360006101000a81548173ffffffffffffffffffffffffffffffffffffffff021916908373ffffffffffffffffffffffffffffffffffffffff1602179055505062000924565b600060208351101562000219576200021183620002ad60201b60201c565b90506200024a565b8262000230836200031a60201b620016331760201c565b60000190816200024191906200064e565b5060ff60001b90505b92915050565b60007f8b73c3c69bb8fe3d512ecc4cf759cc79239f7b179b0ffacaa9a75d522b39400f60e0516101005146306040516020016200029295949392919062000772565b60405160208183030381529060405280519060200120905090565b600080829050601f81511115620002fd57826040517f305a27a9000000000000000000000000000000000000000000000000000000008152600401620002f491906200085e565b60405180910390fd5b8051816200030b90620008b4565b60001c1760001b915050919050565b6000819050919050565b600080fd5b600073ffffffffffffffffffffffffffffffffffffffff82169050919050565b6000620003568262000329565b9050919050565b60006200036a8262000349565b9050919050565b6200037c816200035d565b81146200038857600080fd5b50565b6000815190506200039c8162000371565b92915050565b600060208284031215620003bb57620003ba62000324565b5b6000620003cb848285016200038b565b91505092915050565b600081519050919050565b7f4e487b7100000000000000000000000000000000000000000000000000000000600052604160045260246000fd5b7f4e487b7100000000000000000000000000000000000000000000000000000000600052602260045260246000fd5b600060028204905060018216806200045657607f821691505b6020821081036200046c576200046b6200040e565b5b50919050565b60008190508160005260206000209050919050565b60006020601f8301049050919050565b600082821b905092915050565b600060088302620004d67fffffffffffffffffffffffffffffffffffffffffffffffffffffffffffffffff8262000497565b620004e2868362000497565b95508019841693508086168417925050509392505050565b6000819050919050565b6000819050919050565b60006200052f620005296200052384620004fa565b62000504565b620004fa565b9050919050565b6000819050919050565b6200054b836200050e565b620005636200055a8262000536565b848454620004a4565b825550505050565b600090565b6200057a6200056b565b6200058781848462000540565b505050565b5b81811015620005af57620005a360008262000570565b6001810190506200058d565b5050565b601f821115620005fe57620005c88162000472565b620005d38462000487565b81016020851015620005e3578190505b620005fb620005f28562000487565b8301826200058c565b50505b505050565b600082821c905092915050565b6000620006236000198460080262000603565b1980831691505092915050565b60006200063e838362000610565b9150826002028217905092915050565b6200065982620003d4565b67ffffffffffffffff811115620006755762000674620003df565b5b6200068182546200043d565b6200068e828285620005b3565b600060209050601f831160018114620006c65760008415620006b1578287015190505b620006bd858262000630565b8655506200072d565b601f198416620006d68662000472565b60005b828110156200070057848901518255600182019150602085019450602081019050620006d9565b868310156200072057848901516200071c601f89168262000610565b8355505b6001600288020188555050505b505050505050565b6000819050919050565b6200074a8162000735565b82525050565b6200075b81620004fa565b82525050565b6200076c8162000349565b82525050565b600060a0820190506200078960008301886200073f565b6200079860208301876200073f565b620007a760408301866200073f565b620007b6606083018562000750565b620007c5608083018462000761565b9695505050505050565b600082825260208201905092915050565b60005b8381101562000800578082015181840152602081019050620007e3565b60008484015250505050565b6000601f19601f8301169050919050565b60006200082a82620003d4565b620008368185620007cf565b935062000848818560208601620007e0565b62000853816200080c565b840191505092915050565b600060208201905081810360008301526200087a81846200081d565b905092915050565b600081519050919050565b6000819050602082019050919050565b6000620008ab825162000735565b80915050919050565b6000620008c18262000882565b82620008cd846200088d565b9050620008da816200089d565b925060208210156200091d57620009187fffffffffffffffffffffffffffffffffffffffffffffffffffffffffffffffff8360200360080262000497565b831692505b5050919050565b60805160a05160c05160e05161010051610120516101405161358c6200097f600039600061102d01526000610ff901526000611db201526000611d910152600061199e015260006119f401526000611a1d015261358c6000f3fe608060405234801561001057600080fd5b50600436106100cf5760003560e01c806369958ab91161008c578063b47639bc11610066578063b47639bc146101f1578063bb580aea1461020f578063c3f010f71461023f578063ce606ee01461025d576100cf565b806369958ab91461019557806384b0196e146101b15780639618877d146101d5576100cf565b8063117a5b90146100d45780631214e31e146101075780632e1a7d4d146101235780632ebc05041461013f57806335d2a2691461015b57806355a373d614610177575b600080fd5b6100ee60048036038101906100e99190612021565b61027b565b6040516100fe949392919061217f565b60405180910390f35b610121600480360381019061011c9190612021565b61035d565b005b61013d60048036038101906101389190612021565b6104ca565b005b61015960048036038101906101549190612300565b6108d4565b005b610175600480360381019061017091906123a9565b610a55565b005b61017f610e13565b60405161018c9190612488565b60405180910390f35b6101af60048036038101906101aa9190612021565b610e39565b005b6101b9610fe6565b6040516101cc97969594939291906125d6565b60405180910390f35b6101ef60048036038101906101ea9190612686565b6110e8565b005b6101f9611311565b60405161020691906126e5565b60405180910390f35b6102296004803603810190610224919061272c565b611316565b604051610236919061287a565b60405180910390f35b6102476115c3565b604051610254919061289c565b60405180910390f35b6102656115c9565b60405161027291906128b7565b60405180910390f35b6005818154811061028b57600080fd5b90600052602060002090600402016000915090508060000180546102ae90612901565b80601f01602080910402602001604051908101604052809291908181526020018280546102da90612901565b80156103275780601f106102fc57610100808354040283529160200191610327565b820191906000526020600020905b81548152906001019060200180831161030a57829003601f168201915b5050505050908060010160009054906101000a900460ff16908060020154908060030160009054906101000a900460ff16905084565b600260009054906101000a900473ffffffffffffffffffffffffffffffffffffffff1673ffffffffffffffffffffffffffffffffffffffff163373ffffffffffffffffffffffffffffffffffffffff16146103b757600080fd5b60065481106103fb576040517f08c379a00000000000000000000000000000000000000000000000000000000081526004016103f29061297e565b60405180910390fd5b6000600582815481106104115761041061299e565b5b9060005260206000209060040201905060006003811115610435576104346120de565b5b8160010160009054906101000a900460ff166003811115610459576104586120de565b5b14610499576040517f08c379a000000000000000000000000000000000000000000000000000000000815260040161049090612a3f565b60405180910390fd5b60018160010160006101000a81548160ff021916908360038111156104c1576104c06120de565b5b02179055505050565b600654811061050e576040517f08c379a00000000000000000000000000000000000000000000000000000000081526004016105059061297e565b60405180910390fd5b6000600582815481106105245761052361299e565b5b9060005260206000209060040201905060006003811115610548576105476120de565b5b8160010160009054906101000a900460ff16600381111561056c5761056b6120de565b5b14806105ad575060016003811115610587576105866120de565b5b8160010160009054906101000a900460ff1660038111156105ab576105aa6120de565b5b145b156105ed576040517f08c379a00000000000000000000000000000000000000000000000000000000081526004016105e490612aab565b60405180910390fd5b60006004600084815260200190815260200160002060003373ffffffffffffffffffffffffffffffffffffffff1673ffffffffffffffffffffffffffffffffffffffff168152602001908152602001600020905060006002811115610655576106546120de565b5b8160020160009054906101000a900460ff166002811115610679576106786120de565b5b146106b9576040517f08c379a00000000000000000000000000000000000000000000000000000000081526004016106b090612b17565b60405180910390fd5b6003808111156106cc576106cb6120de565b5b8260010160009054906101000a900460ff1660038111156106f0576106ef6120de565b5b036107ba5760018160020160006101000a81548160ff0219169083600281111561071d5761071c6120de565b5b0217905550600360009054906101000a900473ffffffffffffffffffffffffffffffffffffffff1673ffffffffffffffffffffffffffffffffffffffff1663a9059cbb3383600101546040518363ffffffff1660e01b8152600401610783929190612b68565b600060405180830381600087803b15801561079d57600080fd5b505af11580156107b1573d6000803e3d6000fd5b505050506108cf565b8160030160009054906101000a900460ff16156108a05760018160020160006101000a81548160ff021916908360028111156107f9576107f86120de565b5b0217905550600360009054906101000a900473ffffffffffffffffffffffffffffffffffffffff1673ffffffffffffffffffffffffffffffffffffffff1663a9059cbb3361084c6002856001015461163d565b6040518363ffffffff1660e01b8152600401610869929190612b68565b600060405180830381600087803b15801561088357600080fd5b505af1158015610897573d6000803e3d6000fd5b505050506108ce565b60028160020160006101000a81548160ff021916908360028111156108c8576108c76120de565b5b02179055505b5b505050565b600260009054906101000a900473ffffffffffffffffffffffffffffffffffffffff1673ffffffffffffffffffffffffffffffffffffffff163373ffffffffffffffffffffffffffffffffffffffff161461092e57600080fd5b6005604051806080016040528083815260200160006003811115610955576109546120de565b5b81526020016000815260200160001515815250908060018154018082558091505060019003906000526020600020906004020160009091909190915060008201518160000190816109a69190612d11565b5060208201518160010160006101000a81548160ff021916908360038111156109d2576109d16120de565b5b02179055506040820151816002015560608201518160030160006101000a81548160ff021916908315150217905550505060066000815480929190610a1690612e12565b91905055507fec7ff2cf87269be58abc820fec1f0d290b8132908dd4dd454f4e34cbf0aba08f81604051610a4a9190612e5a565b60405180910390a150565b6006548310610a99576040517f08c379a0000000000000000000000000000000000000000000000000000000008152600401610a909061297e565b60405180910390fd5b600060058481548110610aaf57610aae61299e565b5b9060005260206000209060040201905060006003811115610ad357610ad26120de565b5b8160010160009054906101000a900460ff166003811115610af757610af66120de565b5b14610b37576040517f08c379a0000000000000000000000000000000000000000000000000000000008152600401610b2e90612ec8565b60405180910390fd5b6004600085815260200190815260200160002060003373ffffffffffffffffffffffffffffffffffffffff1673ffffffffffffffffffffffffffffffffffffffff16815260200190815260200160002060000160009054906101000a900460ff1615610bd8576040517f08c379a0000000000000000000000000000000000000000000000000000000008152600401610bcf90612f34565b60405180910390fd5b6000610c2784848080601f016020809104026020016040519081016040528093929190818152602001838380828437600081840152601f19601f82011690508083019250505050505050611659565b9050600360009054906101000a900473ffffffffffffffffffffffffffffffffffffffff1673ffffffffffffffffffffffffffffffffffffffff166323b872dd3330846040518463ffffffff1660e01b8152600401610c8893929190612f54565b600060405180830381600087803b158015610ca257600080fd5b505af1158015610cb6573d6000803e3d6000fd5b50505050604051806060016040528060011515815260200182815260200160006002811115610ce857610ce76120de565b5b8152506004600087815260200190815260200160002060003373ffffffffffffffffffffffffffffffffffffffff1673ffffffffffffffffffffffffffffffffffffffff16815260200190815260200160002060008201518160000160006101000a81548160ff0219169083151502179055506020820151816001015560408201518160020160006101000a81548160ff02191690836002811115610d9057610d8f6120de565b5b021790555090505060058581548110610dac57610dab61299e565b5b90600052602060002090600402016002016000815480929190610dce90612e12565b91905055507fbb5d359abfa911f55d10e5b1fe62141092342ccba0734899a68c3cdb935b5a578582604051610e04929190612f8b565b60405180910390a15050505050565b600360009054906101000a900473ffffffffffffffffffffffffffffffffffffffff1681565b600260009054906101000a900473ffffffffffffffffffffffffffffffffffffffff1673ffffffffffffffffffffffffffffffffffffffff163373ffffffffffffffffffffffffffffffffffffffff1614610e9357600080fd5b6006548110610ed7576040517f08c379a0000000000000000000000000000000000000000000000000000000008152600401610ece9061297e565b60405180910390fd5b600060058281548110610eed57610eec61299e565b5b9060005260206000209060040201905060006003811115610f1157610f106120de565b5b8160010160009054906101000a900460ff166003811115610f3557610f346120de565b5b1480610f76575060016003811115610f5057610f4f6120de565b5b8160010160009054906101000a900460ff166003811115610f7457610f736120de565b5b145b610fb5576040517f08c379a0000000000000000000000000000000000000000000000000000000008152600401610fac90612a3f565b60405180910390fd5b60038160010160006101000a81548160ff02191690836003811115610fdd57610fdc6120de565b5b02179055505050565b60006060806000806000606061102660007f000000000000000000000000000000000000000000000000000000000000000061166d90919063ffffffff16565b61105a60017f000000000000000000000000000000000000000000000000000000000000000061166d90919063ffffffff16565b46306000801b600067ffffffffffffffff81111561107b5761107a6121d5565b5b6040519080825280602002602001820160405280156110a95781602001602082028036833780820191505090505b507f0f00000000000000000000000000000000000000000000000000000000000000959493929190965096509650965096509650965090919293949596565b600260009054906101000a900473ffffffffffffffffffffffffffffffffffffffff1673ffffffffffffffffffffffffffffffffffffffff163373ffffffffffffffffffffffffffffffffffffffff161461114257600080fd5b6006548210611186576040517f08c379a000000000000000000000000000000000000000000000000000000000815260040161117d9061297e565b60405180910390fd5b60006005838154811061119c5761119b61299e565b5b90600052602060002090600402019050600060038111156111c0576111bf6120de565b5b8160010160009054906101000a900460ff1660038111156111e4576111e36120de565b5b14806112255750600160038111156111ff576111fe6120de565b5b8160010160009054906101000a900460ff166003811115611223576112226120de565b5b145b611264576040517f08c379a000000000000000000000000000000000000000000000000000000000815260040161125b90612a3f565b60405180910390fd5b60028160010160006101000a81548160ff0219169083600381111561128c5761128b6120de565b5b0217905550818160030160006101000a81548160ff0219169083151502179055507f66c3f89814e2a936b977dc7e4d54e3a559f51421525f0e39b54789f78cc25d1f83600585815481106112e3576112e261299e565b5b90600052602060002090600402016000018460405161130493929190613038565b60405180910390a1505050565b600281565b61131e611f67565b8383838080601f016020809104026020016040519081016040528093929190818152602001838380828437600081840152601f19601f8201169050808301925050505050505060006113b77f051d137ae0e1fae6e3b6559fed4442b35a85a9a39789838ad5c9ea05e7da2dce8460405160200161139c929190613076565b6040516020818303038152906040528051906020012061171d565b905060006113c58284611737565b90503373ffffffffffffffffffffffffffffffffffffffff168173ffffffffffffffffffffffffffffffffffffffff1614611435576040517f08c379a000000000000000000000000000000000000000000000000000000000815260040161142c90613111565b60405180910390fd5b6006548910611479576040517f08c379a00000000000000000000000000000000000000000000000000000000081526004016114709061297e565b60405180910390fd5b600460008a815260200190815260200160002060003373ffffffffffffffffffffffffffffffffffffffff1673ffffffffffffffffffffffffffffffffffffffff16815260200190815260200160002060000160009054906101000a900460ff16611519576040517f08c379a00000000000000000000000000000000000000000000000000000000081526004016115109061317d565b60405180910390fd5b6000600460008b815260200190815260200160002060003373ffffffffffffffffffffffffffffffffffffffff1673ffffffffffffffffffffffffffffffffffffffff1681526020019081526020016000209050604051806040016040528061158883600101548c600061175e565b81526020018260020160009054906101000a900460ff1660028111156115b1576115b06120de565b5b81525095505050505050949350505050565b60065481565b600260009054906101000a900473ffffffffffffffffffffffffffffffffffffffff1681565b600060208351101561160b576116048361179b565b905061162d565b8261161583611633565b60000190816116249190612d11565b5060ff60001b90505b92915050565b6000819050919050565b6000611651828463ffffffff166001611803565b905092915050565b60006116668260026118a6565b9050919050565b606060ff60001b831461168a5761168383611926565b9050611717565b81805461169690612901565b80601f01602080910402602001604051908101604052809291908181526020018280546116c290612901565b801561170f5780601f106116e45761010080835404028352916020019161170f565b820191906000526020600020905b8154815290600101906020018083116116f257829003601f168201915b505050505090505b92915050565b600061173061172a61199a565b83611a51565b9050919050565b60008060006117468585611a92565b9150915061175381611ae3565b819250505092915050565b606060008414611779576117728484611c49565b9050611794565b61179161178b8363ffffffff16611d08565b84611c49565b90505b9392505050565b600080829050601f815111156117e857826040517f305a27a90000000000000000000000000000000000000000000000000000000081526004016117df9190612e5a565b60405180910390fd5b8051816117f4906131c2565b60001c1760001b915050919050565b600080821561181857600160f81b9050611820565b600060f81b90505b60008560001b8560001b8360405160200161183d9392919061326b565b604051602081830303815290604052905060008151905061185c611f93565b60006020905060006048905081838560208801845afa61187b57600080fd5b8260006001811061188f5761188e61299e565b5b602002015160001c96505050505050509392505050565b600080838360f81b6040516020016118bf9291906132e4565b60405160208183030381529060405290506000815190506118de611f93565b60006020905060006042905081838560208801845afa6118fd57600080fd5b826000600181106119115761191061299e565b5b602002015160001c9550505050505092915050565b6060600061193383611d1c565b90506000602067ffffffffffffffff811115611952576119516121d5565b5b6040519080825280601f01601f1916602001820160405280156119845781602001600182028036833780820191505090505b5090508181528360208201528092505050919050565b60007f000000000000000000000000000000000000000000000000000000000000000073ffffffffffffffffffffffffffffffffffffffff163073ffffffffffffffffffffffffffffffffffffffff16148015611a1657507f000000000000000000000000000000000000000000000000000000000000000046145b15611a43577f00000000000000000000000000000000000000000000000000000000000000009050611a4e565b611a4b611d6c565b90505b90565b60006040517f190100000000000000000000000000000000000000000000000000000000000081528360028201528260228201526042812091505092915050565b6000806041835103611ad35760008060006020860151925060408601519150606086015160001a9050611ac787828585611e02565b94509450505050611adc565b60006002915091505b9250929050565b60006004811115611af757611af66120de565b5b816004811115611b0a57611b096120de565b5b0315611c465760016004811115611b2457611b236120de565b5b816004811115611b3757611b366120de565b5b03611b77576040517f08c379a0000000000000000000000000000000000000000000000000000000008152600401611b6e90613358565b60405180910390fd5b60026004811115611b8b57611b8a6120de565b5b816004811115611b9e57611b9d6120de565b5b03611bde576040517f08c379a0000000000000000000000000000000000000000000000000000000008152600401611bd5906133c4565b60405180910390fd5b60036004811115611bf257611bf16120de565b5b816004811115611c0557611c046120de565b5b03611c45576040517f08c379a0000000000000000000000000000000000000000000000000000000008152600401611c3c90613456565b60405180910390fd5b5b50565b6060611c53611fb5565b8360001b81600060028110611c6b57611c6a61299e565b5b6020020181815250508281600160028110611c8957611c8861299e565b5b602002018181525050600060409050605467ffffffffffffffff811115611cb357611cb26121d5565b5b6040519080825280601f01601f191660200182016040528015611ce55781602001600182028036833780820191505090505b5092506000604390506054848385845afa611cff57600080fd5b50505092915050565b6000611d15826002611ee4565b9050919050565b60008060ff8360001c169050601f811115611d63576040517fb3512b0c00000000000000000000000000000000000000000000000000000000815260040160405180910390fd5b80915050919050565b60007f8b73c3c69bb8fe3d512ecc4cf759cc79239f7b179b0ffacaa9a75d522b39400f7f00000000000000000000000000000000000000000000000000000000000000007f00000000000000000000000000000000000000000000000000000000000000004630604051602001611de7959493929190613476565b60405160208183030381529060405280519060200120905090565b6000807f7fffffffffffffffffffffffffffffff5d576e7357a4501ddfe92f46681b20a08360001c1115611e3d576000600391509150611edb565b600060018787878760405160008152602001604052604051611e6294939291906134e5565b6020604051602081039080840390855afa158015611e84573d6000803e3d6000fd5b505050602060405103519050600073ffffffffffffffffffffffffffffffffffffffff168173ffffffffffffffffffffffffffffffffffffffff1603611ed257600060019250925050611edb565b80600092509250505b94509492505050565b6000808360001b8360f81b604051602001611f0092919061352a565b6040516020818303038152906040529050600081519050611f1f611f93565b6000602090506000604d905081838560208801845afa611f3e57600080fd5b82600060018110611f5257611f5161299e565b5b602002015160001c9550505050505092915050565b60405180604001604052806060815260200160006002811115611f8d57611f8c6120de565b5b81525090565b6040518060200160405280600190602082028036833780820191505090505090565b6040518060400160405280600290602082028036833780820191505090505090565b6000604051905090565b600080fd5b600080fd5b6000819050919050565b611ffe81611feb565b811461200957600080fd5b50565b60008135905061201b81611ff5565b92915050565b60006020828403121561203757612036611fe1565b5b60006120458482850161200c565b91505092915050565b600081519050919050565b600082825260208201905092915050565b60005b8381101561208857808201518184015260208101905061206d565b60008484015250505050565b6000601f19601f8301169050919050565b60006120b08261204e565b6120ba8185612059565b93506120ca81856020860161206a565b6120d381612094565b840191505092915050565b7f4e487b7100000000000000000000000000000000000000000000000000000000600052602160045260246000fd5b6004811061211e5761211d6120de565b5b50565b600081905061212f8261210d565b919050565b600061213f82612121565b9050919050565b61214f81612134565b82525050565b61215e81611feb565b82525050565b60008115159050919050565b61217981612164565b82525050565b6000608082019050818103600083015261219981876120a5565b90506121a86020830186612146565b6121b56040830185612155565b6121c26060830184612170565b95945050505050565b600080fd5b600080fd5b7f4e487b7100000000000000000000000000000000000000000000000000000000600052604160045260246000fd5b61220d82612094565b810181811067ffffffffffffffff8211171561222c5761222b6121d5565b5b80604052505050565b600061223f611fd7565b905061224b8282612204565b919050565b600067ffffffffffffffff82111561226b5761226a6121d5565b5b61227482612094565b9050602081019050919050565b82818337600083830152505050565b60006122a361229e84612250565b612235565b9050828152602081018484840111156122bf576122be6121d0565b5b6122ca848285612281565b509392505050565b600082601f8301126122e7576122e66121cb565b5b81356122f7848260208601612290565b91505092915050565b60006020828403121561231657612315611fe1565b5b600082013567ffffffffffffffff81111561233457612333611fe6565b5b612340848285016122d2565b91505092915050565b600080fd5b600080fd5b60008083601f840112612369576123686121cb565b5b8235905067ffffffffffffffff81111561238657612385612349565b5b6020830191508360018202830111156123a2576123a161234e565b5b9250929050565b6000806000604084860312156123c2576123c1611fe1565b5b60006123d08682870161200c565b935050602084013567ffffffffffffffff8111156123f1576123f0611fe6565b5b6123fd86828701612353565b92509250509250925092565b600073ffffffffffffffffffffffffffffffffffffffff82169050919050565b6000819050919050565b600061244e61244961244484612409565b612429565b612409565b9050919050565b600061246082612433565b9050919050565b600061247282612455565b9050919050565b61248281612467565b82525050565b600060208201905061249d6000830184612479565b92915050565b60007fff0000000000000000000000000000000000000000000000000000000000000082169050919050565b6124d8816124a3565b82525050565b60006124e982612409565b9050919050565b6124f9816124de565b82525050565b6000819050919050565b612512816124ff565b82525050565b600081519050919050565b600082825260208201905092915050565b6000819050602082019050919050565b61254d81611feb565b82525050565b600061255f8383612544565b60208301905092915050565b6000602082019050919050565b600061258382612518565b61258d8185612523565b935061259883612534565b8060005b838110156125c95781516125b08882612553565b97506125bb8361256b565b92505060018101905061259c565b5085935050505092915050565b600060e0820190506125eb600083018a6124cf565b81810360208301526125fd81896120a5565b9050818103604083015261261181886120a5565b90506126206060830187612155565b61262d60808301866124f0565b61263a60a0830185612509565b81810360c083015261264c8184612578565b905098975050505050505050565b61266381612164565b811461266e57600080fd5b50565b6000813590506126808161265a565b92915050565b6000806040838503121561269d5761269c611fe1565b5b60006126ab8582860161200c565b92505060206126bc85828601612671565b9150509250929050565b600063ffffffff82169050919050565b6126df816126c6565b82525050565b60006020820190506126fa60008301846126d6565b92915050565b612709816124ff565b811461271457600080fd5b50565b60008135905061272681612700565b92915050565b6000806000806060858703121561274657612745611fe1565b5b60006127548782880161200c565b945050602061276587828801612717565b935050604085013567ffffffffffffffff81111561278657612785611fe6565b5b61279287828801612353565b925092505092959194509250565b600081519050919050565b600082825260208201905092915050565b60006127c7826127a0565b6127d181856127ab565b93506127e181856020860161206a565b6127ea81612094565b840191505092915050565b60038110612806576128056120de565b5b50565b6000819050612817826127f5565b919050565b600061282782612809565b9050919050565b6128378161281c565b82525050565b6000604083016000830151848203600086015261285a82826127bc565b915050602083015161286f602086018261282e565b508091505092915050565b60006020820190508181036000830152612894818461283d565b905092915050565b60006020820190506128b16000830184612155565b92915050565b60006020820190506128cc60008301846124f0565b92915050565b7f4e487b7100000000000000000000000000000000000000000000000000000000600052602260045260246000fd5b6000600282049050600182168061291957607f821691505b60208210810361292c5761292b6128d2565b5b50919050565b7f496e76616c69642067616d652049440000000000000000000000000000000000600082015250565b6000612968600f83612059565b915061297382612932565b602082019050919050565b600060208201905081810360008301526129978161295b565b9050919050565b7f4e487b7100000000000000000000000000000000000000000000000000000000600052603260045260246000fd5b7f47616d6520697320616c726561647920636c6f736564206f722063616e63656c60008201527f6564000000000000000000000000000000000000000000000000000000000000602082015250565b6000612a29602283612059565b9150612a34826129cd565b604082019050919050565b60006020820190508181036000830152612a5881612a1c565b9050919050565b7f47616d65206973206e6f742079657420636c6f73656400000000000000000000600082015250565b6000612a95601683612059565b9150612aa082612a5f565b602082019050919050565b60006020820190508181036000830152612ac481612a88565b9050919050565b7f42657420616c72656164792070726f6365737365640000000000000000000000600082015250565b6000612b01601583612059565b9150612b0c82612acb565b602082019050919050565b60006020820190508181036000830152612b3081612af4565b9050919050565b6000612b52612b4d612b4884611feb565b612429565b611feb565b9050919050565b612b6281612b37565b82525050565b6000604082019050612b7d60008301856124f0565b612b8a6020830184612b59565b9392505050565b60008190508160005260206000209050919050565b60006020601f8301049050919050565b600082821b905092915050565b600060088302612bf37fffffffffffffffffffffffffffffffffffffffffffffffffffffffffffffffff82612bb6565b612bfd8683612bb6565b95508019841693508086168417925050509392505050565b6000819050919050565b612c2883612b37565b612c3c612c3482612c15565b848454612bc3565b825550505050565b600090565b612c51612c44565b612c5c818484612c1f565b505050565b5b81811015612c8057612c75600082612c49565b600181019050612c62565b5050565b601f821115612cc557612c9681612b91565b612c9f84612ba6565b81016020851015612cae578190505b612cc2612cba85612ba6565b830182612c61565b50505b505050565b600082821c905092915050565b6000612ce860001984600802612cca565b1980831691505092915050565b6000612d018383612cd7565b9150826002028217905092915050565b612d1a8261204e565b67ffffffffffffffff811115612d3357612d326121d5565b5b612d3d8254612901565b612d48828285612c84565b600060209050601f831160018114612d7b5760008415612d69578287015190505b612d738582612cf5565b865550612ddb565b601f198416612d8986612b91565b60005b82811015612db157848901518255600182019150602085019450602081019050612d8c565b86831015612dce5784890151612dca601f891682612cd7565b8355505b6001600288020188555050505b505050505050565b7f4e487b7100000000000000000000000000000000000000000000000000000000600052601160045260246000fd5b6000612e1d82611feb565b91507fffffffffffffffffffffffffffffffffffffffffffffffffffffffffffffffff8203612e4f57612e4e612de3565b5b600182019050919050565b60006020820190508181036000830152612e7481846120a5565b905092915050565b7f47616d65206973206e6f74206f70656e00000000000000000000000000000000600082015250565b6000612eb2601083612059565b9150612ebd82612e7c565b602082019050919050565b60006020820190508181036000830152612ee181612ea5565b9050919050565b7f596f7520616c7265616479206265740000000000000000000000000000000000600082015250565b6000612f1e600f83612059565b9150612f2982612ee8565b602082019050919050565b60006020820190508181036000830152612f4d81612f11565b9050919050565b6000606082019050612f6960008301866124f0565b612f7660208301856124f0565b612f836040830184612b59565b949350505050565b6000604082019050612fa06000830185612155565b612fad6020830184612b59565b9392505050565b60008154612fc181612901565b612fcb8186612059565b94506001821660008114612fe65760018114612ffc5761302f565b60ff19831686528115156020028601935061302f565b61300585612b91565b60005b8381101561302757815481890152600182019150602081019050613008565b808801955050505b50505092915050565b600060608201905061304d6000830186612155565b818103602083015261305f8185612fb4565b905061306e6040830184612170565b949350505050565b600060408201905061308b6000830185612509565b6130986020830184612509565b9392505050565b7f454950373132207369676e657220616e64207472616e73616374696f6e20736960008201527f676e657220646f206e6f74206d61746368000000000000000000000000000000602082015250565b60006130fb603183612059565b91506131068261309f565b604082019050919050565b6000602082019050818103600083015261312a816130ee565b9050919050565b7f4e6f2062657420666f7220746869732075736572000000000000000000000000600082015250565b6000613167601483612059565b915061317282613131565b602082019050919050565b600060208201905081810360008301526131968161315a565b9050919050565b6000819050602082019050919050565b60006131b982516124ff565b80915050919050565b60006131cd826127a0565b826131d78461319d565b90506131e2816131ad565b925060208210156132225761321d7fffffffffffffffffffffffffffffffffffffffffffffffffffffffffffffffff83602003600802612bb6565b831692505b5050919050565b6000819050919050565b61324461323f826124ff565b613229565b82525050565b6000819050919050565b613265613260826124a3565b61324a565b82525050565b60006132778286613233565b6020820191506132878285613233565b6020820191506132978284613254565b600182019150819050949350505050565b600081905092915050565b60006132be826127a0565b6132c881856132a8565b93506132d881856020860161206a565b80840191505092915050565b60006132f082856132b3565b91506132fc8284613254565b6001820191508190509392505050565b7f45434453413a20696e76616c6964207369676e61747572650000000000000000600082015250565b6000613342601883612059565b915061334d8261330c565b602082019050919050565b6000602082019050818103600083015261337181613335565b9050919050565b7f45434453413a20696e76616c6964207369676e6174757265206c656e67746800600082015250565b60006133ae601f83612059565b91506133b982613378565b602082019050919050565b600060208201905081810360008301526133dd816133a1565b9050919050565b7f45434453413a20696e76616c6964207369676e6174757265202773272076616c60008201527f7565000000000000000000000000000000000000000000000000000000000000602082015250565b6000613440602283612059565b915061344b826133e4565b604082019050919050565b6000602082019050818103600083015261346f81613433565b9050919050565b600060a08201905061348b6000830188612509565b6134986020830187612509565b6134a56040830186612509565b6134b26060830185612155565b6134bf60808301846124f0565b9695505050505050565b600060ff82169050919050565b6134df816134c9565b82525050565b60006080820190506134fa6000830187612509565b61350760208301866134d6565b6135146040830185612509565b6135216060830184612509565b95945050505050565b60006135368285613233565b6020820191506135468284613254565b600182019150819050939250505056fea2646970667358221220a774d6469374d1dec465fddfcf89e48c3d928fbe2c3c46a26e9743673eb865ec64736f6c63430008120033",
  "linkReferences": {},
  "deployedLinkReferences": {}
}