{
  "_format": "hh-sol-artifact-1",
  "contractName": "PrivateBet",
  "sourceName": "examples/PrivateBet.sol",
  "abi": [
    {
      "inputs": [
        {
          "internalType": "contract EncryptedERC20",
          "name": "_tokenContract",
          "type": "address"
        }
      ],
      "stateMutability": "nonpayable",
      "type": "constructor"
    },
    {
      "inputs": [],
      "name": "InvalidShortString",
      "type": "error"
    },
    {
      "inputs": [
        {
          "internalType": "string",
          "name": "str",
          "type": "string"
        }
      ],
      "name": "StringTooLong",
      "type": "error"
    },
    {
      "anonymous": false,
      "inputs": [],
      "name": "EIP712DomainChanged",
      "type": "event"
    },
    {
      "anonymous": false,
      "inputs": [
        {
          "indexed": false,
          "internalType": "uint256",
          "name": "gameID",
          "type": "uint256"
        },
        {
          "indexed": false,
          "internalType": "string",
          "name": "description",
          "type": "string"
        },
        {
          "indexed": false,
          "internalType": "bool",
          "name": "isSuccessful",
          "type": "bool"
        }
      ],
      "name": "GameClosed",
      "type": "event"
    },
    {
      "anonymous": false,
      "inputs": [
        {
          "indexed": false,
          "internalType": "uint256",
          "name": "gameID",
          "type": "uint256"
        },
        {
          "indexed": false,
          "internalType": "euint32",
          "name": "encryptedBetAmount",
          "type": "uint256"
        }
      ],
      "name": "NewBet",
      "type": "event"
    },
    {
      "anonymous": false,
      "inputs": [
        {
          "indexed": false,
          "internalType": "string",
          "name": "description",
          "type": "string"
        }
      ],
      "name": "NewGame",
      "type": "event"
    },
    {
      "inputs": [],
      "name": "BET_MULTIPLIER",
      "outputs": [
        {
          "internalType": "uint32",
          "name": "",
          "type": "uint32"
        }
      ],
      "stateMutability": "view",
      "type": "function"
    },
    {
      "inputs": [
        {
          "internalType": "uint256",
          "name": "_gameId",
          "type": "uint256"
        }
      ],
      "name": "cancelGame",
      "outputs": [],
      "stateMutability": "nonpayable",
      "type": "function"
    },
    {
      "inputs": [
        {
          "internalType": "uint256",
          "name": "_gameId",
          "type": "uint256"
        },
        {
          "internalType": "bool",
          "name": "_isSuccessful",
          "type": "bool"
        }
      ],
      "name": "closeGame",
      "outputs": [],
      "stateMutability": "nonpayable",
      "type": "function"
    },
    {
      "inputs": [],
      "name": "contractOwner",
      "outputs": [
        {
          "internalType": "address",
          "name": "",
          "type": "address"
        }
      ],
      "stateMutability": "view",
      "type": "function"
    },
    {
      "inputs": [
        {
          "internalType": "string",
          "name": "_description",
          "type": "string"
        }
      ],
      "name": "createGame",
      "outputs": [],
      "stateMutability": "nonpayable",
      "type": "function"
    },
    {
      "inputs": [],
      "name": "eip712Domain",
      "outputs": [
        {
          "internalType": "bytes1",
          "name": "fields",
          "type": "bytes1"
        },
        {
          "internalType": "string",
          "name": "name",
          "type": "string"
        },
        {
          "internalType": "string",
          "name": "version",
          "type": "string"
        },
        {
          "internalType": "uint256",
          "name": "chainId",
          "type": "uint256"
        },
        {
          "internalType": "address",
          "name": "verifyingContract",
          "type": "address"
        },
        {
          "internalType": "bytes32",
          "name": "salt",
          "type": "bytes32"
        },
        {
          "internalType": "uint256[]",
          "name": "extensions",
          "type": "uint256[]"
        }
      ],
      "stateMutability": "view",
      "type": "function"
    },
    {
      "inputs": [
        {
          "internalType": "uint256",
          "name": "",
          "type": "uint256"
        }
      ],
      "name": "games",
      "outputs": [
        {
          "internalType": "string",
          "name": "description",
          "type": "string"
        },
        {
          "internalType": "enum PrivateBet.GameState",
          "name": "state",
          "type": "uint8"
        },
        {
          "internalType": "uint256",
          "name": "numBets",
          "type": "uint256"
        },
        {
          "internalType": "bool",
          "name": "isSuccessful",
          "type": "bool"
        }
      ],
      "stateMutability": "view",
      "type": "function"
    },
    {
      "inputs": [
        {
          "internalType": "uint256",
          "name": "gameId",
          "type": "uint256"
        },
        {
          "internalType": "bytes32",
          "name": "publicKey",
          "type": "bytes32"
        },
        {
          "internalType": "bytes",
          "name": "signature",
          "type": "bytes"
        }
      ],
      "name": "getBet",
      "outputs": [
        {
          "components": [
            {
              "internalType": "bytes",
              "name": "amount",
              "type": "bytes"
            },
            {
              "internalType": "enum PrivateBet.BetState",
              "name": "state",
              "type": "uint8"
            }
          ],
          "internalType": "struct PrivateBet.BetReturn",
          "name": "",
          "type": "tuple"
        }
      ],
      "stateMutability": "view",
      "type": "function"
    },
    {
      "inputs": [],
      "name": "numGames",
      "outputs": [
        {
          "internalType": "uint256",
          "name": "",
          "type": "uint256"
        }
      ],
      "stateMutability": "view",
      "type": "function"
    },
    {
      "inputs": [
        {
          "internalType": "uint256",
          "name": "_gameId",
          "type": "uint256"
        },
        {
          "internalType": "bytes",
          "name": "_encryptedAmount",
          "type": "bytes"
        }
      ],
      "name": "placeBet",
      "outputs": [],
      "stateMutability": "nonpayable",
      "type": "function"
    },
    {
      "inputs": [],
      "name": "tokenContract",
      "outputs": [
        {
          "internalType": "contract EncryptedERC20",
          "name": "",
          "type": "address"
        }
      ],
      "stateMutability": "view",
      "type": "function"
    },
    {
      "inputs": [
        {
          "internalType": "uint256",
          "name": "_gameId",
          "type": "uint256"
        }
      ],
      "name": "withdraw",
      "outputs": [],
      "stateMutability": "nonpayable",
      "type": "function"
    }
  ],
  "bytecode": "0x6101606040523480156200001257600080fd5b5060405162003ca638038062003ca68339818101604052810190620000389190620003a2565b6040518060400160405280601381526020017f417574686f72697a6174696f6e20746f6b656e000000000000000000000000008152506040518060400160405280600181526020017f31000000000000000000000000000000000000000000000000000000000000008152508181620000c1600083620001f360201b6200138a1790919060201c565b6101208181525050620000e4600182620001f360201b6200138a1790919060201c565b6101408181525050818051906020012060e08181525050808051906020012061010081815250504660a08181525050620001236200025060201b60201c565b608081815250503073ffffffffffffffffffffffffffffffffffffffff1660c08173ffffffffffffffffffffffffffffffffffffffff16815250505050505033600260006101000a81548173ffffffffffffffffffffffffffffffffffffffff021916908373ffffffffffffffffffffffffffffffffffffffff160217905550600060068190555080600360006101000a81548173ffffffffffffffffffffffffffffffffffffffff021916908373ffffffffffffffffffffffffffffffffffffffff1602179055505062000924565b600060208351101562000219576200021183620002ad60201b60201c565b90506200024a565b8262000230836200031a60201b620013ce1760201c565b60000190816200024191906200064e565b5060ff60001b90505b92915050565b60007f8b73c3c69bb8fe3d512ecc4cf759cc79239f7b179b0ffacaa9a75d522b39400f60e0516101005146306040516020016200029295949392919062000772565b60405160208183030381529060405280519060200120905090565b600080829050601f81511115620002fd57826040517f305a27a9000000000000000000000000000000000000000000000000000000008152600401620002f491906200085e565b60405180910390fd5b8051816200030b90620008b4565b60001c1760001b915050919050565b6000819050919050565b600080fd5b600073ffffffffffffffffffffffffffffffffffffffff82169050919050565b6000620003568262000329565b9050919050565b60006200036a8262000349565b9050919050565b6200037c816200035d565b81146200038857600080fd5b50565b6000815190506200039c8162000371565b92915050565b600060208284031215620003bb57620003ba62000324565b5b6000620003cb848285016200038b565b91505092915050565b600081519050919050565b7f4e487b7100000000000000000000000000000000000000000000000000000000600052604160045260246000fd5b7f4e487b7100000000000000000000000000000000000000000000000000000000600052602260045260246000fd5b600060028204905060018216806200045657607f821691505b6020821081036200046c576200046b6200040e565b5b50919050565b60008190508160005260206000209050919050565b60006020601f8301049050919050565b600082821b905092915050565b600060088302620004d67fffffffffffffffffffffffffffffffffffffffffffffffffffffffffffffffff8262000497565b620004e2868362000497565b95508019841693508086168417925050509392505050565b6000819050919050565b6000819050919050565b60006200052f620005296200052384620004fa565b62000504565b620004fa565b9050919050565b6000819050919050565b6200054b836200050e565b620005636200055a8262000536565b848454620004a4565b825550505050565b600090565b6200057a6200056b565b6200058781848462000540565b505050565b5b81811015620005af57620005a360008262000570565b6001810190506200058d565b5050565b601f821115620005fe57620005c88162000472565b620005d38462000487565b81016020851015620005e3578190505b620005fb620005f28562000487565b8301826200058c565b50505b505050565b600082821c905092915050565b6000620006236000198460080262000603565b1980831691505092915050565b60006200063e838362000610565b9150826002028217905092915050565b6200065982620003d4565b67ffffffffffffffff811115620006755762000674620003df565b5b6200068182546200043d565b6200068e828285620005b3565b600060209050601f831160018114620006c65760008415620006b1578287015190505b620006bd858262000630565b8655506200072d565b601f198416620006d68662000472565b60005b828110156200070057848901518255600182019150602085019450602081019050620006d9565b868310156200072057848901516200071c601f89168262000610565b8355505b6001600288020188555050505b505050505050565b6000819050919050565b6200074a8162000735565b82525050565b6200075b81620004fa565b82525050565b6200076c8162000349565b82525050565b600060a0820190506200078960008301886200073f565b6200079860208301876200073f565b620007a760408301866200073f565b620007b6606083018562000750565b620007c5608083018462000761565b9695505050505050565b600082825260208201905092915050565b60005b8381101562000800578082015181840152602081019050620007e3565b60008484015250505050565b6000601f19601f8301169050919050565b60006200082a82620003d4565b620008368185620007cf565b935062000848818560208601620007e0565b62000853816200080c565b840191505092915050565b600060208201905081810360008301526200087a81846200081d565b905092915050565b600081519050919050565b6000819050602082019050919050565b6000620008ab825162000735565b80915050919050565b6000620008c18262000882565b82620008cd846200088d565b9050620008da816200089d565b925060208210156200091d57620009187fffffffffffffffffffffffffffffffffffffffffffffffffffffffffffffffff8360200360080262000497565b831692505b5050919050565b60805160a05160c05160e0516101005161012051610140516133276200097f6000396000610e0801526000610dd401526000611b4d01526000611b2c015260006117390152600061178f015260006117b801526133276000f3fe608060405234801561001057600080fd5b50600436106100b45760003560e01c806384b0196e1161007157806384b0196e1461017a5780639618877d1461019e578063b47639bc146101ba578063bb580aea146101d8578063c3f010f714610208578063ce606ee014610226576100b4565b8063117a5b90146100b95780632e1a7d4d146100ec5780632ebc05041461010857806335d2a2691461012457806355a373d61461014057806369958ab91461015e575b600080fd5b6100d360048036038101906100ce9190611dbc565b610244565b6040516100e39493929190611f1a565b60405180910390f35b61010660048036038101906101019190611dbc565b610326565b005b610122600480360381019061011d919061209b565b6106ef565b005b61013e60048036038101906101399190612144565b610870565b005b610148610c2e565b6040516101559190612223565b60405180910390f35b61017860048036038101906101739190611dbc565b610c54565b005b610182610dc1565b6040516101959796959493929190612371565b60405180910390f35b6101b860048036038101906101b39190612421565b610ec3565b005b6101c26110ac565b6040516101cf9190612480565b60405180910390f35b6101f260048036038101906101ed91906124c7565b6110b1565b6040516101ff9190612615565b60405180910390f35b61021061135e565b60405161021d9190612637565b60405180910390f35b61022e611364565b60405161023b9190612652565b60405180910390f35b6005818154811061025457600080fd5b90600052602060002090600402016000915090508060000180546102779061269c565b80601f01602080910402602001604051908101604052809291908181526020018280546102a39061269c565b80156102f05780601f106102c5576101008083540402835291602001916102f0565b820191906000526020600020905b8154815290600101906020018083116102d357829003601f168201915b5050505050908060010160009054906101000a900460ff16908060020154908060030160009054906101000a900460ff16905084565b600654811061036a576040517f08c379a000000000000000000000000000000000000000000000000000000000815260040161036190612719565b60405180910390fd5b6000600582815481106103805761037f612739565b5b90600052602060002090600402019050600060028111156103a4576103a3611e79565b5b8160010160009054906101000a900460ff1660028111156103c8576103c7611e79565b5b03610408576040517f08c379a00000000000000000000000000000000000000000000000000000000081526004016103ff906127b4565b60405180910390fd5b60006004600084815260200190815260200160002060003373ffffffffffffffffffffffffffffffffffffffff1673ffffffffffffffffffffffffffffffffffffffff1681526020019081526020016000209050600060028111156104705761046f611e79565b5b8160020160009054906101000a900460ff16600281111561049457610493611e79565b5b146104d4576040517f08c379a00000000000000000000000000000000000000000000000000000000081526004016104cb90612820565b60405180910390fd5b6002808111156104e7576104e6611e79565b5b8260010160009054906101000a900460ff16600281111561050b5761050a611e79565b5b036105d55760018160020160006101000a81548160ff0219169083600281111561053857610537611e79565b5b0217905550600360009054906101000a900473ffffffffffffffffffffffffffffffffffffffff1673ffffffffffffffffffffffffffffffffffffffff1663a9059cbb3383600101546040518363ffffffff1660e01b815260040161059e929190612871565b600060405180830381600087803b1580156105b857600080fd5b505af11580156105cc573d6000803e3d6000fd5b505050506106ea565b8160030160009054906101000a900460ff16156106bb5760018160020160006101000a81548160ff0219169083600281111561061457610613611e79565b5b0217905550600360009054906101000a900473ffffffffffffffffffffffffffffffffffffffff1673ffffffffffffffffffffffffffffffffffffffff1663a9059cbb33610667600285600101546113d8565b6040518363ffffffff1660e01b8152600401610684929190612871565b600060405180830381600087803b15801561069e57600080fd5b505af11580156106b2573d6000803e3d6000fd5b505050506106e9565b60028160020160006101000a81548160ff021916908360028111156106e3576106e2611e79565b5b02179055505b5b505050565b600260009054906101000a900473ffffffffffffffffffffffffffffffffffffffff1673ffffffffffffffffffffffffffffffffffffffff163373ffffffffffffffffffffffffffffffffffffffff161461074957600080fd5b60056040518060800160405280838152602001600060028111156107705761076f611e79565b5b81526020016000815260200160001515815250908060018154018082558091505060019003906000526020600020906004020160009091909190915060008201518160000190816107c19190612a1a565b5060208201518160010160006101000a81548160ff021916908360028111156107ed576107ec611e79565b5b02179055506040820151816002015560608201518160030160006101000a81548160ff02191690831515021790555050506006600081548092919061083190612b1b565b91905055507fec7ff2cf87269be58abc820fec1f0d290b8132908dd4dd454f4e34cbf0aba08f816040516108659190612b63565b60405180910390a150565b60065483106108b4576040517f08c379a00000000000000000000000000000000000000000000000000000000081526004016108ab90612719565b60405180910390fd5b6000600584815481106108ca576108c9612739565b5b90600052602060002090600402019050600060028111156108ee576108ed611e79565b5b8160010160009054906101000a900460ff16600281111561091257610911611e79565b5b14610952576040517f08c379a000000000000000000000000000000000000000000000000000000000815260040161094990612bd1565b60405180910390fd5b6004600085815260200190815260200160002060003373ffffffffffffffffffffffffffffffffffffffff1673ffffffffffffffffffffffffffffffffffffffff16815260200190815260200160002060000160009054906101000a900460ff16156109f3576040517f08c379a00000000000000000000000000000000000000000000000000000000081526004016109ea90612c3d565b60405180910390fd5b6000610a4284848080601f016020809104026020016040519081016040528093929190818152602001838380828437600081840152601f19601f820116905080830192505050505050506113f4565b9050600360009054906101000a900473ffffffffffffffffffffffffffffffffffffffff1673ffffffffffffffffffffffffffffffffffffffff166323b872dd3330846040518463ffffffff1660e01b8152600401610aa393929190612c5d565b600060405180830381600087803b158015610abd57600080fd5b505af1158015610ad1573d6000803e3d6000fd5b50505050604051806060016040528060011515815260200182815260200160006002811115610b0357610b02611e79565b5b8152506004600087815260200190815260200160002060003373ffffffffffffffffffffffffffffffffffffffff1673ffffffffffffffffffffffffffffffffffffffff16815260200190815260200160002060008201518160000160006101000a81548160ff0219169083151502179055506020820151816001015560408201518160020160006101000a81548160ff02191690836002811115610bab57610baa611e79565b5b021790555090505060058581548110610bc757610bc6612739565b5b90600052602060002090600402016002016000815480929190610be990612b1b565b91905055507fbb5d359abfa911f55d10e5b1fe62141092342ccba0734899a68c3cdb935b5a578582604051610c1f929190612c94565b60405180910390a15050505050565b600360009054906101000a900473ffffffffffffffffffffffffffffffffffffffff1681565b600260009054906101000a900473ffffffffffffffffffffffffffffffffffffffff1673ffffffffffffffffffffffffffffffffffffffff163373ffffffffffffffffffffffffffffffffffffffff1614610cae57600080fd5b6006548110610cf2576040517f08c379a0000000000000000000000000000000000000000000000000000000008152600401610ce990612719565b60405180910390fd5b600060058281548110610d0857610d07612739565b5b9060005260206000209060040201905060006002811115610d2c57610d2b611e79565b5b8160010160009054906101000a900460ff166002811115610d5057610d4f611e79565b5b14610d90576040517f08c379a0000000000000000000000000000000000000000000000000000000008152600401610d8790612d2f565b60405180910390fd5b60028160010160006101000a81548160ff02191690836002811115610db857610db7611e79565b5b02179055505050565b600060608060008060006060610e0160007f000000000000000000000000000000000000000000000000000000000000000061140890919063ffffffff16565b610e3560017f000000000000000000000000000000000000000000000000000000000000000061140890919063ffffffff16565b46306000801b600067ffffffffffffffff811115610e5657610e55611f70565b5b604051908082528060200260200182016040528015610e845781602001602082028036833780820191505090505b507f0f00000000000000000000000000000000000000000000000000000000000000959493929190965096509650965096509650965090919293949596565b600260009054906101000a900473ffffffffffffffffffffffffffffffffffffffff1673ffffffffffffffffffffffffffffffffffffffff163373ffffffffffffffffffffffffffffffffffffffff1614610f1d57600080fd5b6006548210610f61576040517f08c379a0000000000000000000000000000000000000000000000000000000008152600401610f5890612719565b60405180910390fd5b600060058381548110610f7757610f76612739565b5b9060005260206000209060040201905060006002811115610f9b57610f9a611e79565b5b8160010160009054906101000a900460ff166002811115610fbf57610fbe611e79565b5b14610fff576040517f08c379a0000000000000000000000000000000000000000000000000000000008152600401610ff690612d2f565b60405180910390fd5b60018160010160006101000a81548160ff0219169083600281111561102757611026611e79565b5b0217905550818160030160006101000a81548160ff0219169083151502179055507f66c3f89814e2a936b977dc7e4d54e3a559f51421525f0e39b54789f78cc25d1f836005858154811061107e5761107d612739565b5b90600052602060002090600402016000018460405161109f93929190612dd3565b60405180910390a1505050565b600281565b6110b9611d02565b8383838080601f016020809104026020016040519081016040528093929190818152602001838380828437600081840152601f19601f8201169050808301925050505050505060006111527f051d137ae0e1fae6e3b6559fed4442b35a85a9a39789838ad5c9ea05e7da2dce84604051602001611137929190612e11565b604051602081830303815290604052805190602001206114b8565b9050600061116082846114d2565b90503373ffffffffffffffffffffffffffffffffffffffff168173ffffffffffffffffffffffffffffffffffffffff16146111d0576040517f08c379a00000000000000000000000000000000000000000000000000000000081526004016111c790612eac565b60405180910390fd5b6006548910611214576040517f08c379a000000000000000000000000000000000000000000000000000000000815260040161120b90612719565b60405180910390fd5b600460008a815260200190815260200160002060003373ffffffffffffffffffffffffffffffffffffffff1673ffffffffffffffffffffffffffffffffffffffff16815260200190815260200160002060000160009054906101000a900460ff166112b4576040517f08c379a00000000000000000000000000000000000000000000000000000000081526004016112ab90612f18565b60405180910390fd5b6000600460008b815260200190815260200160002060003373ffffffffffffffffffffffffffffffffffffffff1673ffffffffffffffffffffffffffffffffffffffff1681526020019081526020016000209050604051806040016040528061132383600101548c60006114f9565b81526020018260020160009054906101000a900460ff16600281111561134c5761134b611e79565b5b81525095505050505050949350505050565b60065481565b600260009054906101000a900473ffffffffffffffffffffffffffffffffffffffff1681565b60006020835110156113a65761139f83611536565b90506113c8565b826113b0836113ce565b60000190816113bf9190612a1a565b5060ff60001b90505b92915050565b6000819050919050565b60006113ec828463ffffffff16600161159e565b905092915050565b6000611401826002611641565b9050919050565b606060ff60001b83146114255761141e836116c1565b90506114b2565b8180546114319061269c565b80601f016020809104026020016040519081016040528092919081815260200182805461145d9061269c565b80156114aa5780601f1061147f576101008083540402835291602001916114aa565b820191906000526020600020905b81548152906001019060200180831161148d57829003601f168201915b505050505090505b92915050565b60006114cb6114c5611735565b836117ec565b9050919050565b60008060006114e1858561182d565b915091506114ee8161187e565b819250505092915050565b6060600084146115145761150d84846119e4565b905061152f565b61152c6115268363ffffffff16611aa3565b846119e4565b90505b9392505050565b600080829050601f8151111561158357826040517f305a27a900000000000000000000000000000000000000000000000000000000815260040161157a9190612b63565b60405180910390fd5b80518161158f90612f5d565b60001c1760001b915050919050565b60008082156115b357600160f81b90506115bb565b600060f81b90505b60008560001b8560001b836040516020016115d893929190613006565b60405160208183030381529060405290506000815190506115f7611d2e565b60006020905060006048905081838560208801845afa61161657600080fd5b8260006001811061162a57611629612739565b5b602002015160001c96505050505050509392505050565b600080838360f81b60405160200161165a92919061307f565b6040516020818303038152906040529050600081519050611679611d2e565b60006020905060006042905081838560208801845afa61169857600080fd5b826000600181106116ac576116ab612739565b5b602002015160001c9550505050505092915050565b606060006116ce83611ab7565b90506000602067ffffffffffffffff8111156116ed576116ec611f70565b5b6040519080825280601f01601f19166020018201604052801561171f5781602001600182028036833780820191505090505b5090508181528360208201528092505050919050565b60007f000000000000000000000000000000000000000000000000000000000000000073ffffffffffffffffffffffffffffffffffffffff163073ffffffffffffffffffffffffffffffffffffffff161480156117b157507f000000000000000000000000000000000000000000000000000000000000000046145b156117de577f000000000000000000000000000000000000000000000000000000000000000090506117e9565b6117e6611b07565b90505b90565b60006040517f190100000000000000000000000000000000000000000000000000000000000081528360028201528260228201526042812091505092915050565b600080604183510361186e5760008060006020860151925060408601519150606086015160001a905061186287828585611b9d565b94509450505050611877565b60006002915091505b9250929050565b6000600481111561189257611891611e79565b5b8160048111156118a5576118a4611e79565b5b03156119e157600160048111156118bf576118be611e79565b5b8160048111156118d2576118d1611e79565b5b03611912576040517f08c379a0000000000000000000000000000000000000000000000000000000008152600401611909906130f3565b60405180910390fd5b6002600481111561192657611925611e79565b5b81600481111561193957611938611e79565b5b03611979576040517f08c379a00000000000000000000000000000000000000000000000000000000081526004016119709061315f565b60405180910390fd5b6003600481111561198d5761198c611e79565b5b8160048111156119a05761199f611e79565b5b036119e0576040517f08c379a00000000000000000000000000000000000000000000000000000000081526004016119d7906131f1565b60405180910390fd5b5b50565b60606119ee611d50565b8360001b81600060028110611a0657611a05612739565b5b6020020181815250508281600160028110611a2457611a23612739565b5b602002018181525050600060409050605467ffffffffffffffff811115611a4e57611a4d611f70565b5b6040519080825280601f01601f191660200182016040528015611a805781602001600182028036833780820191505090505b5092506000604390506054848385845afa611a9a57600080fd5b50505092915050565b6000611ab0826002611c7f565b9050919050565b60008060ff8360001c169050601f811115611afe576040517fb3512b0c00000000000000000000000000000000000000000000000000000000815260040160405180910390fd5b80915050919050565b60007f8b73c3c69bb8fe3d512ecc4cf759cc79239f7b179b0ffacaa9a75d522b39400f7f00000000000000000000000000000000000000000000000000000000000000007f00000000000000000000000000000000000000000000000000000000000000004630604051602001611b82959493929190613211565b60405160208183030381529060405280519060200120905090565b6000807f7fffffffffffffffffffffffffffffff5d576e7357a4501ddfe92f46681b20a08360001c1115611bd8576000600391509150611c76565b600060018787878760405160008152602001604052604051611bfd9493929190613280565b6020604051602081039080840390855afa158015611c1f573d6000803e3d6000fd5b505050602060405103519050600073ffffffffffffffffffffffffffffffffffffffff168173ffffffffffffffffffffffffffffffffffffffff1603611c6d57600060019250925050611c76565b80600092509250505b94509492505050565b6000808360001b8360f81b604051602001611c9b9291906132c5565b6040516020818303038152906040529050600081519050611cba611d2e565b6000602090506000604d905081838560208801845afa611cd957600080fd5b82600060018110611ced57611cec612739565b5b602002015160001c9550505050505092915050565b60405180604001604052806060815260200160006002811115611d2857611d27611e79565b5b81525090565b6040518060200160405280600190602082028036833780820191505090505090565b6040518060400160405280600290602082028036833780820191505090505090565b6000604051905090565b600080fd5b600080fd5b6000819050919050565b611d9981611d86565b8114611da457600080fd5b50565b600081359050611db681611d90565b92915050565b600060208284031215611dd257611dd1611d7c565b5b6000611de084828501611da7565b91505092915050565b600081519050919050565b600082825260208201905092915050565b60005b83811015611e23578082015181840152602081019050611e08565b60008484015250505050565b6000601f19601f8301169050919050565b6000611e4b82611de9565b611e558185611df4565b9350611e65818560208601611e05565b611e6e81611e2f565b840191505092915050565b7f4e487b7100000000000000000000000000000000000000000000000000000000600052602160045260246000fd5b60038110611eb957611eb8611e79565b5b50565b6000819050611eca82611ea8565b919050565b6000611eda82611ebc565b9050919050565b611eea81611ecf565b82525050565b611ef981611d86565b82525050565b60008115159050919050565b611f1481611eff565b82525050565b60006080820190508181036000830152611f348187611e40565b9050611f436020830186611ee1565b611f506040830185611ef0565b611f5d6060830184611f0b565b95945050505050565b600080fd5b600080fd5b7f4e487b7100000000000000000000000000000000000000000000000000000000600052604160045260246000fd5b611fa882611e2f565b810181811067ffffffffffffffff82111715611fc757611fc6611f70565b5b80604052505050565b6000611fda611d72565b9050611fe68282611f9f565b919050565b600067ffffffffffffffff82111561200657612005611f70565b5b61200f82611e2f565b9050602081019050919050565b82818337600083830152505050565b600061203e61203984611feb565b611fd0565b90508281526020810184848401111561205a57612059611f6b565b5b61206584828561201c565b509392505050565b600082601f83011261208257612081611f66565b5b813561209284826020860161202b565b91505092915050565b6000602082840312156120b1576120b0611d7c565b5b600082013567ffffffffffffffff8111156120cf576120ce611d81565b5b6120db8482850161206d565b91505092915050565b600080fd5b600080fd5b60008083601f84011261210457612103611f66565b5b8235905067ffffffffffffffff811115612121576121206120e4565b5b60208301915083600182028301111561213d5761213c6120e9565b5b9250929050565b60008060006040848603121561215d5761215c611d7c565b5b600061216b86828701611da7565b935050602084013567ffffffffffffffff81111561218c5761218b611d81565b5b612198868287016120ee565b92509250509250925092565b600073ffffffffffffffffffffffffffffffffffffffff82169050919050565b6000819050919050565b60006121e96121e46121df846121a4565b6121c4565b6121a4565b9050919050565b60006121fb826121ce565b9050919050565b600061220d826121f0565b9050919050565b61221d81612202565b82525050565b60006020820190506122386000830184612214565b92915050565b60007fff0000000000000000000000000000000000000000000000000000000000000082169050919050565b6122738161223e565b82525050565b6000612284826121a4565b9050919050565b61229481612279565b82525050565b6000819050919050565b6122ad8161229a565b82525050565b600081519050919050565b600082825260208201905092915050565b6000819050602082019050919050565b6122e881611d86565b82525050565b60006122fa83836122df565b60208301905092915050565b6000602082019050919050565b600061231e826122b3565b61232881856122be565b9350612333836122cf565b8060005b8381101561236457815161234b88826122ee565b975061235683612306565b925050600181019050612337565b5085935050505092915050565b600060e082019050612386600083018a61226a565b81810360208301526123988189611e40565b905081810360408301526123ac8188611e40565b90506123bb6060830187611ef0565b6123c8608083018661228b565b6123d560a08301856122a4565b81810360c08301526123e78184612313565b905098975050505050505050565b6123fe81611eff565b811461240957600080fd5b50565b60008135905061241b816123f5565b92915050565b6000806040838503121561243857612437611d7c565b5b600061244685828601611da7565b92505060206124578582860161240c565b9150509250929050565b600063ffffffff82169050919050565b61247a81612461565b82525050565b60006020820190506124956000830184612471565b92915050565b6124a48161229a565b81146124af57600080fd5b50565b6000813590506124c18161249b565b92915050565b600080600080606085870312156124e1576124e0611d7c565b5b60006124ef87828801611da7565b9450506020612500878288016124b2565b935050604085013567ffffffffffffffff81111561252157612520611d81565b5b61252d878288016120ee565b925092505092959194509250565b600081519050919050565b600082825260208201905092915050565b60006125628261253b565b61256c8185612546565b935061257c818560208601611e05565b61258581611e2f565b840191505092915050565b600381106125a1576125a0611e79565b5b50565b60008190506125b282612590565b919050565b60006125c2826125a4565b9050919050565b6125d2816125b7565b82525050565b600060408301600083015184820360008601526125f58282612557565b915050602083015161260a60208601826125c9565b508091505092915050565b6000602082019050818103600083015261262f81846125d8565b905092915050565b600060208201905061264c6000830184611ef0565b92915050565b6000602082019050612667600083018461228b565b92915050565b7f4e487b7100000000000000000000000000000000000000000000000000000000600052602260045260246000fd5b600060028204905060018216806126b457607f821691505b6020821081036126c7576126c661266d565b5b50919050565b7f496e76616c69642067616d652049440000000000000000000000000000000000600082015250565b6000612703600f83611df4565b915061270e826126cd565b602082019050919050565b60006020820190508181036000830152612732816126f6565b9050919050565b7f4e487b7100000000000000000000000000000000000000000000000000000000600052603260045260246000fd5b7f47616d65206973206e6f742079657420636c6f73656400000000000000000000600082015250565b600061279e601683611df4565b91506127a982612768565b602082019050919050565b600060208201905081810360008301526127cd81612791565b9050919050565b7f42657420616c72656164792070726f6365737365640000000000000000000000600082015250565b600061280a601583611df4565b9150612815826127d4565b602082019050919050565b60006020820190508181036000830152612839816127fd565b9050919050565b600061285b61285661285184611d86565b6121c4565b611d86565b9050919050565b61286b81612840565b82525050565b6000604082019050612886600083018561228b565b6128936020830184612862565b9392505050565b60008190508160005260206000209050919050565b60006020601f8301049050919050565b600082821b905092915050565b6000600883026128fc7fffffffffffffffffffffffffffffffffffffffffffffffffffffffffffffffff826128bf565b61290686836128bf565b95508019841693508086168417925050509392505050565b6000819050919050565b61293183612840565b61294561293d8261291e565b8484546128cc565b825550505050565b600090565b61295a61294d565b612965818484612928565b505050565b5b818110156129895761297e600082612952565b60018101905061296b565b5050565b601f8211156129ce5761299f8161289a565b6129a8846128af565b810160208510156129b7578190505b6129cb6129c3856128af565b83018261296a565b50505b505050565b600082821c905092915050565b60006129f1600019846008026129d3565b1980831691505092915050565b6000612a0a83836129e0565b9150826002028217905092915050565b612a2382611de9565b67ffffffffffffffff811115612a3c57612a3b611f70565b5b612a46825461269c565b612a5182828561298d565b600060209050601f831160018114612a845760008415612a72578287015190505b612a7c85826129fe565b865550612ae4565b601f198416612a928661289a565b60005b82811015612aba57848901518255600182019150602085019450602081019050612a95565b86831015612ad75784890151612ad3601f8916826129e0565b8355505b6001600288020188555050505b505050505050565b7f4e487b7100000000000000000000000000000000000000000000000000000000600052601160045260246000fd5b6000612b2682611d86565b91507fffffffffffffffffffffffffffffffffffffffffffffffffffffffffffffffff8203612b5857612b57612aec565b5b600182019050919050565b60006020820190508181036000830152612b7d8184611e40565b905092915050565b7f47616d65206973206e6f74206f70656e00000000000000000000000000000000600082015250565b6000612bbb601083611df4565b9150612bc682612b85565b602082019050919050565b60006020820190508181036000830152612bea81612bae565b9050919050565b7f596f7520616c7265616479206265740000000000000000000000000000000000600082015250565b6000612c27600f83611df4565b9150612c3282612bf1565b602082019050919050565b60006020820190508181036000830152612c5681612c1a565b9050919050565b6000606082019050612c72600083018661228b565b612c7f602083018561228b565b612c8c6040830184612862565b949350505050565b6000604082019050612ca96000830185611ef0565b612cb66020830184612862565b9392505050565b7f47616d6520697320616c726561647920636c6f736564206f722063616e63656c60008201527f6564000000000000000000000000000000000000000000000000000000000000602082015250565b6000612d19602283611df4565b9150612d2482612cbd565b604082019050919050565b60006020820190508181036000830152612d4881612d0c565b9050919050565b60008154612d5c8161269c565b612d668186611df4565b94506001821660008114612d815760018114612d9757612dca565b60ff198316865281151560200286019350612dca565b612da08561289a565b60005b83811015612dc257815481890152600182019150602081019050612da3565b808801955050505b50505092915050565b6000606082019050612de86000830186611ef0565b8181036020830152612dfa8185612d4f565b9050612e096040830184611f0b565b949350505050565b6000604082019050612e2660008301856122a4565b612e3360208301846122a4565b9392505050565b7f454950373132207369676e657220616e64207472616e73616374696f6e20736960008201527f676e657220646f206e6f74206d61746368000000000000000000000000000000602082015250565b6000612e96603183611df4565b9150612ea182612e3a565b604082019050919050565b60006020820190508181036000830152612ec581612e89565b9050919050565b7f4e6f2062657420666f7220746869732075736572000000000000000000000000600082015250565b6000612f02601483611df4565b9150612f0d82612ecc565b602082019050919050565b60006020820190508181036000830152612f3181612ef5565b9050919050565b6000819050602082019050919050565b6000612f54825161229a565b80915050919050565b6000612f688261253b565b82612f7284612f38565b9050612f7d81612f48565b92506020821015612fbd57612fb87fffffffffffffffffffffffffffffffffffffffffffffffffffffffffffffffff836020036008026128bf565b831692505b5050919050565b6000819050919050565b612fdf612fda8261229a565b612fc4565b82525050565b6000819050919050565b613000612ffb8261223e565b612fe5565b82525050565b60006130128286612fce565b6020820191506130228285612fce565b6020820191506130328284612fef565b600182019150819050949350505050565b600081905092915050565b60006130598261253b565b6130638185613043565b9350613073818560208601611e05565b80840191505092915050565b600061308b828561304e565b91506130978284612fef565b6001820191508190509392505050565b7f45434453413a20696e76616c6964207369676e61747572650000000000000000600082015250565b60006130dd601883611df4565b91506130e8826130a7565b602082019050919050565b6000602082019050818103600083015261310c816130d0565b9050919050565b7f45434453413a20696e76616c6964207369676e6174757265206c656e67746800600082015250565b6000613149601f83611df4565b915061315482613113565b602082019050919050565b600060208201905081810360008301526131788161313c565b9050919050565b7f45434453413a20696e76616c6964207369676e6174757265202773272076616c60008201527f7565000000000000000000000000000000000000000000000000000000000000602082015250565b60006131db602283611df4565b91506131e68261317f565b604082019050919050565b6000602082019050818103600083015261320a816131ce565b9050919050565b600060a08201905061322660008301886122a4565b61323360208301876122a4565b61324060408301866122a4565b61324d6060830185611ef0565b61325a608083018461228b565b9695505050505050565b600060ff82169050919050565b61327a81613264565b82525050565b600060808201905061329560008301876122a4565b6132a26020830186613271565b6132af60408301856122a4565b6132bc60608301846122a4565b95945050505050565b60006132d18285612fce565b6020820191506132e18284612fef565b600182019150819050939250505056fea2646970667358221220be92905cf01434d4948dc33c704dc928d20ae4c364eb7a2ee68cf00b8973c70564736f6c63430008120033",
  "linkReferences": {},
  "deployedLinkReferences": {}
}