{
  "_format": "hh-sol-artifact-1",
  "contractName": "PrivateBet",
  "sourceName": "examples/PrivateBet.sol",
  "abi": [
    {
      "inputs": [
        {
          "internalType": "contract EncryptedERC20",
          "name": "_tokenContract",
          "type": "address"
        }
      ],
      "stateMutability": "nonpayable",
      "type": "constructor"
    },
    {
      "inputs": [],
      "name": "InvalidShortString",
      "type": "error"
    },
    {
      "inputs": [
        {
          "internalType": "string",
          "name": "str",
          "type": "string"
        }
      ],
      "name": "StringTooLong",
      "type": "error"
    },
    {
      "anonymous": false,
      "inputs": [],
      "name": "EIP712DomainChanged",
      "type": "event"
    },
    {
      "anonymous": false,
      "inputs": [
        {
          "indexed": false,
          "internalType": "uint256",
          "name": "gameID",
          "type": "uint256"
        },
        {
          "indexed": false,
          "internalType": "string",
          "name": "description",
          "type": "string"
        },
        {
          "indexed": false,
          "internalType": "uint8",
          "name": "winningOption",
          "type": "uint8"
        }
      ],
      "name": "GameClosed",
      "type": "event"
    },
    {
      "anonymous": false,
      "inputs": [
        {
          "indexed": false,
          "internalType": "uint256",
          "name": "gameID",
          "type": "uint256"
        },
        {
          "indexed": false,
          "internalType": "uint256",
          "name": "betOption",
          "type": "uint256"
        },
        {
          "indexed": false,
          "internalType": "euint32",
          "name": "encryptedBetAmount",
          "type": "uint256"
        }
      ],
      "name": "NewBet",
      "type": "event"
    },
    {
      "anonymous": false,
      "inputs": [
        {
          "indexed": false,
          "internalType": "string",
          "name": "description",
          "type": "string"
        }
      ],
      "name": "NewGame",
      "type": "event"
    },
    {
      "inputs": [],
      "name": "BET_MULTIPLIER",
      "outputs": [
        {
          "internalType": "uint32",
          "name": "",
          "type": "uint32"
        }
      ],
      "stateMutability": "view",
      "type": "function"
    },
    {
      "inputs": [
        {
          "internalType": "uint256",
          "name": "_gameId",
          "type": "uint256"
        }
      ],
      "name": "cancelGame",
      "outputs": [],
      "stateMutability": "nonpayable",
      "type": "function"
    },
    {
      "inputs": [
        {
          "internalType": "uint256",
          "name": "_gameId",
          "type": "uint256"
        },
        {
          "internalType": "uint8",
          "name": "winningOption",
          "type": "uint8"
        }
      ],
      "name": "closeGame",
      "outputs": [],
      "stateMutability": "nonpayable",
      "type": "function"
    },
    {
      "inputs": [],
      "name": "contractOwner",
      "outputs": [
        {
          "internalType": "address",
          "name": "",
          "type": "address"
        }
      ],
      "stateMutability": "view",
      "type": "function"
    },
    {
      "inputs": [
        {
          "internalType": "string",
          "name": "_description",
          "type": "string"
        },
        {
          "internalType": "string",
          "name": "option1",
          "type": "string"
        },
        {
          "internalType": "string",
          "name": "option2",
          "type": "string"
        }
      ],
      "name": "createGame",
      "outputs": [],
      "stateMutability": "nonpayable",
      "type": "function"
    },
    {
      "inputs": [],
      "name": "eip712Domain",
      "outputs": [
        {
          "internalType": "bytes1",
          "name": "fields",
          "type": "bytes1"
        },
        {
          "internalType": "string",
          "name": "name",
          "type": "string"
        },
        {
          "internalType": "string",
          "name": "version",
          "type": "string"
        },
        {
          "internalType": "uint256",
          "name": "chainId",
          "type": "uint256"
        },
        {
          "internalType": "address",
          "name": "verifyingContract",
          "type": "address"
        },
        {
          "internalType": "bytes32",
          "name": "salt",
          "type": "bytes32"
        },
        {
          "internalType": "uint256[]",
          "name": "extensions",
          "type": "uint256[]"
        }
      ],
      "stateMutability": "view",
      "type": "function"
    },
    {
      "inputs": [
        {
          "internalType": "uint256",
          "name": "",
          "type": "uint256"
        }
      ],
      "name": "games",
      "outputs": [
        {
          "internalType": "string",
          "name": "description",
          "type": "string"
        },
        {
          "internalType": "bool",
          "name": "isOpen",
          "type": "bool"
        },
        {
          "internalType": "uint256",
          "name": "numBets",
          "type": "uint256"
        },
        {
          "internalType": "string",
          "name": "option1",
          "type": "string"
        },
        {
          "internalType": "string",
          "name": "option2",
          "type": "string"
        },
        {
          "internalType": "uint8",
          "name": "winningOption",
          "type": "uint8"
        }
      ],
      "stateMutability": "view",
      "type": "function"
    },
    {
      "inputs": [
        {
          "internalType": "uint256",
          "name": "gameId",
          "type": "uint256"
        },
        {
          "internalType": "bytes32",
          "name": "publicKey",
          "type": "bytes32"
        },
        {
          "internalType": "bytes",
          "name": "signature",
          "type": "bytes"
        }
      ],
      "name": "getBet",
      "outputs": [
        {
          "components": [
            {
              "internalType": "bytes",
              "name": "amount",
              "type": "bytes"
            },
            {
              "internalType": "uint256",
              "name": "option",
              "type": "uint256"
            },
            {
              "internalType": "enum PrivateBet.BetState",
              "name": "state",
              "type": "uint8"
            }
          ],
          "internalType": "struct PrivateBet.BetReturn",
          "name": "",
          "type": "tuple"
        }
      ],
      "stateMutability": "view",
      "type": "function"
    },
    {
      "inputs": [],
      "name": "numGames",
      "outputs": [
        {
          "internalType": "uint256",
          "name": "",
          "type": "uint256"
        }
      ],
      "stateMutability": "view",
      "type": "function"
    },
    {
      "inputs": [
        {
          "internalType": "uint256",
          "name": "_gameId",
          "type": "uint256"
        },
        {
          "internalType": "uint8",
          "name": "_betOption",
          "type": "uint8"
        },
        {
          "internalType": "bytes",
          "name": "_encryptedAmount",
          "type": "bytes"
        }
      ],
      "name": "placeBet",
      "outputs": [],
      "stateMutability": "nonpayable",
      "type": "function"
    },
    {
      "inputs": [],
      "name": "tokenContract",
      "outputs": [
        {
          "internalType": "contract EncryptedERC20",
          "name": "",
          "type": "address"
        }
      ],
      "stateMutability": "view",
      "type": "function"
    },
    {
      "inputs": [
        {
          "internalType": "uint256",
          "name": "_gameId",
          "type": "uint256"
        }
      ],
      "name": "withdraw",
      "outputs": [],
      "stateMutability": "nonpayable",
      "type": "function"
    }
  ],
  "bytecode": "0x6101606040523480156200001257600080fd5b5060405162003ea438038062003ea48339818101604052810190620000389190620003a2565b6040518060400160405280601381526020017f417574686f72697a6174696f6e20746f6b656e000000000000000000000000008152506040518060400160405280600181526020017f31000000000000000000000000000000000000000000000000000000000000008152508181620000c1600083620001f360201b620014951790919060201c565b6101208181525050620000e4600182620001f360201b620014951790919060201c565b6101408181525050818051906020012060e08181525050808051906020012061010081815250504660a08181525050620001236200025060201b60201c565b608081815250503073ffffffffffffffffffffffffffffffffffffffff1660c08173ffffffffffffffffffffffffffffffffffffffff16815250505050505033600260006101000a81548173ffffffffffffffffffffffffffffffffffffffff021916908373ffffffffffffffffffffffffffffffffffffffff160217905550600060068190555080600360006101000a81548173ffffffffffffffffffffffffffffffffffffffff021916908373ffffffffffffffffffffffffffffffffffffffff1602179055505062000924565b600060208351101562000219576200021183620002ad60201b60201c565b90506200024a565b8262000230836200031a60201b620014d91760201c565b60000190816200024191906200064e565b5060ff60001b90505b92915050565b60007f8b73c3c69bb8fe3d512ecc4cf759cc79239f7b179b0ffacaa9a75d522b39400f60e0516101005146306040516020016200029295949392919062000772565b60405160208183030381529060405280519060200120905090565b600080829050601f81511115620002fd57826040517f305a27a9000000000000000000000000000000000000000000000000000000008152600401620002f491906200085e565b60405180910390fd5b8051816200030b90620008b4565b60001c1760001b915050919050565b6000819050919050565b600080fd5b600073ffffffffffffffffffffffffffffffffffffffff82169050919050565b6000620003568262000329565b9050919050565b60006200036a8262000349565b9050919050565b6200037c816200035d565b81146200038857600080fd5b50565b6000815190506200039c8162000371565b92915050565b600060208284031215620003bb57620003ba62000324565b5b6000620003cb848285016200038b565b91505092915050565b600081519050919050565b7f4e487b7100000000000000000000000000000000000000000000000000000000600052604160045260246000fd5b7f4e487b7100000000000000000000000000000000000000000000000000000000600052602260045260246000fd5b600060028204905060018216806200045657607f821691505b6020821081036200046c576200046b6200040e565b5b50919050565b60008190508160005260206000209050919050565b60006020601f8301049050919050565b600082821b905092915050565b600060088302620004d67fffffffffffffffffffffffffffffffffffffffffffffffffffffffffffffffff8262000497565b620004e2868362000497565b95508019841693508086168417925050509392505050565b6000819050919050565b6000819050919050565b60006200052f620005296200052384620004fa565b62000504565b620004fa565b9050919050565b6000819050919050565b6200054b836200050e565b620005636200055a8262000536565b848454620004a4565b825550505050565b600090565b6200057a6200056b565b6200058781848462000540565b505050565b5b81811015620005af57620005a360008262000570565b6001810190506200058d565b5050565b601f821115620005fe57620005c88162000472565b620005d38462000487565b81016020851015620005e3578190505b620005fb620005f28562000487565b8301826200058c565b50505b505050565b600082821c905092915050565b6000620006236000198460080262000603565b1980831691505092915050565b60006200063e838362000610565b9150826002028217905092915050565b6200065982620003d4565b67ffffffffffffffff811115620006755762000674620003df565b5b6200068182546200043d565b6200068e828285620005b3565b600060209050601f831160018114620006c65760008415620006b1578287015190505b620006bd858262000630565b8655506200072d565b601f198416620006d68662000472565b60005b828110156200070057848901518255600182019150602085019450602081019050620006d9565b868310156200072057848901516200071c601f89168262000610565b8355505b6001600288020188555050505b505050505050565b6000819050919050565b6200074a8162000735565b82525050565b6200075b81620004fa565b82525050565b6200076c8162000349565b82525050565b600060a0820190506200078960008301886200073f565b6200079860208301876200073f565b620007a760408301866200073f565b620007b6606083018562000750565b620007c5608083018462000761565b9695505050505050565b600082825260208201905092915050565b60005b8381101562000800578082015181840152602081019050620007e3565b60008484015250505050565b6000601f19601f8301169050919050565b60006200082a82620003d4565b620008368185620007cf565b935062000848818560208601620007e0565b62000853816200080c565b840191505092915050565b600060208201905081810360008301526200087a81846200081d565b905092915050565b600081519050919050565b6000819050602082019050919050565b6000620008ab825162000735565b80915050919050565b6000620008c18262000882565b82620008cd846200088d565b9050620008da816200089d565b925060208210156200091d57620009187fffffffffffffffffffffffffffffffffffffffffffffffffffffffffffffffff8360200360080262000497565b831692505b5050919050565b60805160a05160c05160e0516101005161012051610140516135256200097f6000396000610b3801526000610b0401526000611c5801526000611c37015260006118440152600061189a015260006118c301526135256000f3fe608060405234801561001057600080fd5b50600436106100b45760003560e01c8063a24caed611610071578063a24caed614610184578063b47639bc146101a0578063b988a850146101be578063bb580aea146101da578063c3f010f71461020a578063ce606ee014610228576100b4565b8063117a5b90146100b95780632a42885d146100ee5780632e1a7d4d1461010a57806355a373d61461012657806369958ab91461014457806384b0196e14610160575b600080fd5b6100d360048036038101906100ce9190611ece565b610246565b6040516100e596959493929190611fd1565b60405180910390f35b61010860048036038101906101039190612073565b610444565b005b610124600480360381019061011f9190611ece565b6105f7565b005b61012e610995565b60405161013b9190612132565b60405180910390f35b61015e60048036038101906101599190611ece565b6109bb565b005b610168610af1565b60405161017b9796959493929190612280565b60405180910390f35b61019e60048036038101906101999190612369565b610bf3565b005b6101a8611000565b6040516101b591906123fc565b60405180910390f35b6101d860048036038101906101d39190612547565b611005565b005b6101f460048036038101906101ef919061261a565b6111a2565b60405161020191906127aa565b60405180910390f35b610212611469565b60405161021f91906127cc565b60405180910390f35b61023061146f565b60405161023d91906127e7565b60405180910390f35b6005818154811061025657600080fd5b906000526020600020906006020160009150905080600001805461027990612831565b80601f01602080910402602001604051908101604052809291908181526020018280546102a590612831565b80156102f25780601f106102c7576101008083540402835291602001916102f2565b820191906000526020600020905b8154815290600101906020018083116102d557829003601f168201915b5050505050908060010160009054906101000a900460ff169080600201549080600301805461032090612831565b80601f016020809104026020016040519081016040528092919081815260200182805461034c90612831565b80156103995780601f1061036e57610100808354040283529160200191610399565b820191906000526020600020905b81548152906001019060200180831161037c57829003601f168201915b5050505050908060040180546103ae90612831565b80601f01602080910402602001604051908101604052809291908181526020018280546103da90612831565b80156104275780601f106103fc57610100808354040283529160200191610427565b820191906000526020600020905b81548152906001019060200180831161040a57829003601f168201915b5050505050908060050160009054906101000a900460ff16905086565b600260009054906101000a900473ffffffffffffffffffffffffffffffffffffffff1673ffffffffffffffffffffffffffffffffffffffff163373ffffffffffffffffffffffffffffffffffffffff161461049e57600080fd5b60065482106104e2576040517f08c379a00000000000000000000000000000000000000000000000000000000081526004016104d9906128ae565b60405180910390fd5b6000600583815481106104f8576104f76128ce565b5b906000526020600020906006020190508060010160009054906101000a900460ff16610559576040517f08c379a000000000000000000000000000000000000000000000000000000000815260040161055090612949565b60405180910390fd5b60008160010160006101000a81548160ff021916908315150217905550818160050160006101000a81548160ff021916908360ff1602179055507f7d5923126cd935e8ee767d9be01b13b353fb448bd448df679a3c642f02f4397b83600585815481106105c9576105c86128ce565b5b9060005260206000209060060201600001846040516105ea93929190612a02565b60405180910390a1505050565b600654811061063b576040517f08c379a0000000000000000000000000000000000000000000000000000000008152600401610632906128ae565b60405180910390fd5b600060058281548110610651576106506128ce565b5b906000526020600020906006020190508060010160009054906101000a900460ff16156106b3576040517f08c379a00000000000000000000000000000000000000000000000000000000081526004016106aa90612a8c565b60405180910390fd5b60006004600084815260200190815260200160002060003373ffffffffffffffffffffffffffffffffffffffff1673ffffffffffffffffffffffffffffffffffffffff16815260200190815260200160002090506000600281111561071b5761071a6126e3565b5b8160020160019054906101000a900460ff16600281111561073f5761073e6126e3565b5b1461077f576040517f08c379a000000000000000000000000000000000000000000000000000000000815260040161077690612af8565b60405180910390fd5b600b60ff168260050160009054906101000a900460ff1660ff16036108635760018160020160016101000a81548160ff021916908360028111156107c6576107c56126e3565b5b0217905550600360009054906101000a900473ffffffffffffffffffffffffffffffffffffffff1673ffffffffffffffffffffffffffffffffffffffff1663a9059cbb3383600101546040518363ffffffff1660e01b815260040161082c929190612b49565b600060405180830381600087803b15801561084657600080fd5b505af115801561085a573d6000803e3d6000fd5b50505050610990565b8060020160009054906101000a900460ff1660ff168260050160009054906101000a900460ff1660ff16036109615760018160020160016101000a81548160ff021916908360028111156108ba576108b96126e3565b5b0217905550600360009054906101000a900473ffffffffffffffffffffffffffffffffffffffff1673ffffffffffffffffffffffffffffffffffffffff1663a9059cbb3361090d600285600101546114e3565b6040518363ffffffff1660e01b815260040161092a929190612b49565b600060405180830381600087803b15801561094457600080fd5b505af1158015610958573d6000803e3d6000fd5b5050505061098f565b60028160020160016101000a81548160ff02191690836002811115610989576109886126e3565b5b02179055505b5b505050565b600360009054906101000a900473ffffffffffffffffffffffffffffffffffffffff1681565b600260009054906101000a900473ffffffffffffffffffffffffffffffffffffffff1673ffffffffffffffffffffffffffffffffffffffff163373ffffffffffffffffffffffffffffffffffffffff1614610a1557600080fd5b6006548110610a59576040517f08c379a0000000000000000000000000000000000000000000000000000000008152600401610a50906128ae565b60405180910390fd5b600060058281548110610a6f57610a6e6128ce565b5b906000526020600020906006020190508060010160009054906101000a900460ff16610ad0576040517f08c379a0000000000000000000000000000000000000000000000000000000008152600401610ac790612949565b60405180910390fd5b60008160010160006101000a81548160ff0219169083151502179055505050565b600060608060008060006060610b3160007f00000000000000000000000000000000000000000000000000000000000000006114ff90919063ffffffff16565b610b6560017f00000000000000000000000000000000000000000000000000000000000000006114ff90919063ffffffff16565b46306000801b600067ffffffffffffffff811115610b8657610b8561241c565b5b604051908082528060200260200182016040528015610bb45781602001602082028036833780820191505090505b507f0f00000000000000000000000000000000000000000000000000000000000000959493929190965096509650965096509650965090919293949596565b6006548410610c37576040517f08c379a0000000000000000000000000000000000000000000000000000000008152600401610c2e906128ae565b60405180910390fd5b600060058581548110610c4d57610c4c6128ce565b5b906000526020600020906006020190508060010160009054906101000a900460ff16610cae576040517f08c379a0000000000000000000000000000000000000000000000000000000008152600401610ca590612bbe565b60405180910390fd5b600260ff168460ff1610610cf7576040517f08c379a0000000000000000000000000000000000000000000000000000000008152600401610cee90612c2a565b60405180910390fd5b6004600086815260200190815260200160002060003373ffffffffffffffffffffffffffffffffffffffff1673ffffffffffffffffffffffffffffffffffffffff16815260200190815260200160002060000160009054906101000a900460ff1615610d98576040517f08c379a0000000000000000000000000000000000000000000000000000000008152600401610d8f90612c96565b60405180910390fd5b6000610de784848080601f016020809104026020016040519081016040528093929190818152602001838380828437600081840152601f19601f820116905080830192505050505050506115af565b9050600360009054906101000a900473ffffffffffffffffffffffffffffffffffffffff1673ffffffffffffffffffffffffffffffffffffffff166323b872dd3330846040518463ffffffff1660e01b8152600401610e4893929190612cb6565b600060405180830381600087803b158015610e6257600080fd5b505af1158015610e76573d6000803e3d6000fd5b5050505060405180608001604052806001151581526020018281526020018660ff16815260200160006002811115610eb157610eb06126e3565b5b8152506004600088815260200190815260200160002060003373ffffffffffffffffffffffffffffffffffffffff1673ffffffffffffffffffffffffffffffffffffffff16815260200190815260200160002060008201518160000160006101000a81548160ff0219169083151502179055506020820151816001015560408201518160020160006101000a81548160ff021916908360ff16021790555060608201518160020160016101000a81548160ff02191690836002811115610f7a57610f796126e3565b5b021790555090505060058681548110610f9657610f956128ce565b5b90600052602060002090600602016002016000815480929190610fb890612d1c565b91905055507f302cba86ae90838bfa3f6799ca7b93cb9da6db0df4691c044af7d296635d3f75868683604051610ff093929190612d95565b60405180910390a1505050505050565b600281565b600260009054906101000a900473ffffffffffffffffffffffffffffffffffffffff1673ffffffffffffffffffffffffffffffffffffffff163373ffffffffffffffffffffffffffffffffffffffff161461105f57600080fd5b60056040518060c0016040528085815260200160011515815260200160008152602001848152602001838152602001600b60ff16815250908060018154018082558091505060019003906000526020600020906006020160009091909190915060008201518160000190816110d49190612f37565b5060208201518160010160006101000a81548160ff0219169083151502179055506040820151816002015560608201518160030190816111149190612f37565b50608082015181600401908161112a9190612f37565b5060a08201518160050160006101000a81548160ff021916908360ff16021790555050506006600081548092919061116190612d1c565b91905055507fec7ff2cf87269be58abc820fec1f0d290b8132908dd4dd454f4e34cbf0aba08f836040516111959190613009565b60405180910390a1505050565b6111aa611e0d565b8383838080601f016020809104026020016040519081016040528093929190818152602001838380828437600081840152601f19601f8201169050808301925050505050505060006112437f051d137ae0e1fae6e3b6559fed4442b35a85a9a39789838ad5c9ea05e7da2dce8460405160200161122892919061302b565b604051602081830303815290604052805190602001206115c3565b9050600061125182846115dd565b90503373ffffffffffffffffffffffffffffffffffffffff168173ffffffffffffffffffffffffffffffffffffffff16146112c1576040517f08c379a00000000000000000000000000000000000000000000000000000000081526004016112b8906130c6565b60405180910390fd5b6006548910611305576040517f08c379a00000000000000000000000000000000000000000000000000000000081526004016112fc906128ae565b60405180910390fd5b600460008a815260200190815260200160002060003373ffffffffffffffffffffffffffffffffffffffff1673ffffffffffffffffffffffffffffffffffffffff16815260200190815260200160002060000160009054906101000a900460ff166113a5576040517f08c379a000000000000000000000000000000000000000000000000000000000815260040161139c90613132565b60405180910390fd5b6000600460008b815260200190815260200160002060003373ffffffffffffffffffffffffffffffffffffffff1673ffffffffffffffffffffffffffffffffffffffff1681526020019081526020016000209050604051806060016040528061141483600101548c6000611604565b81526020018260020160009054906101000a900460ff1660ff1681526020018260020160019054906101000a900460ff166002811115611457576114566126e3565b5b81525095505050505050949350505050565b60065481565b600260009054906101000a900473ffffffffffffffffffffffffffffffffffffffff1681565b60006020835110156114b1576114aa83611641565b90506114d3565b826114bb836114d9565b60000190816114ca9190612f37565b5060ff60001b90505b92915050565b6000819050919050565b60006114f7828463ffffffff1660016116a9565b905092915050565b606060ff60001b831461151c576115158361174c565b90506115a9565b81805461152890612831565b80601f016020809104026020016040519081016040528092919081815260200182805461155490612831565b80156115a15780601f10611576576101008083540402835291602001916115a1565b820191906000526020600020905b81548152906001019060200180831161158457829003601f168201915b505050505090505b92915050565b60006115bc8260026117c0565b9050919050565b60006115d66115d0611840565b836118f7565b9050919050565b60008060006115ec8585611938565b915091506115f981611989565b819250505092915050565b60606000841461161f576116188484611aef565b905061163a565b6116376116318363ffffffff16611bae565b84611aef565b90505b9392505050565b600080829050601f8151111561168e57826040517f305a27a90000000000000000000000000000000000000000000000000000000081526004016116859190613009565b60405180910390fd5b80518161169a90613177565b60001c1760001b915050919050565b60008082156116be57600160f81b90506116c6565b600060f81b90505b60008560001b8560001b836040516020016116e393929190613220565b6040516020818303038152906040529050600081519050611702611e40565b60006020905060006048905081838560208801845afa61172157600080fd5b82600060018110611735576117346128ce565b5b602002015160001c96505050505050509392505050565b6060600061175983611bc2565b90506000602067ffffffffffffffff8111156117785761177761241c565b5b6040519080825280601f01601f1916602001820160405280156117aa5781602001600182028036833780820191505090505b5090508181528360208201528092505050919050565b600080838360f81b6040516020016117d9929190613299565b60405160208183030381529060405290506000815190506117f8611e40565b60006020905060006042905081838560208801845afa61181757600080fd5b8260006001811061182b5761182a6128ce565b5b602002015160001c9550505050505092915050565b60007f000000000000000000000000000000000000000000000000000000000000000073ffffffffffffffffffffffffffffffffffffffff163073ffffffffffffffffffffffffffffffffffffffff161480156118bc57507f000000000000000000000000000000000000000000000000000000000000000046145b156118e9577f000000000000000000000000000000000000000000000000000000000000000090506118f4565b6118f1611c12565b90505b90565b60006040517f190100000000000000000000000000000000000000000000000000000000000081528360028201528260228201526042812091505092915050565b60008060418351036119795760008060006020860151925060408601519150606086015160001a905061196d87828585611ca8565b94509450505050611982565b60006002915091505b9250929050565b6000600481111561199d5761199c6126e3565b5b8160048111156119b0576119af6126e3565b5b0315611aec57600160048111156119ca576119c96126e3565b5b8160048111156119dd576119dc6126e3565b5b03611a1d576040517f08c379a0000000000000000000000000000000000000000000000000000000008152600401611a149061330d565b60405180910390fd5b60026004811115611a3157611a306126e3565b5b816004811115611a4457611a436126e3565b5b03611a84576040517f08c379a0000000000000000000000000000000000000000000000000000000008152600401611a7b90613379565b60405180910390fd5b60036004811115611a9857611a976126e3565b5b816004811115611aab57611aaa6126e3565b5b03611aeb576040517f08c379a0000000000000000000000000000000000000000000000000000000008152600401611ae29061340b565b60405180910390fd5b5b50565b6060611af9611e62565b8360001b81600060028110611b1157611b106128ce565b5b6020020181815250508281600160028110611b2f57611b2e6128ce565b5b602002018181525050600060409050605467ffffffffffffffff811115611b5957611b5861241c565b5b6040519080825280601f01601f191660200182016040528015611b8b5781602001600182028036833780820191505090505b5092506000604390506054848385845afa611ba557600080fd5b50505092915050565b6000611bbb826002611d8a565b9050919050565b60008060ff8360001c169050601f811115611c09576040517fb3512b0c00000000000000000000000000000000000000000000000000000000815260040160405180910390fd5b80915050919050565b60007f8b73c3c69bb8fe3d512ecc4cf759cc79239f7b179b0ffacaa9a75d522b39400f7f00000000000000000000000000000000000000000000000000000000000000007f00000000000000000000000000000000000000000000000000000000000000004630604051602001611c8d95949392919061342b565b60405160208183030381529060405280519060200120905090565b6000807f7fffffffffffffffffffffffffffffff5d576e7357a4501ddfe92f46681b20a08360001c1115611ce3576000600391509150611d81565b600060018787878760405160008152602001604052604051611d08949392919061347e565b6020604051602081039080840390855afa158015611d2a573d6000803e3d6000fd5b505050602060405103519050600073ffffffffffffffffffffffffffffffffffffffff168173ffffffffffffffffffffffffffffffffffffffff1603611d7857600060019250925050611d81565b80600092509250505b94509492505050565b6000808360001b8360f81b604051602001611da69291906134c3565b6040516020818303038152906040529050600081519050611dc5611e40565b6000602090506000604d905081838560208801845afa611de457600080fd5b82600060018110611df857611df76128ce565b5b602002015160001c9550505050505092915050565b6040518060600160405280606081526020016000815260200160006002811115611e3a57611e396126e3565b5b81525090565b6040518060200160405280600190602082028036833780820191505090505090565b6040518060400160405280600290602082028036833780820191505090505090565b6000604051905090565b600080fd5b600080fd5b6000819050919050565b611eab81611e98565b8114611eb657600080fd5b50565b600081359050611ec881611ea2565b92915050565b600060208284031215611ee457611ee3611e8e565b5b6000611ef284828501611eb9565b91505092915050565b600081519050919050565b600082825260208201905092915050565b60005b83811015611f35578082015181840152602081019050611f1a565b60008484015250505050565b6000601f19601f8301169050919050565b6000611f5d82611efb565b611f678185611f06565b9350611f77818560208601611f17565b611f8081611f41565b840191505092915050565b60008115159050919050565b611fa081611f8b565b82525050565b611faf81611e98565b82525050565b600060ff82169050919050565b611fcb81611fb5565b82525050565b600060c0820190508181036000830152611feb8189611f52565b9050611ffa6020830188611f97565b6120076040830187611fa6565b81810360608301526120198186611f52565b9050818103608083015261202d8185611f52565b905061203c60a0830184611fc2565b979650505050505050565b61205081611fb5565b811461205b57600080fd5b50565b60008135905061206d81612047565b92915050565b6000806040838503121561208a57612089611e8e565b5b600061209885828601611eb9565b92505060206120a98582860161205e565b9150509250929050565b600073ffffffffffffffffffffffffffffffffffffffff82169050919050565b6000819050919050565b60006120f86120f36120ee846120b3565b6120d3565b6120b3565b9050919050565b600061210a826120dd565b9050919050565b600061211c826120ff565b9050919050565b61212c81612111565b82525050565b60006020820190506121476000830184612123565b92915050565b60007fff0000000000000000000000000000000000000000000000000000000000000082169050919050565b6121828161214d565b82525050565b6000612193826120b3565b9050919050565b6121a381612188565b82525050565b6000819050919050565b6121bc816121a9565b82525050565b600081519050919050565b600082825260208201905092915050565b6000819050602082019050919050565b6121f781611e98565b82525050565b600061220983836121ee565b60208301905092915050565b6000602082019050919050565b600061222d826121c2565b61223781856121cd565b9350612242836121de565b8060005b8381101561227357815161225a88826121fd565b975061226583612215565b925050600181019050612246565b5085935050505092915050565b600060e082019050612295600083018a612179565b81810360208301526122a78189611f52565b905081810360408301526122bb8188611f52565b90506122ca6060830187611fa6565b6122d7608083018661219a565b6122e460a08301856121b3565b81810360c08301526122f68184612222565b905098975050505050505050565b600080fd5b600080fd5b600080fd5b60008083601f84011261232957612328612304565b5b8235905067ffffffffffffffff81111561234657612345612309565b5b6020830191508360018202830111156123625761236161230e565b5b9250929050565b6000806000806060858703121561238357612382611e8e565b5b600061239187828801611eb9565b94505060206123a28782880161205e565b935050604085013567ffffffffffffffff8111156123c3576123c2611e93565b5b6123cf87828801612313565b925092505092959194509250565b600063ffffffff82169050919050565b6123f6816123dd565b82525050565b600060208201905061241160008301846123ed565b92915050565b600080fd5b7f4e487b7100000000000000000000000000000000000000000000000000000000600052604160045260246000fd5b61245482611f41565b810181811067ffffffffffffffff821117156124735761247261241c565b5b80604052505050565b6000612486611e84565b9050612492828261244b565b919050565b600067ffffffffffffffff8211156124b2576124b161241c565b5b6124bb82611f41565b9050602081019050919050565b82818337600083830152505050565b60006124ea6124e584612497565b61247c565b90508281526020810184848401111561250657612505612417565b5b6125118482856124c8565b509392505050565b600082601f83011261252e5761252d612304565b5b813561253e8482602086016124d7565b91505092915050565b6000806000606084860312156125605761255f611e8e565b5b600084013567ffffffffffffffff81111561257e5761257d611e93565b5b61258a86828701612519565b935050602084013567ffffffffffffffff8111156125ab576125aa611e93565b5b6125b786828701612519565b925050604084013567ffffffffffffffff8111156125d8576125d7611e93565b5b6125e486828701612519565b9150509250925092565b6125f7816121a9565b811461260257600080fd5b50565b600081359050612614816125ee565b92915050565b6000806000806060858703121561263457612633611e8e565b5b600061264287828801611eb9565b945050602061265387828801612605565b935050604085013567ffffffffffffffff81111561267457612673611e93565b5b61268087828801612313565b925092505092959194509250565b600081519050919050565b600082825260208201905092915050565b60006126b58261268e565b6126bf8185612699565b93506126cf818560208601611f17565b6126d881611f41565b840191505092915050565b7f4e487b7100000000000000000000000000000000000000000000000000000000600052602160045260246000fd5b60038110612723576127226126e3565b5b50565b600081905061273482612712565b919050565b600061274482612726565b9050919050565b61275481612739565b82525050565b6000606083016000830151848203600086015261277782826126aa565b915050602083015161278c60208601826121ee565b50604083015161279f604086018261274b565b508091505092915050565b600060208201905081810360008301526127c4818461275a565b905092915050565b60006020820190506127e16000830184611fa6565b92915050565b60006020820190506127fc600083018461219a565b92915050565b7f4e487b7100000000000000000000000000000000000000000000000000000000600052602260045260246000fd5b6000600282049050600182168061284957607f821691505b60208210810361285c5761285b612802565b5b50919050565b7f496e76616c69642067616d652049440000000000000000000000000000000000600082015250565b6000612898600f83611f06565b91506128a382612862565b602082019050919050565b600060208201905081810360008301526128c78161288b565b9050919050565b7f4e487b7100000000000000000000000000000000000000000000000000000000600052603260045260246000fd5b7f47616d6520697320616c726561647920636c6f73656400000000000000000000600082015250565b6000612933601683611f06565b915061293e826128fd565b602082019050919050565b6000602082019050818103600083015261296281612926565b9050919050565b60008190508160005260206000209050919050565b6000815461298b81612831565b6129958186611f06565b945060018216600081146129b057600181146129c6576129f9565b60ff1983168652811515602002860193506129f9565b6129cf85612969565b60005b838110156129f1578154818901526001820191506020810190506129d2565b808801955050505b50505092915050565b6000606082019050612a176000830186611fa6565b8181036020830152612a29818561297e565b9050612a386040830184611fc2565b949350505050565b7f47616d65206973206e6f742079657420636c6f73656400000000000000000000600082015250565b6000612a76601683611f06565b9150612a8182612a40565b602082019050919050565b60006020820190508181036000830152612aa581612a69565b9050919050565b7f42657420616c72656164792070726f6365737365640000000000000000000000600082015250565b6000612ae2601583611f06565b9150612aed82612aac565b602082019050919050565b60006020820190508181036000830152612b1181612ad5565b9050919050565b6000612b33612b2e612b2984611e98565b6120d3565b611e98565b9050919050565b612b4381612b18565b82525050565b6000604082019050612b5e600083018561219a565b612b6b6020830184612b3a565b9392505050565b7f47616d65206973206e6f74206f70656e00000000000000000000000000000000600082015250565b6000612ba8601083611f06565b9150612bb382612b72565b602082019050919050565b60006020820190508181036000830152612bd781612b9b565b9050919050565b7f496e76616c6964206f7074696f6e000000000000000000000000000000000000600082015250565b6000612c14600e83611f06565b9150612c1f82612bde565b602082019050919050565b60006020820190508181036000830152612c4381612c07565b9050919050565b7f596f7520616c7265616479206265740000000000000000000000000000000000600082015250565b6000612c80600f83611f06565b9150612c8b82612c4a565b602082019050919050565b60006020820190508181036000830152612caf81612c73565b9050919050565b6000606082019050612ccb600083018661219a565b612cd8602083018561219a565b612ce56040830184612b3a565b949350505050565b7f4e487b7100000000000000000000000000000000000000000000000000000000600052601160045260246000fd5b6000612d2782611e98565b91507fffffffffffffffffffffffffffffffffffffffffffffffffffffffffffffffff8203612d5957612d58612ced565b5b600182019050919050565b6000612d7f612d7a612d7584611fb5565b6120d3565b611e98565b9050919050565b612d8f81612d64565b82525050565b6000606082019050612daa6000830186611fa6565b612db76020830185612d86565b612dc46040830184612b3a565b949350505050565b60006020601f8301049050919050565b600082821b905092915050565b600060088302612e197fffffffffffffffffffffffffffffffffffffffffffffffffffffffffffffffff82612ddc565b612e238683612ddc565b95508019841693508086168417925050509392505050565b6000819050919050565b612e4e83612b18565b612e62612e5a82612e3b565b848454612de9565b825550505050565b600090565b612e77612e6a565b612e82818484612e45565b505050565b5b81811015612ea657612e9b600082612e6f565b600181019050612e88565b5050565b601f821115612eeb57612ebc81612969565b612ec584612dcc565b81016020851015612ed4578190505b612ee8612ee085612dcc565b830182612e87565b50505b505050565b600082821c905092915050565b6000612f0e60001984600802612ef0565b1980831691505092915050565b6000612f278383612efd565b9150826002028217905092915050565b612f4082611efb565b67ffffffffffffffff811115612f5957612f5861241c565b5b612f638254612831565b612f6e828285612eaa565b600060209050601f831160018114612fa15760008415612f8f578287015190505b612f998582612f1b565b865550613001565b601f198416612faf86612969565b60005b82811015612fd757848901518255600182019150602085019450602081019050612fb2565b86831015612ff45784890151612ff0601f891682612efd565b8355505b6001600288020188555050505b505050505050565b600060208201905081810360008301526130238184611f52565b905092915050565b600060408201905061304060008301856121b3565b61304d60208301846121b3565b9392505050565b7f454950373132207369676e657220616e64207472616e73616374696f6e20736960008201527f676e657220646f206e6f74206d61746368000000000000000000000000000000602082015250565b60006130b0603183611f06565b91506130bb82613054565b604082019050919050565b600060208201905081810360008301526130df816130a3565b9050919050565b7f4e6f2062657420666f7220746869732075736572000000000000000000000000600082015250565b600061311c601483611f06565b9150613127826130e6565b602082019050919050565b6000602082019050818103600083015261314b8161310f565b9050919050565b6000819050602082019050919050565b600061316e82516121a9565b80915050919050565b60006131828261268e565b8261318c84613152565b905061319781613162565b925060208210156131d7576131d27fffffffffffffffffffffffffffffffffffffffffffffffffffffffffffffffff83602003600802612ddc565b831692505b5050919050565b6000819050919050565b6131f96131f4826121a9565b6131de565b82525050565b6000819050919050565b61321a6132158261214d565b6131ff565b82525050565b600061322c82866131e8565b60208201915061323c82856131e8565b60208201915061324c8284613209565b600182019150819050949350505050565b600081905092915050565b60006132738261268e565b61327d818561325d565b935061328d818560208601611f17565b80840191505092915050565b60006132a58285613268565b91506132b18284613209565b6001820191508190509392505050565b7f45434453413a20696e76616c6964207369676e61747572650000000000000000600082015250565b60006132f7601883611f06565b9150613302826132c1565b602082019050919050565b60006020820190508181036000830152613326816132ea565b9050919050565b7f45434453413a20696e76616c6964207369676e6174757265206c656e67746800600082015250565b6000613363601f83611f06565b915061336e8261332d565b602082019050919050565b6000602082019050818103600083015261339281613356565b9050919050565b7f45434453413a20696e76616c6964207369676e6174757265202773272076616c60008201527f7565000000000000000000000000000000000000000000000000000000000000602082015250565b60006133f5602283611f06565b915061340082613399565b604082019050919050565b60006020820190508181036000830152613424816133e8565b9050919050565b600060a08201905061344060008301886121b3565b61344d60208301876121b3565b61345a60408301866121b3565b6134676060830185611fa6565b613474608083018461219a565b9695505050505050565b600060808201905061349360008301876121b3565b6134a06020830186611fc2565b6134ad60408301856121b3565b6134ba60608301846121b3565b95945050505050565b60006134cf82856131e8565b6020820191506134df8284613209565b600182019150819050939250505056fea2646970667358221220cce805e46c17a3dc14b1466e7c27a137597fa88ba70a322c60c3b304659794b764736f6c63430008120033",
  "linkReferences": {},
  "deployedLinkReferences": {}
}